:100000000C9490000C94B8000C94B8000C94B800B8
:100010000C94B8000C94B8000C94B8000C94B80080
:100020000C94B8000C9490010C94B8000C94D11569
:100030000C94B8000C94B8000C94B8000C94B80060
:100040000C946A1D0C94B8000C94761C0C94A81C9B
:100050000C94B8000C94B8000C94B8000C94B80040
:100060000C94B8000C94B800DE109210A510B810D3
:10007000CB10F210FF10084AD73B3BCE016E84BC78
:10008000BFFDC12F3D6C74319ABD56833DDA3D00F2
:10009000C77F11BED9E4BB4C3E916BAAAABE00003B
:1000A00000803F072C7AA5BA6CC590DA3B9365FCBB
:1000B0008BBC53F810FD3C5692834DBD879D3AB6DC
:1000C0003DCBC9BF5BBE73DA0FC93F00000000081B
:1000D000000201000003040700000000000000000F
:1000E00001020408102040800102040810200102CF
:1000F000040810200404040404040404020202029C
:10010000020203030303030300000000250028008C
:100110002B0000000000240027002A00AF15D81C87
:1001200011241FBECFEFD8E0DEBFCDBF12E0A0E0AC
:10013000B1E0E2E9F4E402C005900D92A432B10707
:10014000D9F723E0A4E2B2E001C01D92A93FB207B3
:10015000E1F710E0C0E9D0E004C02197FE010E9461
:10016000831FCE38D107C9F70E94061D0C94472281
:100170000C940000CF92DF92EF92FF920F931F93A7
:1001800069017A01611571058105910569F481E0C4
:1001900090E0A0E0B0E080932D0290932E02A09317
:1001A0002F02B093300208C060932D0270932E028C
:1001B00080932F029093300210932C0200932B0215
:1001C000809170008E7F809370008091B0008C7F52
:1001D0008093B0008091B100877F8093B1008091BF
:1001E000B6008F7D8093B600809170008D7F8093E4
:1001F00070008091B10084608093B1008091B10063
:100200008C7F8093B10020E034E244E75BE4C701D7
:10021000B6010E94691A20E030E040E85CE30E94E9
:10022000691A0E942D1920E031E0C901861B970B45
:1002300090932502809324021F910F91FF90EF90DD
:10024000DF90CF9008950F931F938A012FE632E13C
:1002500043E85AE30E94BA001F910F91089510924B
:100260002702109228021092290210922A0210925C
:10027000260280912402909125028093B200E0E74B
:10028000F0E08081816080830895809127029091C1
:100290002802A0912902B0912A020196A11DB11D48
:1002A0008093270290932802A0932902B0932A02F8
:1002B0008091270290912802A0912902B0912A02F0
:1002C00040912D0250912E0260912F0270913002C8
:1002D00084179507A607B70710F1809126028111B0
:1002E0001EC081E08093260280912702909128020F
:1002F000A0912902B0912A02841B950BA60BB70B83
:100300008093270290932802A0932902B0932A0297
:10031000E0912B02F0912C0209951092260208958B
:100320001F920F920FB60F9211242F933F934F936A
:100330005F936F937F938F939F93AF93BF93EF934D
:10034000FF9380912402909125028093B2000E9435
:100350004501FF91EF91BF91AF919F918F917F9157
:100360006F915F914F913F912F910F900FBE0F9022
:100370001F901895CF93DF93EC011B821A821C8289
:100380001E821D828DE089871DA61CA67983688345
:100390006AE171E0CE0107960E9499201A861BA699
:1003A000DF91CF910895EF92FF920F931F93CF9318
:1003B000DF93EC017B018A018C8190E001962BE0B8
:1003C000289FB001299F700D11248A819B810E9472
:1003D000A31F9B838A832C8148E050E0B7013BE058
:1003E000239F800D911D11240E94AE208C81EA81F3
:1003F000FB819BE0899FE00DF11D1124128701878D
:100400008C818F5F8C83DF91CF911F910F91FF9033
:10041000EF900895FC017683658308952F923F92B3
:100420004F925F926F927F928F929F92AF92BF9204
:10043000CF92DF92EF92FF920F931F93CF93DF93B0
:1004400000D01F92CDB7DEB78C018C969B838A8338
:10045000180197E0290E311C2801AAE04A0E511C10
:10046000F80180819181DC01ED91FC910084F1859E
:10047000E02D0995181619060CF068C0F801808166
:100480009181DC01ED91FC910284F385E02D0995C9
:1004900089838981F801918598133CC04A815B81E9
:1004A000B101C2010E94BD206C01892B79F1D801F4
:1004B00014966C90712C812C912CA12CB12CA6142B
:1004C000B704DCF4F801E280F380E80CF91C48E0A2
:1004D00050E0B701C6010E94A020FBE08F0E911CE6
:1004E000892B39F4D7011996ED91FC911A9709954A
:1004F0000DC0BFEFAB1ABB0AE2CFD8011596ED9144
:10050000FC911697309711F0C6010995F8011286F3
:1005100013A6A6CF898190E00E948920892B09F437
:100520009FCFD8019B968C919B97803208F098CFF3
:1005300091E0980F9B969C932981F801E80FF11D9B
:100540002287F801E90FF11D12868ACF0F900F90D4
:100550000F90DF91CF911F910F91FF90EF90DF905F
:10056000CF90BF90AF909F908F907F906F905F9053
:100570004F903F902F900895AC01445D5F4FBC01B8
:10058000695F7F4F80E090E00C94BD206CE171E0EA
:100590008FE493E00C94581DCF92DF92EF92FF927C
:1005A0000F931F93CF93DF938AEEE82E81E0F82E0E
:1005B000C0E0D0E0670100E010E0F60161917191C8
:1005C0006F01CE01800F911F8F5B9D4F0E942E17F0
:1005D00064E670E080E090E00E94D91D0D5F1F4F3F
:1005E0000930110551F7F6E0EF0EF11C2996C432DF
:1005F000D10501F7DF91CF911F910F91FF90EF90FF
:10060000DF90CF900895CF93609101037091020322
:100610008091030390910403C1E020E030E048E4BE
:1006200052EC0E94B6188111C0E08C2FCF91089532
:100630002F923F924F925F926F927F928F929F92F2
:10064000AF92BF92CF92DF92EF92FF920F931F93E0
:10065000CF93DF93CDB7DEB76A970FB6F894DEBFBE
:100660000FBECDBF1C0149875A876B877C870D87DA
:100670001E872F87388B20E030E04FE753E46985F1
:100680007A858B859C850E94B6188823A9F08CE01A
:10069000829DF001839DF00D1124E750FD4F2081D4
:1006A00031814281538169857A858B859C850E9441
:1006B000D7174B015C0103C0812C912C540120E021
:1006C00030E04FE753E46D857E858F8598890E94E1
:1006D000B6188823B9F08CE0829DF001839DF00D5F
:1006E0001124E750FD4F24813581468157816D8566
:1006F0007E858F8598890E94D71769837A838B833B
:100700009C8304C019821A821B821C8220E030E084
:100710004FE753E4C701B6010E94B6188823A9F039
:100720008CE0829DF001839DF00D1124E750FD4F78
:100730002085318542855385C701B6010E94D717B0
:100740006D837E838F83988704C01D821E821F82E3
:100750001886A5019401C501B4010E94691A2B01F4
:100760003C0129813A814B815C81CA01B9010E9417
:10077000691A9B01AC01C301B2010E94D8172B0179
:100780003C012D813E814F815885CA01B9010E94EB
:10079000691A9B01AC01C301B2010E94D8170E94E3
:1007A000DC1A2B013C018091950290919602A09158
:1007B0009702B0919802898B9A8BAB8BBC8B8091FE
:1007C000160190911701A0911801B09119018D8B1C
:1007D0009E8BAF8BB88F8CE0829D8001839D100D26
:1007E0001124D801A756BD4FBA8FA98FA30192013A
:1007F000C501B4010E94BB1829893A894B895C89DB
:100800000E94691A2D893E894F89588D0E94691A64
:10081000E98DFA8D6083718382839383A3019201B2
:1008200069817A818B819C810E94BB1829893A89D0
:100830004B895C890E94691A2D893E894F89588DA0
:100840000E94691AA98DBA8D14966D937D938D932C
:100850009C931797A30192016D817E818F8198856A
:100860000E94BB1829893A894B895C890E94691AC0
:100870002D893E894F89588D0E94691AE98DFA8D1C
:10088000608771878287938720E030E04FE753E4E9
:1008900069857A858B859C850E94B618882359F0D6
:1008A000F801E753FD4F89859A85AB85BC85808328
:1008B0009183A283B38320E030E04FE753E46D855A
:1008C0007E858F8598890E94B618882381F08CE0F8
:1008D000829DF001839DF00D1124E753FD4F8D851E
:1008E0009E85AF85B88984839583A683B78320E0EE
:1008F00030E04FE753E4C701B6010E94B6188823E1
:1009000061F08CE0829DF001839DF00D1124E7538E
:10091000FD4FC086D186E286F3866A960FB6F894BC
:10092000DEBF0FBECDBFDF91CF911F910F91FF9022
:10093000EF90DF90CF90BF90AF909F908F907F907F
:100940006F905F904F903F902F9008958F929F925D
:10095000AF92BF92CF92DF92EF92FF920F931F93CD
:10096000CF93DF932CE0AC01249FC001259F900D15
:1009700011248C0107501D4FEC01C753DD4F580166
:1009800054E0A50EB11C4E0184E0880E911C680154
:10099000E8E0CE0ED11C7E01F8E0EF0EF11CF8016C
:1009A0006081718182819381288139814A815B8153
:1009B0000E94B6188111F3CFF501608171818281A7
:1009C0009381F40120813181428153810E94B618C4
:1009D0008111E5CFF6016081718182819381F701F8
:1009E00020813181428153810E94B6188111D7CF75
:1009F000DF91CF911F910F91FF90EF90DF90CF90FB
:100A0000BF90AF909F908F90089580E090E00E94FB
:100A1000A60481E090E00E94A60482E090E00E949B
:100A2000A60483E090E00C94A604CF92DF92EF92AC
:100A3000FF920F931F93CF93DF93809106019091C4
:100A40000701A0910801B09109018093950290934C
:100A50009602A0939702B0939802C0E0D0E0C12C18
:100A6000D12C80EEE82E81ECF82E00E010E02FE78C
:100A700033E4B901A801CE010E9418032196C430C5
:100A8000D10569F7DF91CF911F910F91FF90EF9002
:100A9000DF90CF900C940505CF92DF92EF92FF92FA
:100AA0000F931F93CF93DF938091060190910701DD
:100AB000A0910801B091090180939502909396024C
:100AC000A0939702B0939802C0E0D0E0C12CD12C43
:100AD00088E4E82E82ECF82E00E010E02FE733E403
:100AE000B901A801CE010E9418032196C430D10596
:100AF00069F7DF91CF911F910F91FF90EF90DF90F9
:100B0000CF900C940505CF92DF92EF92FF920F9356
:100B10001F93CF93DF934091120150911301609185
:100B200014017091150140939502509396026093C1
:100B3000970270939802EC01209709F4E9C1609143
:100B4000210370912203809123039091240320E0DC
:100B500030E0A9010E94B618C12CD12C10EFE12E73
:100B600011ECF12E00E010E0980140E050E068E761
:100B700072E48111EAC083E090E00E9418030E94B1
:100B80000505C12CD12C58E4E52E52ECF52E00E0E1
:100B900010E020EA31E44FE65FE060E872E480E0D4
:100BA00090E00E94180308E11EEA23E632E445E1E2
:100BB00050EC66E072E481E090E00E94180300E0EF
:100BC00010E020EA31E44FE65FE060E872E482E0A2
:100BD00090E00E941803C12CD12C60EFE62E61EC4E
:100BE000F62E08E11EEA23E632E445E150EC66E029
:100BF00072E483E090E00E9418030E940505C12C76
:100C0000D12C78E4E72E72ECF72E08E11EEA23E6F9
:100C100032E445E150EC66E072E483E090E00E944B
:100C200018030E94050500E010E020EA31E44FE6D9
:100C30005FE060E872E480E090E00E94180308E161
:100C40001EEA23E632E445E150EC66E072E481E01E
:100C500090E00E94180300E010E020EA31E44FE643
:100C60005FE060E872E482E090E00E94180308E12F
:100C70001EEA23E632E445E150EC66E072E483E0EC
:100C800090E00E9418030E940505C12CD12CE0EFD2
:100C9000EE2EE1ECFE2E08E11EEA23E632E445E109
:100CA00050EC66E072E481E090E00E9418030E943C
:100CB0000505C12CD12CF8E4EF2EF2ECFF2E00E05C
:100CC00010E0980140E050E068E772E480E090E0D6
:100CD0000E941803C12CD12CA0EFEA2EA1ECFA2E11
:100CE00000E010E0980140E050E068E772E481E045
:100CF00090E00E941803C12CD12CB8E4EB2EB2EC8A
:100D0000FB2E00E010E020E232E440E050E068E733
:100D100072E482E090E00E94180300E010E020E21C
:100D200032E440E050E068E772E483E090E00E9443
:100D300018030E94050500E010E0980140E050E033
:100D400068E772E481E090E0DDC080E090E00E941E
:100D500018030E94050508E11EEA23E632E445E196
:100D600050EC66E072E480E090E00E941803C12C31
:100D7000D12C88E4E82E82ECF82E00E010E020EA86
:100D800031E44FE65FE060E872E481E090E00E94C9
:100D9000180308E11EEA23E632E445E150EC66E080
:100DA00072E482E090E00E94180300E010E020EA84
:100DB00031E44FE65FE060E872E483E090E00E9497
:100DC00018030E94050508E11EEA23E632E445E126
:100DD00050EC66E072E480E090E00E9418030E940C
:100DE000050508E11EEA23E632E445E150EC66E041
:100DF00072E480E090E00E94180300E010E020EA36
:100E000031E44FE65FE060E872E481E090E00E9448
:100E1000180308E11EEA23E632E445E150EC66E0FF
:100E200072E482E090E00E94180300E010E020EA03
:100E300031E44FE65FE060E872E483E090E00E9416
:100E400018030E940505C12CD12C90EFE92E91ECDE
:100E5000F92E08E11EEA23E632E445E150EC66E0B3
:100E600072E482E090E00E9418030E940505C12C04
:100E7000D12C28E4E22E22ECF22E00E010E020E259
:100E800032E440E050E068E772E480E090E00E94E5
:100E9000180300E010E020E232E440E050E068E7B0
:100EA00072E481E090E00E941803C12CD12C30EF55
:100EB000E32E31ECF32E00E010E0980140E050E02A
:100EC00068E772E482E090E00E941803C12CD12C04
:100ED00048E4E42E42ECF42E00E010E0980140E0FB
:100EE00050E068E772E483E090E00E9418030E94FB
:100EF000050500E010E0980140E050E068E772E48A
:100F000082E090E00E9418030E940505219714CE0C
:100F1000DF91CF911F910F91FF90EF90DF90CF90D5
:100F20000895CF92DF92EF92FF920F931F93CF938A
:100F3000DF9340911201509113016091140170915F
:100F40001501409395025093960260939702709317
:100F50009802EC01209709F4E9C1609115037091A2
:100F60001603809117039091180320E030E0A90147
:100F70000E94B618C12CD12C10EFE12E11ECF12EED
:100F800000E010E0980140E050E068E772E4811171
:100F9000DEC082E090E00E9418030E940505C12C8B
:100FA000D12C78E4E72E72ECF72E08E11EEA23E656
:100FB00032E445E150EC66E072E480E090E00E94AB
:100FC000180300E010E020EA31E44FE65FE060E85B
:100FD00072E481E090E00E941803C12CD12CE0EF74
:100FE000EE2EE1ECFE2E08E11EEA23E632E445E1B6
:100FF00050EC66E072E482E090E00E941803C12C9D
:10100000D12CF8E4EF2EF2ECFF2E00E010E020EA05
:1010100031E44FE65FE060E872E483E090E00E9434
:1010200018030E94050508E11EEA23E632E445E1C3
:1010300050EC66E072E482E090E00E9418030E94A7
:10104000050508E11EEA23E632E445E150EC66E0DE
:1010500072E480E090E00E94180300E010E020EAD3
:1010600031E44FE65FE060E872E481E090E00E94E6
:10107000180308E11EEA23E632E445E150EC66E09D
:1010800072E482E090E00E94180300E010E020EAA1
:1010900031E44FE65FE060E872E483E090E00E94B4
:1010A00018030E940505C12CD12CA0EFEA2EA1EC5B
:1010B000FA2E08E11EEA23E632E445E150EC66E050
:1010C00072E480E090E00E9418030E94050500E0B1
:1010D00010E0980140E050E068E772E480E090E0C2
:1010E0000E941803C12CD12CB8E4EB2EB2ECFB2EDD
:1010F00000E010E0980140E050E068E772E481E031
:1011000090E00E94180300E010E020E232E440E0AA
:1011100050E068E772E482E090E00E94180300E08B
:1011200010E020E232E440E050E068E772E483E05F
:1011300090E00E9418030E94050500E010E098016D
:1011400040E050E068E772E480E090E0E9C081E0D0
:1011500090E00E9418030E940505C12CD12C88E460
:10116000E82E82ECF82E00E010E020EA31E44FE6B1
:101170005FE060E872E480E090E00E941803C12C18
:10118000D12C90EFE92E91ECF92E08E11EEA23E62E
:1011900032E445E150EC66E072E481E090E00E94C8
:1011A0001803C12CD12C28E4E22E22ECF22E00E010
:1011B00010E020EA31E44FE65FE060E872E482E0AC
:1011C00090E00E94180308E11EEA23E632E445E1BC
:1011D00050EC66E072E483E090E00E9418030E9405
:1011E000050508E11EEA23E632E445E150EC66E03D
:1011F00072E481E090E00E9418030E94050500E07F
:1012000010E020EA31E44FE65FE060E872E480E05D
:1012100090E00E94180308E11EEA23E632E445E16B
:1012200050EC66E072E481E090E00E94180300E078
:1012300010E020EA31E44FE65FE060E872E482E02B
:1012400090E00E94180308E11EEA23E632E445E13B
:1012500050EC66E072E483E090E00E9418030E9484
:101260000505C12CD12C30EFE32E31ECF32E08E133
:101270001EEA23E632E445E150EC66E072E483E0E6
:1012800090E00E9418030E940505C12CD12C48E46F
:10129000E42E42ECF42E00E010E020E232E440E0E4
:1012A00050E068E772E480E090E00E94180300E0FC
:1012B00010E020E232E440E050E068E772E481E0D0
:1012C00090E00E94180300E010E0980140E050E038
:1012D00068E772E482E090E00E941803C12CD12CF0
:1012E00050EFE52E51ECF52E00E010E0980140E0C3
:1012F00050E068E772E483E090E00E9418030E94E7
:101300000505C12CD12C68E4E62E62ECF62E00E037
:1013100010E0980140E050E068E772E483E090E07C
:101320000E9418030E940505219714CEDF91CF91EA
:101330001F910F91FF90EF90DF90CF900895CF9283
:10134000DF92EF92FF920F931F93CF93DF93409121
:101350000E0150910F0160911001709111014093A5
:101360009502509396026093970270939802EC0155
:10137000209709F475C1609115037091160380914F
:1013800017039091180320E030E0A9010E94B618DD
:10139000C12CD12C60EFE62E61ECF62E00E010E0BF
:1013A000980140E050E068E772E48111AAC082E051
:1013B00090E00E9418030E94050500E010E020EA7A
:1013C00032E440E050E068E772E482E090E00E949E
:1013D00018030E940505C12CD12C38E4E32E32EC11
:1013E000F32E00E010E020EA32E440E050E068E74D
:1013F00072E482E090E00E9418030E94050580914B
:101400000A0190910B01A0910C01B0910D01809304
:10141000950290939602A0939702B093980200E0F1
:1014200010E0980140E050E068E772E480E090E06E
:101430000E94180300E010E020EA32E440E050E0AF
:1014400068E772E481E090E00E94180300E010E099
:1014500020E232E440E050E068E772E482E090E0AD
:101460000E94180300E010E020E232E440E050E087
:1014700068E772E483E090E00E9418030E9405058B
:1014800080910E0190910F01A0911001B091110176
:101490008093950290939602A0939702B09398023E
:1014A000C12CD12C40EFE42E41ECF42E00E010E0F2
:1014B00020EA32E440E050E068E772E481E090E046
:1014C0000E9418030E94050500E010E0980140E02A
:1014D00050E068E772E481E090E00E9418030E9407
:1014E0000505C12CD12C58E4E52E52ECF52E00E078
:1014F00010E0980140E050E068E772E481E090E09D
:10150000A9C080E090E00E9418030E94050500E059
:1015100010E020EA32E440E050E068E772E480E066
:1015200090E00E9418030E940505C12CD12C88E48C
:10153000E82E82ECF82E00E010E020EA32E440E0F1
:1015400050E068E772E480E090E00E9418030E9497
:10155000050580910A0190910B01A0910C01B091B9
:101560000D018093950290939602A0939702B093F9
:10157000980200E010E020E232E440E050E068E74A
:1015800072E480E090E00E94180300E010E020E2A6
:1015900032E440E050E068E772E481E090E00E94CD
:1015A000180300E010E0980140E050E068E772E4C2
:1015B00082E090E00E94180300E010E020EA32E4AC
:1015C00040E050E068E772E483E090E00E94180396
:1015D0000E94050580910E0190910F01A0911001CC
:1015E000B09111018093950290939602A093970277
:1015F000B0939802C12CD12C90EFE92E91ECF92EEA
:1016000000E010E020EA32E440E050E068E772E4F5
:1016100083E090E00E9418030E94050500E010E0BE
:10162000980140E050E068E772E483E090E00E94B7
:1016300018030E940505C12CD12C28E4E22E22ECCF
:10164000F22E00E010E0980140E050E068E772E41C
:1016500083E090E00E9418030E940505219788CE40
:10166000DF91CF911F910F91FF90EF90DF90CF907E
:101670000895CF92DF92EF92FF920F931F93CF9333
:10168000DF9340910E0150910F0160911001709114
:1016900011014093950250939602609397027093C4
:1016A0009802EC01209709F475C1609121037091B3
:1016B0002203809123039091240320E030E0A901CC
:1016C0000E94B618C12CD12C60EFE62E61ECF62EEC
:1016D00000E010E0980140E050E068E772E481111A
:1016E000AAC083E090E00E9418030E94050500E074
:1016F00010E020EA32E440E050E068E772E483E082
:1017000090E00E9418030E940505C12CD12C38E4FA
:10171000E32E32ECF32E00E010E020EA32E440E069
:1017200050E068E772E483E090E00E9418030E94B2
:10173000050580910A0190910B01A0910C01B091D7
:101740000D018093950290939602A0939702B09317
:10175000980200E010E020EA32E440E050E068E760
:1017600072E480E090E00E94180300E010E098012D
:1017700040E050E068E772E481E090E00E941803E6
:1017800000E010E020E232E440E050E068E772E47C
:1017900082E090E00E94180300E010E020E232E4D2
:1017A00040E050E068E772E483E090E00E941803B4
:1017B0000E94050580910E0190910F01A0911001EA
:1017C000B09111018093950290939602A093970295
:1017D000B0939802C12CD12C40EFE42E41ECF42EB2
:1017E00000E010E020EA32E440E050E068E772E414
:1017F00080E090E00E9418030E94050500E010E0E0
:10180000980140E050E068E772E480E090E00E94D8
:1018100018030E940505C12CD12C58E4E52E52EC8A
:10182000F52E00E010E0980140E050E068E772E437
:1018300080E090E0A9C081E090E00E9418030E943F
:10184000050500E010E020EA32E440E050E068E7FF
:1018500072E481E090E00E9418030E940505C12C0B
:10186000D12C88E4E82E82ECF82E00E010E020EA8B
:1018700032E440E050E068E772E481E090E00E94EA
:1018800018030E94050580910A0190910B01A09117
:101890000C01B0910D018093950290939602A09354
:1018A0009702B093980200E010E020E232E440E0BA
:1018B00050E068E772E480E090E00E94180300E0E6
:1018C00010E020E232E440E050E068E772E481E0BA
:1018D00090E00E94180300E010E020EA32E440E0CB
:1018E00050E068E772E482E090E00E94180300E0B4
:1018F00010E0980140E050E068E772E483E090E097
:101900000E9418030E94050580910E0190910F011D
:10191000A0911001B09111018093950290939602CD
:10192000A0939702B0939802C12CD12C90EFE92E8E
:1019300091ECF92E00E010E020EA32E440E050E0C3
:1019400068E772E482E090E00E9418030E940505B7
:1019500000E010E0980140E050E068E772E482E0C7
:1019600090E00E9418030E940505C12CD12C28E4A8
:10197000E22E22ECF22E00E010E0980140E050E070
:1019800068E772E482E090E00E9418030E94050577
:10199000219788CEDF91CF911F910F91FF90EF900B
:1019A000DF90CF9008958F929F92AF92BF92CF9287
:1019B000DF92EF92FF920F931F93CF93DF93C9EFC4
:1019C000D2E0C880D980EA80FB80BC01990F880BE7
:1019D000990B0E9465194B015C019B01AC01C70189
:1019E000B6010E94D817AB01BC01C12CD12C8FE7E6
:1019F000E82E83E4F82E9701860180E090E00E94B3
:101A000018032C853D854E855F85C501B4010E9474
:101A1000D817AB01BC019701860181E090E00E94DC
:101A20001803688D798D8A8D9B8DA50194010E9484
:101A3000D717AB01BC019701860182E090E00E94BC
:101A400018036CA17DA18EA19FA1A50194010E9404
:101A5000D717AB01BC019701860183E090E00E949B
:101A60001803DF91CF911F910F91FF90EF90DF90BE
:101A7000CF90BF90AF909F908F900C9405058F9260
:101A80009F92AF92BF92CF92DF92EF92FF920F930D
:101A90001F93CF93DF93C9EFD2E0C880D980EA804B
:101AA000FB80BC01990F880B990B0E9465194B01B3
:101AB0005C019B01AC01C701B6010E94D717AB01C5
:101AC000BC01C12CD12C8FE7E82E83E4F82E9701BE
:101AD000860180E090E00E9418036C857D858E85EC
:101AE0009F85A50194010E94D717AB01BC01970106
:101AF000860181E090E00E941803288D398D4A8D7F
:101B00005B8DC501B4010E94D817AB01BC019701E0
:101B1000860182E090E00E9418032CA13DA14EA115
:101B20005FA1C501B4010E94D817AB01BC019701A8
:101B3000860183E090E00E941803DF91CF911F910E
:101B40000F91FF90EF90DF90CF90BF90AF909F905C
:101B50008F900C9405052F923F924F925F926F9257
:101B60007F928F929F92AF92BF92CF92DF92EF922D
:101B7000FF920F931F93CF93DF9300D000D000D03C
:101B8000CDB7DEB71C0180E090E0A0E8BFE3809312
:101B9000950290939602A0939702B0939802609159
:101BA000210370912203809123039091240320E06C
:101BB00030E0A9010E94B618811195C08FE090E035
:101BC0000E943F0D8091110390911203A091130385
:101BD000B091140389839A83AB83BC8380901503EF
:101BE00090901603A0901703B0901803409019032B
:101BF00050901A0360901B0370901C0380910A019F
:101C000090910B01A0910C01B0910D018093950270
:101C100090939602A0939702B09398021E821D8221
:101C2000AD81BE81A215B30544F5C12CD12C98E439
:101C3000E92E92E4F92E00E010E020EA31E44FE6CC
:101C40005FE060E872E482E090E00E9418030E9486
:101C5000050508E11EEA23E632E445E150EC66E0C2
:101C600072E482E090E00E9418030E9405058D81D5
:101C70009E8101969E838D83D3CF7301620195016E
:101C8000840149815A816B817C8182E090E00E94CD
:101C900018030E94050580E090E0A0E8BFE3809370
:101CA000950290939602A0939702B09398028FE0CA
:101CB00090E026960FB6F894DEBF0FBECDBFDF9141
:101CC000CF911F910F91FF90EF90DF90CF90BF9039
:101CD000AF909F908F907F906F905F904F903F90CC
:101CE0002F900C94D30C8FE090E00E94D30C809145
:101CF000F9029091FA02A091FB02B091FC02898353
:101D00009A83AB83BC838090FD029090FE02A090EA
:101D1000FF02B090000340900103509002036090D6
:101D200003037090040380910A0190910B01A0912C
:101D30000C01B0910D018093950290939602A093AF
:101D40009702B09398021E821D82AD81BE81A215BA
:101D5000B30544F5C12CD12C88E4E82E82E4F82E9A
:101D600000E010E020EA31E44FE65FE060E872E472
:101D700080E090E00E9418030E94050508E11EEA39
:101D800023E632E445E150EC66E072E480E090E066
:101D90000E9418030E9405058D819E8101969E83F5
:101DA0008D83D3CF730162019501840149815A81EA
:101DB0006B817C8180E090E00E9418030E94050501
:101DC00080E090E0A0E8BFE38093950290939602B4
:101DD000A0939702B09398028FE090E026960FB6FA
:101DE000F894DEBF0FBECDBFDF91CF911F910F9151
:101DF000FF90EF90DF90CF90BF90AF909F908F902B
:101E00007F906F905F904F903F902F900C943F0D7C
:101E10002F923F924F925F926F927F928F929F92FA
:101E2000AF92BF92CF92DF92EF92FF920F931F93E8
:101E3000CF93DF9300D000D000D0CDB7DEB71C0128
:101E400080E090E0A0E8BFE3809395029093960233
:101E5000A0939702B093980260912103709122039E
:101E6000809123039091240320E030E0A9010E9497
:101E7000B61881119BC08FE090E00E943F0D8091C9
:101E8000110390911203A0911303B091140389835D
:101E90009A83AB83BC838090150390901603A09027
:101EA0001703B09018034090190350901A036090E4
:101EB0001B0370901C0380910A0190910B01A0916B
:101EC0000C01B0910D018093950290939602A0931E
:101ED0009702B09398021E821D82AD81BE81A21529
:101EE000B30574F5C12CD12C2CE5E22E22E4F22EA0
:101EF00000E010E020EA32E440E050E060E072E40C
:101F000082E090E00E9418030E940505C12CD12CAC
:101F100030E2E32E31E4F32E00E010E020EA32E478
:101F200040E050E060E072E482E090E00E9418033C
:101F30000E9405058D819E8101969E838D83CDCF64
:101F4000730162019501840149815A816B817C8111
:101F500082E090E00E9418030E94050580E090E076
:101F6000A0E8BFE38093950290939602A093970216
:101F7000B09398028FE090E026960FB6F894DEBFFB
:101F80000FBECDBFDF91CF911F910F91FF90EF90CA
:101F9000DF90CF90BF90AF909F908F907F906F9089
:101FA0005F904F903F902F900C94D30C8FE090E077
:101FB0000E94D30C8091F9029091FA02A091FB0249
:101FC000B091FC0289839A83AB83BC838090FD022D
:101FD0009090FE02A090FF02B09000034090010399
:101FE00050900203609003037090040380910A01F3
:101FF00090910B01A0910C01B0910D01809395027D
:1020000090939602A0939702B09398021E821D822D
:10201000AD81BE81A215B30574F5C12CD12C8CE520
:10202000E82E82E4F82E00E010E020EA32E440E0FE
:1020300050E060E072E480E090E00E9418030E94AB
:102040000505C12CD12C90E2E92E91E4F92E00E097
:1020500010E020EA32E440E050E060E072E480E02A
:1020600090E00E9418030E9405058D819E810196D3
:102070009E838D83CDCF73016201950184014981D7
:102080005A816B817C8180E090E00E9418030E945D
:10209000050580E090E0A0E8BFE38093950290936F
:1020A0009602A0939702B09398028FE090E0269654
:1020B0000FB6F894DEBF0FBECDBFDF91CF911F9159
:1020C0000F91FF90EF90DF90CF90BF90AF909F90D7
:1020D0008F907F906F905F904F903F902F900C94D7
:1020E0003F0D0F931F93CF93DF9362E271E08FE474
:1020F00093E00E94581D85E692E00E94BC020E9477
:1021000069208C0185E692E00E94BC020E94692051
:10211000EC010730110508F07FC0F801EC5CFF4FBF
:102120000C94831F6AE271E08FE493E00E94581DD3
:102130000E940303811102C00E944C05CE01DF9171
:10214000CF911F910F910C949F0967E371E08FE489
:1021500093E00E94581D0E940303811102C00E9457
:102160004C05CE01DF91CF911F910F910C94390B4B
:1021700061E471E08FE493E00E94581D0E94030324
:10218000811102C00E944C05CE01DF91CF911F91B9
:102190000F910C9483056BE471E08FE493E00E944F
:1021A000581D0E940303811102C00E944C05CE01FC
:1021B000DF91CF911F910F910C94910766E571E02B
:1021C0008FE493E00E94581DCD2B31F0DF91CF9129
:1021D0001F910F910C944C05DF91CF911F910F919E
:1021E0000C94150560E671E08FE493E00E94581DA1
:1021F000CE01DF91CF911F910F910C94080F6BE6E8
:1022000071E08FE493E00E94581DCE01DF91CF91E1
:102210001F910F910C94AB0D65E771E08FE493E093
:10222000DF91CF911F910F910C94581D2F923F92E7
:102230004F925F926F927F928F929F92AF92BF92D6
:10224000CF92DF92EF92FF920F931F93CF93DF9382
:10225000CDB7DEB76C970FB6F894DEBF0FBECDBF1B
:102260001C017E876D87588B4F8709831A832B83C8
:102270003C83CD82DE82EF82F88689869A86AB86A1
:10228000BC8669817A818B819C8120E030E0A90144
:102290000E945C1A87FD07C0C12CD12C90E8E92E62
:1022A0009FE3F92E06C0C12CD12C80E8E82E8FEBDD
:1022B000F82E69817A818B819C818D809E80AF8090
:1022C000B8849B01AC010E94691A2B013C01A50155
:1022D0009401C501B4010E94691A9B01AC01C301BC
:1022E000B2010E94D8170E94DC1A9B01AC01C70101
:1022F000B6010E94691A6B017C0120E030E04CEDD0
:1023000051E40E94D7172B013C0169857A858B85A2
:102310009C85A30192010E945718698B7A8B8B8B45
:102320009C8BA3019201C301B2010E94691A2B0187
:102330003C0189849A84AB84BC8469857A858B85C9
:102340009C859B01AC010E94691AA30192010E9425
:10235000D8170E94DC1A6D8B7E8B8F8B988F20E0B4
:1023600034E54AE355E4C301B2010E94D717698FEF
:102370007A8F8B8F9C8FA5019401C501B4010E94B7
:10238000691A9B01AC01698D7A8D8B8D9C8D0E94A1
:10239000D81720E030E040E05FE30E94691A20E0B7
:1023A00030E04CE552E40E94BB182D893E894F89EC
:1023B000588D0E94BB180E94C6179B01AC01698909
:1023C0007A898B899C890E94D817F1016083718377
:1023D0008283938389849A84AB84BC84A301920111
:1023E00060E07DE18DE096E40E94D7172B013C016F
:1023F000A5019401C501B4010E94691A9B01AC01B9
:10240000C301B2010E94D71720E030E040E05FE353
:102410000E94691A20E030E04CE552E40E94BB18AB
:1024200020E030E04BE952E40E94BB180E94C6173E
:10243000ED85FE85608371838283938320E030E0A5
:10244000A901C701B6010E945C1A87FD09C0298154
:102450003A814B815C816D817E818F8198850EC030
:1024600049815A816B817C818D819E81AF81B88544
:102470009A01AB015058BC01CD0190580E945718E9
:10248000EF85F8896083718382839383F101608192
:102490007181828193812AED3FE049E450E40E94FA
:1024A000BB1820E030E044E353E40E94691AF101D4
:1024B0006083718382839383ED85FE856081718162
:1024C000828193812AED3FE049E450E40E94BB18E9
:1024D00020E030E044E353E40E94691AED85FE8574
:1024E0006083718382839383EF85F8896081718132
:1024F000828193812AED3FE049E450E40E94BB18B9
:1025000020E030E044E353E40E94691AEF85F88943
:1025100060837183828393836C960FB6F894DEBFD9
:102520000FBECDBFDF91CF911F910F91FF90EF9024
:10253000DF90CF90BF90AF909F908F907F906F90E3
:102540005F904F903F902F9008954F925F926F92BF
:102550007F928F929F92AF92BF92CF92DF92EF9233
:10256000FF920F931F93CF93DF93EC014A015B011E
:1025700028013901009799F4A501940160E070E009
:1025800084EB92E40E94D7174B015C0120E030E01D
:1025900044EB52E4C701B6010E94D8171FC001974F
:1025A0000297F8F420E030E044EB52E4C501B401B6
:1025B0000E94D8174B015C01A301920160E070E01A
:1025C00084E393E40E94D7172B013C01A7019601F5
:1025D00060E070E084EB92E40E94D7176B017C010D
:1025E00003C0C330D10541F2C501B4010E942D19C9
:1025F00029E02C9F80012D9F100D1124C8018F5BB5
:102600009D4F0E946A17C301B2010E942D19C80193
:102610008C5B9D4F0E946A17C701B6010E942D195D
:10262000C801895B9D4FDF91CF911F910F91FF9062
:10263000EF90DF90CF90BF90AF909F908F907F9062
:102640006F905F904F900C946A172F923F924F9229
:102650005F926F927F928F929F92AF92BF92CF9232
:10266000DF92EF92FF920F931F93CF93DF9300D0EF
:1026700000D0CDB7DEB7789469E9662E62E0762E99
:102680001C821B827A82698200E010E02B803C80F1
:10269000220C331C2B813C81220E331E210171013F
:1026A000E00EF11E9701220F331F220F331FA901E5
:1026B00047505D4F6A01FA01608171818281938187
:1026C000A90147535D4F7A01FA012081318142818E
:1026D00053810E94D71720E030E0A9010E945C1AC4
:1026E000F601181674F46081718182819381F7017B
:1026F00020813181428153810E94D7176B017C0177
:1027000011C06081718182819381F70120813181C3
:10271000428153810E94D7176B017C01F7FAF09434
:10272000F7F8F094E981FA8181909190A190B190AD
:10273000FA83E98320E030E0A901C501B4010E94D9
:102740005C1AA501940118160CF05058C701B60187
:102750000E945C1A87FD1BC07201E00EF11EC701CA
:10276000880F991F880F991F9C0127503D4F7901B1
:10277000F9012081318142815381C501B4010E9458
:10278000D817F701608371838283938315C0C201D8
:10279000800F911F880F991F880F991FFC01E75325
:1027A000FD4F4081518162817381FC01E750FD4FF3
:1027B00040835183628373830F5F1F4F0330110582
:1027C00009F06DCF4CE02B813C81429FF001439F8B
:1027D000F00D1124E750FD4F80849184A284B384CE
:1027E000C480D580E680F780008111812281338109
:1027F00041E352E065E372E089E392E00E94161142
:10280000C0903102D0903202E0903302F090340256
:102810000091350210913602209137023091380232
:102820004091390250913A0260913B0270913C0212
:102830008B819C810E94A5128B819C8101969C8337
:102840008B839CE0690E711CEB81FC81349709F04D
:1028500019CF8091930290919402019690939402E3
:10286000809393020F900F900F900F90DF91CF9174
:102870001F910F91FF90EF90DF90CF90BF90AF909E
:102880009F908F907F906F905F904F903F902F9090
:102890000895CF92DF92EF92FF920F931F9326E05D
:1028A00040E052EC61E070E08FE493E00E94111C84
:1028B0006BE771E08FE493E00E94581D60E08EE0CA
:1028C0000E94791E41E750E167E971E085E692E0F8
:1028D0000E94D30166EC72E085E692E00E940A0253
:1028E000C12CD12CA0EEEA2EA1ECFA2E00E010E0D3
:1028F00020E232E440E050E068E772E480E090E0FB
:102900000E94180300E010E020E232E440E050E0D2
:1029100068E772E481E090E00E94180300E010E0B4
:10292000980140E050E068E772E482E090E00E94A5
:10293000180300E010E0980140E050E068E772E41E
:1029400083E090E00E94180320E030E040E050E097
:10295000B901660F771F620F731FCB01840F951F9C
:10296000880F991F880F991FFC01E753FD4FC08006
:10297000D180E280F380FC01E750FD4FC082D1821C
:10298000E282F3824F5F5F4F4330510531F72F5F93
:102990003F4F24303105D1F645E253E164E170E068
:1029A00080E090E00E9423010E942F0169E971E01C
:1029B0008FE493E00E94581D0E94CC026FEA71E000
:1029C0008FE493E00E94581D62EC71E08FE493E085
:1029D0001F910F91FF90EF90DF90CF900C94581DB6
:1029E0004F925F926F927F928F929F92AF92BF921F
:1029F000CF92DF92EF92FF9285E692E00E940E0264
:102A00000E940303882309F49DC060911201709114
:102A1000130180911401909115010E942D192B0131
:102A20003C0160910E0170910F0180911001909115
:102A300011010E942D194B015C0160910A017091F6
:102A40000B0180910C0190910D010E942D196B01D9
:102A50007C0180E090E0A0EAB1E480930A019093C9
:102A60000B01A0930C01B0930D0180930E01909384
:102A70000F01A0931001B093110180931201909364
:102A80001301A0931401B093150180913F0290911E
:102A90004002039774F481E090E00E94390B80912A
:102AA0003F029091400201969093400280933F0232
:102AB0001FC080913D0290913E02892B29F081E058
:102AC00090E00E94910704C081E090E00E9483059D
:102AD00020913D0230913E0281E090E0821B930BF9
:102AE00090933E0280933D021092400210923F026A
:102AF000B201550C880B990B0E9465196093120165
:102B0000709313018093140190931501B401990CF3
:102B1000880B990B0E94651960930E0170930F0149
:102B20008093100190931101B601DD0C880B990B75
:102B30000E94651960930A0170930B0180930C0148
:102B400090930D01FF90EF90DF90CF90BF90AF90EA
:102B50009F908F907F906F905F904F9008950F930C
:102B60001F93CF93DF936FE473E085E692E00E94BA
:102B7000BA01C1E4D2E005E612E0CE010E9492164D
:102B8000CE0103960E949216CE0106960E949216DE
:102B900029960C171D0789F7DF91CF911F910F918F
:102BA00008951F920F920FB60F9211242F933F9307
:102BB0004F935F936F937F938F939F93AF93BF9345
:102BC000EF93FF9380912A0387FF05C01092850041
:102BD000109284001BC020912A03022E000C330B9C
:102BE0008091290390E02817390784F480912A0303
:102BF000082E000C990BFC01EE0FFF1F8E0F9F1F7C
:102C0000FC01E55DFC4F808186FD15C080912A03A3
:102C10008F5F80932A0320912A03022E000C330B2E
:102C20008091290390E028173907C4F480912A0382
:102C30008C3064F113C080912A03082E000C990B8C
:102C4000FC01EE0FFF1F8E0F9F1FFC01E55DFC4F87
:102C5000808160E08F730E94B51ED8CF8091840080
:102C600090918500049680349C4918F480E49CE996
:102C700005C080918400909185000496909389000E
:102C8000809388008FEF80932A033BC020918400BB
:102C90003091850080912A03082E000C990BFC01CD
:102CA000EE0FFF1F8E0F9F1FFC01E55DFC4F818122
:102CB0009281820F931F9093890080938800809166
:102CC0002A03082E000C990BFC01EE0FFF1F8E0F3C
:102CD0009F1FFC01E55DFC4F808186FF12C0809143
:102CE0002A03082E000C990BFC01EE0FFF1F8E0F1C
:102CF0009F1FFC01E55DFC4F808161E08F730E94A6
:102D0000B51EFF91EF91BF91AF919F918F917F91F0
:102D10006F915F914F913F912F910F900FBE0F9048
:102D20001F901895FC01909129039C30A0F481E03C
:102D3000890F809329039083892F90E0FC01EE0F87
:102D4000FF1F8E0F9F1FFC01E55DFC4F88EB9BE092
:102D50009283818308958FEF80830895DF92EF92AD
:102D6000FF920F931F93CF93DF93EC01D62E7A013E
:102D7000890188818C3008F068C061E08D2D0E9447
:102D8000791E8881E82FF0E09F01220F331FE20FA8
:102D9000F31FE55DFC4F9D2D9F732081207CD22E7B
:102DA000D92AD08220E232E02E193F0937FF02C033
:102DB0002D5F3F4F3595279535952795298320E63B
:102DC00039E0201B310B37FF02C02D5F3F4F359597
:102DD0002795359527952A832CE0622F0E94361F70
:102DE000289FB001112440E050E09B01240F351FC3
:102DF000F901EE0FFF1F2E0F3F1FF901E55DFC4F9C
:102E0000908196FD16C04F5F5F4F4C30510569F7BA
:102E100081110FC01092800082E080938100109297
:102E2000850010928400B19A80916F008260809337
:102E30006F00E881F0E0CF01880F991FE80FF91FBC
:102E4000E55DFC4F8081806480838881DF91CF9134
:102E50001F910F91FF90EF90DF90089520E639E0E9
:102E600040E252E00C94AE16FC0190819C3088F553
:102E7000818128E830E0281B310987FD3395220F36
:102E8000331F220F331F6217730784F0828148E5D6
:102E900052E0481B510987FD5395440F551F440FBD
:102EA000551F9B01461757070CF49A012250310910
:102EB000220F331F4FB7F894892F90E0FC01EE0FDB
:102EC000FF1F8E0F9F1FFC01E55DFC4F32832183A6
:102ED0004FBF0895AF92BF92CF92DF92EF92FF92D1
:102EE0000F931F93CF93DF93EC01603282E078075A
:102EF0000CF03FC077FD06C0653B71052CF064EB1C
:102F000070E002C060E070E0898128E830E059019B
:102F1000A81AB10887FDB394AA0CBB1CAA0CBB1C51
:102F20000B2C000CCC08DD08072E000C880B990B2D
:102F30002A8108E512E0021B110927FD1395000FF5
:102F4000111F000F111F012E000C220B330B3F939A
:102F50002F931F930F9314EBE12EF12C00E010E060
:102F600020E030E0A9010E94E41E0F900F900F9026
:102F70000F90CE01DF91CF911F910F91FF90EF90B5
:102F8000DF90CF90BF90AF900C9434179F939F77B2
:102F90000E94A0190F90002042F49058A2EA2AED56
:102FA0003FE049E450E40E94EF170C94221A505875
:102FB000BB27AA270E94EF170C94221A0E94141A0A
:102FC00038F00E941B1A20F039F49F3F19F426F4C0
:102FD0000C94EA190EF4E095E7FB0C94E419E92F40
:102FE0000E94331A58F3BA176207730784079507CC
:102FF00020F079F4A6F50C94551A0EF4E0950B2EFA
:10300000BA2FA02D0B01B90190010C01CA01A0013A
:103010001124FF27591B99F0593F50F4503E68F195
:103020001A16F040A22F232F342F4427585FF3CFD6
:10303000469537952795A795F0405395C9F77EF4A7
:103040001F16BA0B620B730B840BBAF09150A1F0F0
:10305000FF0FBB1F661F771F881FC2F70EC0BA0F76
:10306000621F731F841F48F4879577956795B795FE
:10307000F7959E3F08F0B0CF9395880F08F09927F9
:10308000EE0F9795879508950E94141A60F080E8D6
:1030900091E009F49EEF0E941B1A28F040E851E0ED
:1030A00071F45EEF0CC00C94EA190C94551AE92FD8
:1030B000E0780E94331A40F3092E052AB1F326174F
:1030C00037074807590738F00E2E07F8E02569F052
:1030D000E025E0640AC0EF6307F8009407FADB011B
:1030E000B9019D01DC01CA01AD01EF930E94D21824
:1030F0000E94221A0E9487185F91552339F02BED08
:103100003FE049E450FD49EC0C94D8170895DF9353
:10311000DD27B92FBF7740E85FE31616170648078B
:103120005B0718F4D92F0E94611A9F938F937F93A6
:103130006F930E941C1BE6E7F0E00E94ED190E94CD
:10314000221A2F913F914F915F910E947C1ADD23AB
:1031500051F09058A2EA2AED3FE049EC5FE3D078C5
:103160005D270E94EF17DF910C94221A0E94C0196C
:1031700008F481E008950E94CF180C94221A0E944E
:103180001B1A58F00E94141A40F029F45F3F29F0EE
:103190000C94E41951110C94561A0C94EA190E94DB
:1031A000331A68F39923B1F3552391F3951B550B0B
:1031B000BB27AA2762177307840738F09F5F5F4F0A
:1031C000220F331F441FAA1FA9F335D00E2E3AF049
:1031D000E0E832D091505040E695001CCAF72BD061
:1031E000FE2F29D0660F771F881FBB1F26173707B2
:1031F0004807AB07B0E809F0BB0B802DBF01FF27E4
:1032000093585F4F3AF09E3F510578F00C94E419C3
:103210000C94561A5F3FE4F3983ED4F38695779565
:103220006795B795F7959F5FC9F7880F911D96959C
:10323000879597F90895E1E0660F771F881FBB1FF8
:10324000621773078407BA0720F0621B730B840BA5
:10325000BA0BEE1F88F7E09508950E943419689420
:10326000B1110C94561A08950E943B1A88F09F578A
:1032700098F0B92F9927B751B0F0E1F0660F771F9A
:10328000881F991F1AF0BA95C9F714C0B13091F090
:103290000E94551AB1E008950C94551A672F782FA3
:1032A0008827B85F39F0B93FCCF386957795679555
:1032B000B395D9F73EF490958095709561957F4FC1
:1032C0008F4F9F4F0895E89409C097FB3EF4909567
:1032D0008095709561957F4F8F4F9F4F9923A9F0EF
:1032E000F92F96E9BB279395F6958795779567957E
:1032F000B795F111F8CFFAF4BB0F11F460FF1BC0C2
:103300006F5F7F4F8F4F9F4F16C0882311F096E954
:1033100011C0772321F09EE8872F762F05C0662302
:1033200071F096E8862F70E060E02AF09A95660FBB
:10333000771F881FDAF7880F9695879597F9089574
:10334000DF93CF931F930F938B01EC01E3EAF0E03F
:103350000E94ED190E94221A9801AE018B01EC0126
:1033600060E070E080E89FE30E94D7170E94DC1ABB
:103370009801AE010F911F91CF91DF910C947C1AAF
:10338000990F0008550FAA0BE0E8FEEF1616170676
:10339000E807F907C0F012161306E407F50798F0DE
:1033A000621B730B840B950B39F40A2661F0232BF7
:1033B000242B252B21F408950A2609F4A140A69573
:1033C0008FEF811D811D089597F99F6780E870E058
:1033D00060E008959FEF80EC0895DF93CF931F93F3
:1033E0000F93FF92EF92DF927B018C01689406C0ED
:1033F000DA2EEF010E947C1AFE01E894A591259136
:10340000359145915591A6F3EF010E94EF17FE010A
:103410009701A801DA9469F7DF90EF90FF900F9180
:103420001F91CF91DF91089500240A941616170674
:1034300018060906089500240A94121613061406A5
:1034400005060895092E0394000C11F4882352F008
:10345000BB0F40F4BF2B11F460FF04C06F5F7F4FC0
:103460008F4F9F4F089557FD9058440F551F59F0A7
:103470005F3F71F04795880F97FB991F61F09F3F61
:1034800079F087950895121613061406551FF2CF8A
:103490004695F1DF08C0161617061806991FF1CFDA
:1034A00086957105610508940895E894BB27662701
:1034B0007727CB0197F908950E94C01908F48FEF80
:1034C00008959B01AC0160E070E080E89FE30C94FC
:1034D000BB180E947C1A0C94221A0E94141A38F00D
:1034E0000E941B1A20F0952311F00C94E4190C94FF
:1034F000EA1911240C94561A0E94331A70F3959FFE
:10350000C1F3950F50E0551F629FF001729FBB27DA
:10351000F00DB11D639FAA27F00DB11DAA1F649F76
:103520006627B00DA11D661F829F2227B00DA11D29
:10353000621F739FB00DA11D621F839FA00D611DAF
:10354000221F749F3327A00D611D231F849F600DD0
:10355000211D822F762F6A2F11249F5750409AF0F9
:10356000F1F088234AF0EE0FFF1FBB1F661F771F85
:10357000881F91505040A9F79E3F510580F00C9450
:10358000E4190C94561A5F3FE4F3983ED4F3869501
:1035900077956795B795F795E7959F5FC1F7FE2BF0
:1035A000880F911D9695879597F9089519F416F44B
:1035B0000C94EA190C94201B0E943B1AB8F399232F
:1035C000C9F3B6F39F57550B87FF0E942E1B0024AB
:1035D000A0E640EA900180585695979528F4805CC3
:1035E000660F771F881F20F026173707480730F42B
:1035F000621B730B840B202931294A2BA695179443
:103600000794202531254A2758F7660F771F881F12
:1036100020F026173707480730F4620B730B840B32
:10362000200D311D411DA09581F7B901842F9158BE
:10363000880F9695879508959B01AC010C94691AA3
:103640009F3F31F0915020F4879577956795B79516
:10365000880F911D9695879597F908959150504040
:10366000660F771F881FD2F70895FC01918D228D78
:10367000892F90E0805C9F4F821B91098F7399275F
:103680000895FC01918D828D981731F0828DE80F9D
:10369000F11D858D90E008958FEF9FEF0895FC0157
:1036A000918D828D981761F0828DDF01A80FB11D79
:1036B0005D968C91928D9F5F9F73928F90E008959D
:1036C0008FEF9FEF0895FC01538D448D252F30E03F
:1036D000842F90E0821B930B541710F0CF9608951F
:1036E000019708958EEC9CE1892B49F080E090E0F1
:1036F000892B29F00E94CE1C81110C9400000895A2
:10370000FC01848DDF01A80FB11DA35ABF4F2C917E
:10371000848D90E001968F739927848FA689B7894D
:103720002C93A089B1898C91837080648C93938D44
:10373000848D981306C00288F389E02D80818F7DE7
:1037400080830895EF92FF920F931F93CF93DF939F
:10375000EC0181E0888F9B8D8C8D981305C0E889E2
:10376000F989808185FD26C0F62E0B8D10E00F5F54
:103770001F4F0F731127E02E8C8DE8120CC00FB66F
:1037800007FCFACFE889F989808185FFF5CFCE0162
:103790000E94801BF1CF8B8DFE01E80FF11DE35AD3
:1037A000FF4FF0829FB7F8940B8FEA89FB898081E5
:1037B00080620AC09FB7F894EE89FF896083E88928
:1037C000F98980818370806480839FBF81E090E06D
:1037D000DF91CF911F910F91FF90EF900895CF93BC
:1037E000DF93EC01888D8823C9F0EA89FB89808109
:1037F00085FD05C0A889B9898C9186FD0FC00FB6DB
:1038000007FCF5CF808185FFF2CFA889B9898C911B
:1038100085FFEDCFCE010E94801BE7CFDF91CF91D6
:103820000895CF92DF92EF92FF921F93CF93DF9391
:10383000EC016A017B01122FE889F98982E080831B
:103840004115514E61057105B1F060E079E08DE3FD
:1038500090E0A70196010E94421FDA01C901019779
:10386000A109B109B695A795979587959C01211552
:1038700080E13807A8F0E889F989108260E874E8E7
:103880008EE190E0A70196010E94421FDA01C90172
:103890000197A109B109B695A795979587959C01C0
:1038A000EC85FD853083EE85FF852083188EEC89BD
:1038B000FD891083EA89FB89808180618083EA89A0
:1038C000FB89808188608083EA89FB8980818068A8
:1038D0008083EA89FB8980818F7D8083DF91CF910E
:1038E0001F91FF90EF90DF90CF9008951F920F925D
:1038F0000FB60F9211242F938F939F93EF93FF9303
:10390000E0915F03F09160038081E0916503F091A5
:10391000660382FD12C09081809168038F5F8F7370
:1039200020916903821751F0E0916803F0E0E15BB8
:10393000FC4F958F8093680301C08081FF91EF91C8
:103940009F918F912F910F900FBE0F901F90189500
:103950001F920F920FB60F9211242F933F934F9304
:103960005F936F937F938F939F93AF93BF93EF93E7
:10397000FF938FE493E00E94801BFF91EF91BF9132
:10398000AF919F918F917F916F915F914F913F91F7
:103990002F910F900FBE0F901F9018958FE493E01A
:1039A0000E94351B21E0892B09F420E0822F089525
:1039B000EFE4F3E01382128288EE93E0A0E0B0E03F
:1039C00084839583A683B78386E092E09183808386
:1039D00085EC90E09587848784EC90E097878687D4
:1039E00080EC90E0918B808B81EC90E0938B828BCC
:1039F00082EC90E0958B848B86EC90E0978B868BA5
:103A0000118E128E138E148E089508950E94151E25
:103A10000E94051D0E944914C2E7DBE10E94F014D8
:103A20002097E1F30E94721BF9CFCF92DF92EF92C1
:103A3000FF920F931F93CF93DF936C017A018B0159
:103A4000C0E0D0E0CE15DF0581F0D8016D918D0189
:103A5000D601ED91FC910190F081E02DC601099510
:103A6000892B11F02196EECF7E01C701DF91CF9116
:103A70001F910F91FF90EF90DF90CF900895611507
:103A8000710579F0FB0101900020E9F73197AF0152
:103A9000461B570BDC01ED91FC910280F381E02D78
:103AA000099480E090E0089564E172E00C943F1D79
:103AB0000F931F93CF93DF93EC010E943F1D8C0166
:103AC000CE010E94541D800F911FDF91CF911F9155
:103AD0000F9108951F920F920FB60F9211242F93FA
:103AE0003F938F939F93AF93BF938091ED039091FA
:103AF000EE03A091EF03B091F0033091EC0323E0CB
:103B0000230F2D3720F40196A11DB11D05C026E815
:103B1000230F0296A11DB11D2093EC038093ED03AA
:103B20009093EE03A093EF03B093F0038091F10321
:103B30009091F203A091F303B091F4030196A11DBB
:103B4000B11D8093F1039093F203A093F303B0931C
:103B5000F403BF91AF919F918F913F912F910F905F
:103B60000FBE0F901F9018953FB7F8948091F10306
:103B70009091F203A091F303B091F40326B5A89BB2
:103B800005C02F3F19F00196A11DB11D3FBFBA2FEF
:103B9000A92F982F8827820F911DA11DB11DBC014F
:103BA000CD0142E0660F771F881F991F4A95D1F714
:103BB00008958F929F92AF92BF92CF92DF92EF9231
:103BC000FF926B017C010E94B41D4B015C01C1148A
:103BD000D104E104F10401F10E94251F0E94B41DEB
:103BE000DC01CB0188199909AA09BB09883E9340D9
:103BF000A105B10560F321E0C21AD108E108F1087E
:103C000088EE880E83E0981EA11CB11CC114D1045B
:103C1000E104F10419F7DBCFFF90EF90DF90CF9034
:103C2000BF90AF909F908F900895789484B58260F4
:103C300084BD84B5816084BD85B5826085BD85B550
:103C4000816085BDEEE6F0E0808181608083E1E8FF
:103C5000F0E0108280818260808380818160808337
:103C6000E0E8F0E0808181608083E1EBF0E080813A
:103C700084608083E0EBF0E0808181608083EAE70C
:103C8000F0E0808184608083808182608083808195
:103C9000816080838081806880831092C100089554
:103CA000833081F028F4813099F08230A1F00895BA
:103CB0008730A9F08830B9F08430D1F48091800049
:103CC0008F7D03C0809180008F778093800008955E
:103CD00084B58F7702C084B58F7D84BD08958091AF
:103CE000B0008F7703C08091B0008F7D8093B000CB
:103CF0000895CF93DF9390E0FC01E052FF4F2491B1
:103D0000FC01EC50FF4F8491882361F190E0880F13
:103D1000991FFC01EE5EFE4FC591D491FC01E85F56
:103D2000FE4FA591B491611109C09FB7F8948881A5
:103D3000209582238883EC912E230BC0623061F49E
:103D40009FB7F8948881322F309583238883EC9134
:103D50002E2B2C939FBF06C08FB7F894E8812E2B93
:103D600028838FBFDF91CF9108951F93CF93DF9367
:103D7000282F30E0F901E453FF4F8491F901E0521C
:103D8000FF4FD491F901EC50FF4FC491CC23C1F007
:103D9000162F81110E94501EEC2FF0E0EE0FFF1F36
:103DA000E85FFE4FA591B4919FB7F894111104C03C
:103DB0008C91D095D82302C0EC91DE2BDC939FBF71
:103DC000DF91CF911F9108954F925F926F927F92F2
:103DD000AF92BF92CF92DF92EF92FF920F931F9319
:103DE000CF93DF93CDB7DEB729013A019B01AC0138
:103DF000241935094609570989899A89AB89BC89EB
:103E0000BC01CD016A197B098C099D090E94261FFE
:103E1000A801970124193509460957090E94641F12
:103E2000CA01B9016A0D7B1D8C1D9D1DDF91CF91CB
:103E30001F910F91FF90EF90DF90CF90BF90AF90C8
:103E40007F906F905F904F9008950895DB018F935E
:103E50009F930E94891FBF91AF91A29F800D911DDA
:103E6000A39F900DB29F900D11240895991B79E0A6
:103E700004C0991F961708F0961B881F7A95C9F7FA
:103E800080950895A1E21A2EAA1BBB1BFD010DC04F
:103E9000AA1FBB1FEE1FFF1FA217B307E407F507FA
:103EA00020F0A21BB30BE40BF50B661F771F881FD6
:103EB000991F1A9469F760957095809590959B016C
:103EC000AC01BD01CF010895052E97FB1EF40094AF
:103ED0000E947B1F57FD07D00E94421F07FC03D0A2
:103EE0004EF40C947B1F50954095309521953F4F93
:103EF0004F4F5F4F089590958095709561957F4FD6
:103F00008F4F9F4F0895EE0FFF1F0590F491E02D06
:103F100009940E94941FA59F900DB49F900DA49F9B
:103F2000800D911D11240895A29FB001B39FC0017F
:103F3000A39F700D811D1124911DB29F700D811DD5
:103F40001124911D0895A0E0B0E0E9EAFFE10C948E
:103F50001422EC01009721F4CB010E94EC20B4C0A4
:103F6000FC01E60FF71F9C0122503109E217F3070D
:103F700008F4A8C0D9010D911C91119706171707D5
:103F8000B0F00530110508F49BC0C80104978617EE
:103F9000970708F495C002501109061B170B0193EF
:103FA00011936D937C93CF010E94842189C05B01A2
:103FB000A01AB10A4C01800E911EA091F703B09196
:103FC000F803612C712CE12CF12C109709F446C0F8
:103FD0008D919C911197A815B905B1F56C0142E03E
:103FE000C40ED11CCA14DB0478F14C018A189B085A
:103FF000640142E0C40ED11C1296BC901297139635
:10400000AC91B5E0CB16D10440F0B282A38391828B
:104010008082D9016D937C9309C00E5F1F4F800F82
:10402000911FF90191838083EB2DFA2FE114F104A4
:1040300031F0D7011396FC93EE93129741C0F093A1
:10404000F803E093F7033CC06816790608F43C01D6
:104050007D0112960D90BC91A02DB7CF8091F503F4
:104060009091F60388169906E1F466167706C8F46F
:104070008091000190910101009741F48DB79EB7A6
:104080004091040150910501841B950BE817F90735
:10409000C8F4F093F603E093F503F90171836083AC
:1040A0000FC0CB010E94EC207C01009759F0A801C1
:1040B000BE010E949020CE010E948421C70104C04D
:1040C000CE0102C080E090E0CDB7DEB7EEE00C9408
:1040D0003022FC0188279927E89421912032E9F3C6
:1040E000293010F02E30C8F32B3241F02D3239F444
:1040F000689404C00E94E420820F911D21912053F6
:104100002A30C0F31EF4909581959F4F0895803218
:1041100009F091110C940D2280528F55D8F7089513
:10412000FB01DC0102C001900D9241505040D8F7D4
:104130000895FB01DC0101900D920020E1F7089544
:10414000FB01DC014150504030F08D91019080190D
:1041500019F40020B9F7881B990B0895FB01DC01C5
:104160004150504048F001900D920020C9F701C025
:104170001D9241505040E0F70895FA01A191B0819D
:10418000009719F41097E1F0CD01DC01CD010D90FD
:10419000002011F4C00113C0FB012191222319F06A
:1041A0002015D9F7F3CFFB012191201519F41E92A8
:1041B000119606C02223C1F70D900020A1F7D0016F
:1041C000FA01A193B08308957AE0979F902D879F7D
:1041D000802D910D112408950F931F93CF93DF939A
:1041E0008230910510F482E090E0E091F703F091C5
:1041F000F80320E030E0A0E0B0E0309719F1408112
:1042000051810281138148175907C8F08417950717
:1042100069F4109731F012960C93129713961C9331
:1042200027C00093F7031093F80322C0211531052E
:1042300019F04217530718F49A01BD01EF01DF018D
:10424000F801DBCF21153105F9F0281B390B24309B
:10425000310580F48A819B816115710521F0FB0194
:104260009383828304C09093F8038093F703FE0145
:10427000329644C0FE01E20FF31F819391932250C6
:104280003109398328833AC02091F5033091F60330
:10429000232B41F420910201309103013093F60366
:1042A0002093F50320910001309101012115310582
:1042B00041F42DB73EB74091040150910501241BF4
:1042C000350BE091F503F091F603E217F307A0F444
:1042D0002E1B3F0B2817390778F0AC014E5F5F4F5C
:1042E0002417350748F04E0F5F1F5093F603409395
:1042F000F5038193919302C0E0E0F0E0CF01DF91FC
:10430000CF911F910F910895CF93DF93009709F4F8
:1043100081C0FC01329713821282A091F703B09101
:10432000F803109781F420813181820F931F20912F
:10433000F5033091F6032817390751F5F093F6038A
:10434000E093F50367C0ED0120E030E0CE17DF0712
:1043500040F44A815B819E0141155105F1F0EA016B
:10436000F5CFD383C28340815181840F951FC81735
:10437000D90759F488819981840F951F02969183FA
:1043800080838A819B81938382832115310529F45F
:10439000F093F803E093F7033DC0E901FB83EA8360
:1043A00049915991C40FD51FEC17FD0761F4808125
:1043B0009181840F951F0296E901998388838281F8
:1043C00093819B838A83E0E0F0E012968D919C912B
:1043D0001397009719F0FD01DC01F7CF8D919C91A7
:1043E00011979D012E5F3F4F820F931F2091F50380
:1043F0003091F6032817390769F4309729F41092A1
:10440000F8031092F70302C013821282B093F603EE
:10441000A093F503DF91CF910895992788270895F8
:104420002F923F924F925F926F927F928F929F92C4
:10443000AF92BF92CF92DF92EF92FF920F931F93B2
:10444000CF93DF93CDB7DEB7CA1BDB0B0FB6F89463
:10445000DEBF0FBECDBF09942A88398848885F84A3
:104460006E847D848C849B84AA84B984C884DF8014
:10447000EE80FD800C811B81AA81B981CE0FD11DF8
:104480000FB6F894DEBF0FBECDBFED010895F894CE
:02449000FFCF5C
:104492000000F90320000000803F000040400000BF
:1044A2000041000080400000803F20005768617496
:1044B2003F00416374696F6E3A0053746570206601
:1044C2006F72776172640053746570206261636B0E
:1044D200005475726E206C656674005475726E209D
:1044E200726967687400313A75702C303A646E00F4
:1044F20048616E64207368616B650048616E642078
:1045020077617665004572726F7200526F626F74E6
:104512002073746172747320696E697469616C6965
:104522007A6174696F6E007700536572766F2073DB
:104532006572766963652073746172746564005391
:104542006572766F7320696E697469616C697A65E8
:104552006400526F626F7420696E697469616C697C
:104562007A6174696F6E20436F6D706C657465005B
:104572005374616E64005369740002000300040006
:10458200050006000700080009000A000B000C00E5
:104592000D0000000000A21B151D631BEF1B351B45
:1045A2004F1B411B0D0A006E616E00696E66006F43
:0445B2007666000029
:00000001FF
