:100000000C946A000C9492000C9492000C94920050
:100010000C9492000C9492000C9492000C94920018
:100020000C9492000C94DF000C9492000C94EE114E
:100030000C9492000C9492000C9492000C949200F8
:100040000C941A180C9492000C9426170C945817C0
:100050000C9492000C9492000C9492000C949200D8
:100060000C9492000C9492002510E10FF20F0310F3
:1000700014103710421000000008000201000003B5
:100080000407000000000000000001020408102026
:10009000408001020408102001020408102004041A
:1000A0000404040404040202020202020303030320
:1000B00003030000000023002600290000000000C8
:1000C000250028002B0000000000240027002A0043
:1000D000CA11881711241FBECFEFD8E0DEBFCDBFF5
:1000E00012E0A0E0B1E0E0E3F9E302C005900D9278
:1000F000A232B107D9F723E0A2E2B2E001C01D921B
:10010000A93EB207E1F710E0CAE6D0E004C02197AB
:10011000FE010E94EC19C836D107C9F70E94B61734
:100120000C94961C0C94000080912502909126025C
:10013000A0912702B09128020196A11DB11D8093C4
:10014000250290932602A0932702B0932802809163
:10015000250290912602A0912702B0912802409199
:100160002B0250912C0260912D0270912E02841767
:100170009507A607B70710F18091240281111EC0D0
:1001800081E0809324028091250290912602A09123
:100190002702B0912802841B950BA60BB70B809306
:1001A000250290932602A0932702B0932802E091A3
:1001B0002902F0912A0209951092240208951F92B3
:1001C0000F920FB60F9211242F933F934F935F938B
:1001D0006F937F938F939F93AF93BF93EF93FF930F
:1001E00080912202909123028093B2000E94940099
:1001F000FF91EF91BF91AF919F918F917F916F91FF
:100200005F914F913F912F910F900FBE0F901F90D4
:100210001895CF93DF93EC011B821A821C821E82F9
:100220001D828DE089871DA61CA67983688368E1FD
:1002300071E0CE0107960E94E81A1A861BA6DF918C
:10024000CF910895EF92FF920F931F93CF93DF9377
:10025000EC017B018A018C8190E001962BE0289FC4
:10026000B001299F700D11248A819B810E94F2198F
:100270009B838A832C8148E050E0B7013BE0239FB9
:10028000800D911D11240E94FD1A8C81EA81FB8151
:100290009BE0899FE00DF11D1124128701878C815D
:1002A0008F5F8C83DF91CF911F910F91FF90EF9023
:1002B0000895FC017683658308952F923F924F92B3
:1002C0005F926F927F928F929F92AF92BF92CF92E6
:1002D000DF92EF92FF920F931F93CF93DF9300D0A3
:1002E0001F92CDB7DEB78C018C969B838A83180151
:1002F00097E0290E311C2801AAE04A0E511CF80192
:1003000080819181DC01ED91FC910084F185E02DEB
:100310000995181619060CF068C0F80180819181C2
:10032000DC01ED91FC910284F385E02D0995898330
:100330008981F801918598133CC04A815B81B101A4
:10034000C2010E940C1B6C01892B79F1D801149613
:100350006C90712C812C912CA12CB12CA614B7047B
:10036000DCF4F801E280F380E80CF91C48E050E08E
:10037000B701C6010E94EF1AFBE08F0E911C892B7A
:1003800039F4D7011996ED91FC911A9709950DC092
:10039000BFEFAB1ABB0AE2CFD8011596ED91FC91E5
:1003A0001697309711F0C6010995F801128613A629
:1003B000A6CF898190E00E94D81A892B09F49FCF9B
:1003C000D8019B968C919B97803208F098CF91E052
:1003D000980F9B969C932981F801E80FF11D2287C5
:1003E000F801E90FF11D12868ACF0F900F900F9040
:1003F000DF91CF911F910F91FF90EF90DF90CF9001
:10040000BF90AF909F908F907F906F905F904F9034
:100410003F902F900895AC01445D5F4FBC01695F30
:100420007F4F80E090E00C940C1B6AE171E08091BA
:100430001601909117010C940818CF92DF92EF9259
:10044000FF920F931F93CF93DF9388EEE82E81E006
:10045000F82EC0E0D0E0670100E010E0F601619105
:1004600071916F01CE01800F911F89539D4F0E94A2
:100470004B1364E670E080E090E00E9489180D5F05
:100480001F4F0930110551F7F6E0EF0EF11C2996C8
:10049000C432D10501F7DF91CF911F910F91FF90E9
:1004A000EF90DF90CF900895CF9360919F0270916D
:1004B000A0028091A1029091A202C1E020E030E070
:1004C00048E452EC0E94BE138111C0E08C2FCF9102
:1004D00008952F923F924F925F926F927F928F92E8
:1004E0009F92AF92BF92CF92DF92EF92FF920F93C3
:1004F0001F93CF93DF93CDB7DEB76A970FB6F8940B
:10050000DEBF0FBECDBF1C0149875A876B877C8732
:100510000D871E872F87388B20E030E04FE753E4AC
:1005200069857A858B859C850E94BE138823A9F0F6
:100530008CE0829DF001839DF00D1124E956FD4F62
:10054000208131814281538169857A858B859C85A3
:100550000E9451134B015C0103C0812C912C54016A
:1005600020E030E04FE753E46D857E858F859889E4
:100570000E94BE138823B9F08CE0829DF001839D18
:10058000F00D1124E956FD4F2481358146815781B4
:100590006D857E858F8598890E94511369837A8342
:1005A0008B839C8304C019821A821B821C8220E0E8
:1005B00030E04FE753E4C701B6010E94BE13882321
:1005C000A9F08CE0829DF001839DF00D1124E95685
:1005D000FD4F2085318542855385C701B6010E94B4
:1005E00051136D837E838F83988704C01D821E8282
:1005F0001F821886A5019401C501B4010E941D1532
:100600002B013C0129813A814B815C81CA01B901EE
:100610000E941D159B01AC01C301B2010E9452133F
:100620002B013C012D813E814F815885CA01B901C2
:100630000E941D159B01AC01C301B2010E9452131F
:100640000E9490152B013C0180913302909134025D
:10065000A0913502B0913602898B9A8BAB8BBC8B03
:100660008091120190911301A0911401B091150194
:100670008D8B9E8BAF8BB88F8CE0829D8001839D8C
:10068000100D1124D801A95CBD4FBA8FA98FA30109
:100690009201C501B4010E94C31329893A894B898B
:1006A0005C890E941D152D893E894F89588D0E94B5
:1006B0001D15E98DFA8D6083718382839383A30175
:1006C000920169817A818B819C810E94C31329895F
:1006D0003A894B895C890E941D152D893E894F8975
:1006E000588D0E941D15A98DBA8D14966D937D931A
:1006F0008D939C931797A30192016D817E818F81C9
:1007000098850E94C31329893A894B895C890E9484
:100710001D152D893E894F89588D0E941D15E98D23
:10072000FA8D608771878287938720E030E04FE7FA
:1007300053E469857A858B859C850E94BE13882346
:1007400059F0F801E959FD4F89859A85AB85BC853B
:1007500080839183A283B38320E030E04FE753E4AA
:100760006D857E858F8598890E94BE13882381F0D0
:100770008CE0829DF001839DF00D1124E959FD4F1D
:100780008D859E85AF85B88984839583A683B7833D
:1007900020E030E04FE753E4C701B6010E94BE13EA
:1007A000882361F08CE0829DF001839DF00D11247F
:1007B000E959FD4FC086D186E286F3866A960FB668
:1007C000F894DEBF0FBECDBFDF91CF911F910F9187
:1007D000FF90EF90DF90CF90BF90AF909F908F9061
:1007E0007F906F905F904F903F902F9008958F92E1
:1007F0009F92AF92BF92CF92DF92EF92FF920F93B0
:100800001F93CF93DF932CE0AC01249FC001259F61
:10081000900D11248C0109561D4FEC01C959DD4F73
:10082000580154E0A50EB11C4E0184E0880E911CC5
:100830006801E8E0CE0ED11C7E01F8E0EF0EF11C5D
:10084000F8016081718182819381288139814A8197
:100850005B810E94BE138111F3CFF501608171812C
:1008600082819381F40120813181428153810E94F0
:10087000BE138111E5CFF601608171818281938180
:10088000F70120813181428153810E94BE13811181
:10089000D7CFDF91CF911F910F91FF90EF90DF9015
:1008A000CF90BF90AF909F908F90089580E090E0A0
:1008B0000E94F70381E090E00E94F70382E090E05D
:1008C0000E94F70383E090E00C94F703CF92DF924D
:1008D000EF92FF920F931F93CF93DF9380E090E00E
:1008E000A0E8BFE38093330290933402A0933502D3
:1008F000B0933602C0E0D0E0C12CD12C80EEE82EBF
:1009000081ECF82E00E010E02FE733E4B901A801F4
:10091000CE010E9469022196C430D10569F7DF91AA
:10092000CF911F910F91FF90EF90DF90CF900C949B
:100930005604CF92DF92EF92FF920F931F93CF93C3
:10094000DF9380E090E0A0E8BFE3809333029093D0
:100950003402A0933502B0933602C0E0D0E0C12C3F
:10096000D12C88E4E82E82ECF82E00E010E02FE78E
:1009700033E4B901A801CE010E9469022196C43076
:10098000D10569F7DF91CF911F910F91FF90EF9003
:10099000DF90CF900C945604CF92DF92EF92FF92AB
:1009A0000F931F93CF93DF9340910E0150910F014E
:1009B0006091100170911101409333025093340201
:1009C0006093350270933602EC01209709F4E9C177
:1009D0006091BF027091C0028091C1029091C202E9
:1009E00020E030E0A9010E94BE13C12CD12C10EFF1
:1009F000E12E11ECF12E00E010E0980140E050E013
:100A000068E772E48111EAC083E090E00E94690225
:100A10000E945604C12CD12C58E4E52E52ECF52E40
:100A200000E010E020EA31E44FE65FE060E872E4C5
:100A300080E090E00E94690208E11EEA23E632E4C9
:100A400045E150EC66E072E481E090E00E946902CA
:100A500000E010E020EA31E44FE65FE060E872E495
:100A600082E090E00E946902C12CD12C60EFE62E5A
:100A700061ECF62E08E11EEA23E632E445E150EC93
:100A800066E072E483E090E00E9469020E945604EE
:100A9000C12CD12C78E4E72E72ECF72E08E11EEA87
:100AA00023E632E445E150EC66E072E483E090E056
:100AB0000E9469020E94560400E010E020EA31E43E
:100AC0004FE65FE060E872E480E090E00E94690237
:100AD00008E11EEA23E632E445E150EC66E072E408
:100AE00081E090E00E94690200E010E020EA31E439
:100AF0004FE65FE060E872E482E090E00E94690205
:100B000008E11EEA23E632E445E150EC66E072E4D7
:100B100083E090E00E9469020E945604C12CD12C0F
:100B2000E0EFEE2EE1ECFE2E08E11EEA23E632E4D1
:100B300045E150EC66E072E481E090E00E946902D9
:100B40000E945604C12CD12CF8E4EF2EF2ECFF2EBB
:100B500000E010E0980140E050E068E772E480E0D7
:100B600090E00E946902C12CD12CA0EFEA2EA1ECEA
:100B7000FA2E00E010E0980140E050E068E772E4EF
:100B800081E090E00E946902C12CD12CB8E4EB2EE8
:100B9000B2ECFB2E00E010E020E232E440E050E056
:100BA00068E772E482E090E00E94690200E010E0F1
:100BB00020E232E440E050E068E772E483E090E055
:100BC0000E9469020E94560400E010E0980140E093
:100BD00050E068E772E481E090E0DDC080E090E002
:100BE0000E9469020E94560408E11EEA23E632E4EC
:100BF00045E150EC66E072E480E090E00E9469021A
:100C0000C12CD12C88E4E82E82ECF82E00E010E014
:100C100020EA31E44FE65FE060E872E481E090E0D2
:100C20000E94690208E11EEA23E632E445E150EC45
:100C300066E072E482E090E00E94690200E010E069
:100C400020EA31E44FE65FE060E872E483E090E0A0
:100C50000E9469020E94560408E11EEA23E632E47B
:100C600045E150EC66E072E480E090E00E946902A9
:100C70000E94560408E11EEA23E632E445E150EC06
:100C800066E072E480E090E00E94690200E010E01B
:100C900020EA31E44FE65FE060E872E481E090E052
:100CA0000E94690208E11EEA23E632E445E150ECC5
:100CB00066E072E482E090E00E94690200E010E0E9
:100CC00020EA31E44FE65FE060E872E483E090E020
:100CD0000E9469020E945604C12CD12C90EFE92E8B
:100CE00091ECF92E08E11EEA23E632E445E150ECEE
:100CF00066E072E482E090E00E9469020E9456047D
:100D0000C12CD12C28E4E22E22ECF22E00E010E0DF
:100D100020E232E440E050E068E772E480E090E0F6
:100D20000E94690200E010E020E232E440E050E07E
:100D300068E772E481E090E00E946902C12CD12C46
:100D400030EFE32E31ECF32E00E010E0980140E0AC
:100D500050E068E772E482E090E00E946902C12CF2
:100D6000D12C48E4E42E42ECF42E00E010E098018F
:100D700040E050E068E772E483E090E00E9469029E
:100D80000E94560400E010E0980140E050E068E75F
:100D900072E482E090E00E9469020E94560421976A
:100DA00014CEDF91CF911F910F91FF90EF90DF90C4
:100DB000CF900895CF92DF92EF92FF920F931F93FF
:100DC000CF93DF9340910E0150910F01609110017C
:100DD00070911101409333025093340260933502B5
:100DE00070933602EC01209709F4E9C16091B302D7
:100DF0007091B4028091B5029091B60220E030E08B
:100E0000A9010E94BE13C12CD12C10EFE12E11ECD0
:100E1000F12E00E010E0980140E050E068E772E455
:100E20008111DEC082E090E00E9469020E945604B7
:100E3000C12CD12C78E4E72E72ECF72E08E11EEAE3
:100E400023E632E445E150EC66E072E480E090E0B5
:100E50000E94690200E010E020EA31E44FE65FE022
:100E600060E872E481E090E00E946902C12CD12C1C
:100E7000E0EFEE2EE1ECFE2E08E11EEA23E632E47E
:100E800045E150EC66E072E482E090E00E94690285
:100E9000C12CD12CF8E4EF2EF2ECFF2E00E010E094
:100EA00020EA31E44FE65FE060E872E483E090E03E
:100EB0000E9469020E94560408E11EEA23E632E419
:100EC00045E150EC66E072E482E090E00E94690245
:100ED0000E94560408E11EEA23E632E445E150ECA4
:100EE00066E072E480E090E00E94690200E010E0B9
:100EF00020EA31E44FE65FE060E872E481E090E0F0
:100F00000E94690208E11EEA23E632E445E150EC62
:100F100066E072E482E090E00E94690200E010E086
:100F200020EA31E44FE65FE060E872E483E090E0BD
:100F30000E9469020E945604C12CD12CA0EFEA2E17
:100F4000A1ECFA2E08E11EEA23E632E445E150EC7A
:100F500066E072E480E090E00E9469020E9456041C
:100F600000E010E0980140E050E068E772E480E0C3
:100F700090E00E946902C12CD12CB8E4EB2EB2ECB7
:100F8000FB2E00E010E0980140E050E068E772E4DA
:100F900081E090E00E94690200E010E020E232E48B
:100FA00040E050E068E772E482E090E00E9469026D
:100FB00000E010E020E232E440E050E068E772E454
:100FC00083E090E00E9469020E94560400E010E075
:100FD000980140E050E068E772E480E090E0E9C00A
:100FE00081E090E00E9469020E945604C12CD12C3D
:100FF00088E4E82E82ECF82E00E010E020EA31E4EC
:101000004FE65FE060E872E480E090E00E946902F1
:10101000C12CD12C90EFE92E91ECF92E08E11EEABB
:1010200023E632E445E150EC66E072E481E090E0D2
:101030000E946902C12CD12C28E4E22E22ECF22E6F
:1010400000E010E020EA31E44FE65FE060E872E49F
:1010500082E090E00E94690208E11EEA23E632E4A1
:1010600045E150EC66E072E483E090E00E946902A2
:101070000E94560408E11EEA23E632E445E150EC02
:1010800066E072E481E090E00E9469020E945604EA
:1010900000E010E020EA31E44FE65FE060E872E44F
:1010A00080E090E00E94690208E11EEA23E632E453
:1010B00045E150EC66E072E481E090E00E94690254
:1010C00000E010E020EA31E44FE65FE060E872E41F
:1010D00082E090E00E94690208E11EEA23E632E421
:1010E00045E150EC66E072E483E090E00E94690222
:1010F0000E945604C12CD12C30EFE32E31ECF32E9C
:1011000008E11EEA23E632E445E150EC66E072E4D1
:1011100083E090E00E9469020E945604C12CD12C09
:1011200048E4E42E42ECF42E00E010E020E232E449
:1011300040E050E068E772E480E090E00E946902DD
:1011400000E010E020E232E440E050E068E772E4C2
:1011500081E090E00E94690200E010E0980140E028
:1011600050E068E772E482E090E00E946902C12CDE
:10117000D12C50EFE52E51ECF52E00E010E0980157
:1011800040E050E068E772E483E090E00E9469028A
:101190000E945604C12CD12C68E4E62E62ECF62E97
:1011A00000E010E0980140E050E068E772E483E07E
:1011B00090E00E9469020E945604219714CEDF91AC
:1011C000CF911F910F91FF90EF90DF90CF900895F6
:1011D000CF92DF92EF92FF920F931F93CF93DF9303
:1011E00040910A0150910B0160910C0170910D0129
:1011F0004093330250933402609335027093360269
:10120000EC01209709F475C16091B3027091B402AA
:101210008091B5029091B60220E030E0A9010E94D1
:10122000BE13C12CD12C60EFE62E61ECF62E00E04F
:1012300010E0980140E050E068E772E48111AAC034
:1012400082E090E00E9469020E94560400E010E0F3
:1012500020EA32E440E050E068E772E482E090E0A7
:101260000E9469020E945604C12CD12C38E4E32E5E
:1012700032ECF32E00E010E020EA32E440E050E0EF
:1012800068E772E482E090E00E9469020E945604DE
:101290008091060190910701A0910801B091090188
:1012A0008093330290933402A0933502B0933602B8
:1012B00000E010E0980140E050E068E772E480E070
:1012C00090E00E94690200E010E020EA32E440E091
:1012D00050E068E772E481E090E00E94690200E07B
:1012E00010E020E232E440E050E068E772E482E09F
:1012F00090E00E94690200E010E020E232E440E069
:1013000050E068E772E483E090E00E9469020E9486
:10131000560480910A0190910B01A0910C01B091AB
:101320000D018093330290933402A0933502B09361
:101330003602C12CD12C40EFE42E41ECF42E00E01B
:1013400010E020EA32E440E050E068E772E481E037
:1013500090E00E9469020E94560400E010E09801AB
:1013600040E050E068E772E481E090E00E946902AA
:101370000E945604C12CD12C58E4E52E52ECF52ED7
:1013800000E010E0980140E050E068E772E481E09E
:1013900090E0A9C080E090E00E9469020E9456049B
:1013A00000E010E020EA32E440E050E068E772E458
:1013B00080E090E00E9469020E945604C12CD12C6A
:1013C00088E4E82E82ECF82E00E010E020EA32E417
:1013D00040E050E068E772E480E090E00E9469023B
:1013E0000E9456048091060190910701A091080186
:1013F000B09109018093330290933402A093350297
:10140000B093360200E010E020E232E440E050E029
:1014100068E772E480E090E00E94690200E010E07A
:1014200020E232E440E050E068E772E481E090E0DE
:101430000E94690200E010E0980140E050E068E797
:1014400072E482E090E00E94690200E010E020EA8D
:1014500032E440E050E068E772E483E090E00E940C
:1014600069020E94560480910A0190910B01A0919B
:101470000C01B0910D018093330290933402A0933C
:101480003502B0933602C12CD12C90EFE92E91ECAD
:10149000F92E00E010E020EA32E440E050E068E796
:1014A00072E483E090E00E9469020E94560400E02A
:1014B00010E0980140E050E068E772E483E090E0DB
:1014C0000E9469020E945604C12CD12C28E4E22E0D
:1014D00022ECF22E00E010E0980140E050E068E7D6
:1014E00072E483E090E00E9469020E945604219712
:1014F00088CEDF91CF911F910F91FF90EF90DF90F9
:10150000CF900895CF92DF92EF92FF920F931F93A7
:10151000CF93DF9340910A0150910B0160910C0130
:1015200070910D0140933302509334026093350261
:1015300070933602EC01209709F475C16091BF02E7
:101540007091C0028091C1029091C20220E030E00F
:10155000A9010E94BE13C12CD12C60EFE62E61ECD4
:10156000F62E00E010E0980140E050E068E772E4F9
:101570008111AAC083E090E00E9469020E94560493
:1015800000E010E020EA32E440E050E068E772E476
:1015900083E090E00E9469020E945604C12CD12C85
:1015A00038E4E32E32ECF32E00E010E020EA32E4DF
:1015B00040E050E068E772E483E090E00E94690256
:1015C0000E9456048091060190910701A0910801A4
:1015D000B09109018093330290933402A0933502B5
:1015E000B093360200E010E020EA32E440E050E040
:1015F00068E772E480E090E00E94690200E010E099
:10160000980140E050E068E772E481E090E00E94D9
:10161000690200E010E020E232E440E050E068E7D8
:1016200072E482E090E00E94690200E010E020E2B3
:1016300032E440E050E068E772E483E090E00E942A
:1016400069020E94560480910A0190910B01A091B9
:101650000C01B0910D018093330290933402A0935A
:101660003502B0933602C12CD12C40EFE42E41EC70
:10167000F42E00E010E020EA32E440E050E068E7B9
:1016800072E480E090E00E9469020E94560400E04B
:1016900010E0980140E050E068E772E480E090E0FC
:1016A0000E9469020E945604C12CD12C58E4E52EF8
:1016B00052ECF52E00E010E0980140E050E068E7C1
:1016C00072E480E090E0A9C081E090E00E946902AD
:1016D0000E94560400E010E020EA32E440E050E0CE
:1016E00068E772E481E090E00E9469020E9456047B
:1016F000C12CD12C88E4E82E82ECF82E00E010E01A
:1017000020EA32E440E050E068E772E481E090E0F3
:101710000E9469020E94560480910601909107017F
:10172000A0910801B0910901809333029093340293
:10173000A0933502B093360200E010E020E232E4DC
:1017400040E050E068E772E480E090E00E946902C7
:1017500000E010E020E232E440E050E068E772E4AC
:1017600081E090E00E94690200E010E020EA32E4AB
:1017700040E050E068E772E482E090E00E94690295
:1017800000E010E0980140E050E068E772E483E098
:1017900090E00E9469020E94560480910A01909193
:1017A0000B01A0910C01B0910D0180933302909335
:1017B0003402A0933502B0933602C12CD12C90EFA5
:1017C000E92E91ECF92E00E010E020EA32E440E04E
:1017D00050E068E772E482E090E00E9469020E94B3
:1017E000560400E010E0980140E050E068E772E441
:1017F00082E090E00E9469020E945604C12CD12C24
:1018000028E4E22E22ECF22E00E010E0980140E005
:1018100050E068E772E482E090E00E9469020E9472
:101820005604219788CEDF91CF911F910F91FF90A1
:10183000EF90DF90CF9008958F929F92AF92BF92DA
:10184000CF92DF92EF92FF920F931F93CF93DF938C
:10185000C7E9D2E0C880D980EA80FB80BC01990F3B
:10186000880B990B0E946D144B015C019B01AC012C
:10187000C701B6010E945213AB01BC01C12CD12C8F
:101880008FE7E82E83E4F82E9701860180E090E050
:101890000E9469022C853D854E855F85C501B40196
:1018A0000E945213AB01BC019701860181E090E0D8
:1018B0000E946902688D798D8A8D9B8DA5019401A6
:1018C0000E945113AB01BC019701860182E090E0B8
:1018D0000E9469026CA17DA18EA19FA1A501940126
:1018E0000E945113AB01BC019701860183E090E097
:1018F0000E946902DF91CF911F910F91FF90EF90AD
:10190000DF90CF90BF90AF909F908F900C94560433
:101910008F929F92AF92BF92CF92DF92EF92FF92FF
:101920000F931F93CF93DF93C7E9D2E0C880D9808C
:10193000EA80FB80BC01990F880B990B0E946D1403
:101940004B015C019B01AC01C701B6010E94511320
:10195000AB01BC01C12CD12C8FE7E82E83E4F82E1B
:101960009701860180E090E00E9469026C857D8588
:101970008E859F85A50194010E945113AB01BC0186
:101980009701860181E090E00E946902288D398DDF
:101990004A8D5B8DC501B4010E945213AB01BC019D
:1019A0009701860182E090E00E9469022CA13DA18E
:1019B0004EA15FA1C501B4010E945213AB01BC014D
:1019C0009701860183E090E00E946902DF91CF9148
:1019D0001F910F91FF90EF90DF90CF90BF90AF904D
:1019E0009F908F900C9456042F923F924F925F924B
:1019F0006F927F928F929F92AF92BF92CF92DF921F
:101A0000EF92FF920F931F93CF93DF9300D000D0FC
:101A100000D0CDB7DEB71C0180E090E0A0E8BFE3C6
:101A20008093330290933402A0933502B093360230
:101A30006091BF027091C0028091C1029091C20278
:101A400020E030E0A9010E94BE13811195C08FE013
:101A500090E00E94880C8091AF029091B002A0911A
:101A6000B102B091B20289839A83AB83BC83809028
:101A7000B3029090B402A090B502B090B60240902C
:101A8000B7025090B8026090B9027090BA0280918B
:101A9000060190910701A0910801B091090180937E
:101AA000330290933402A0933502B09336021E8223
:101AB0001D82AD81BE81A215B30544F5C12CD12C88
:101AC00098E4E92E92E4F92E00E010E020EA31E4F7
:101AD0004FE65FE060E872E482E090E00E94690215
:101AE0000E94560408E11EEA23E632E445E150EC88
:101AF00066E072E482E090E00E9469020E9456046F
:101B00008D819E8101969E838D83D3CF7301620167
:101B10009501840149815A816B817C8182E090E04A
:101B20000E9469020E94560480E090E0A0E8BFE3B2
:101B30008093330290933402A0933502B09336021F
:101B40008FE090E026960FB6F894DEBF0FBECDBFB3
:101B5000DF91CF911F910F91FF90EF90DF90CF9089
:101B6000BF90AF909F908F907F906F905F904F90BD
:101B70003F902F900C941C0C8FE090E00E941C0C66
:101B80008091970290919802A0919902B0919A0247
:101B900089839A83AB83BC8380909B0290909C0244
:101BA000A0909D02B0909E0240909F025090A00293
:101BB0006090A1027090A2028091060190910701AD
:101BC000A0910801B09109018093330290933402EF
:101BD000A0933502B09336021E821D82AD81BE8174
:101BE000A215B30544F5C12CD12C88E4E82E82E47B
:101BF000F82E00E010E020EA31E44FE65FE060E814
:101C000072E480E090E00E9469020E94560408E1BC
:101C10001EEA23E632E445E150EC66E072E480E03F
:101C200090E00E9469020E9456048D819E81019677
:101C30009E838D83D3CF7301620195018401498115
:101C40005A816B817C8180E090E00E9469020E9451
:101C5000560480E090E0A0E8BFE3809333029093C5
:101C60003402A0933502B09336028FE090E02696BE
:101C70000FB6F894DEBF0FBECDBFDF91CF911F919D
:101C80000F91FF90EF90DF90CF90BF90AF909F901B
:101C90008F907F906F905F904F903F902F900C941B
:101CA000880C2F923F924F925F926F927F928F9209
:101CB0009F92AF92BF92CF92DF92EF92FF920F93DB
:101CC0001F93CF93DF9300D000D000D0CDB7DEB705
:101CD0001C0180E090E0A0E8BFE380933302909382
:101CE0003402A0933502B09336026091BF02709126
:101CF000C0028091C1029091C20220E030E0A901AF
:101D00000E94BE1381119BC08FE090E00E94880C5E
:101D10008091AF029091B002A091B102B091B20255
:101D200089839A83AB83BC838090B3029090B40282
:101D3000A090B502B090B6024090B7025090B802A1
:101D40006090B9027090BA028091060190910701EB
:101D5000A0910801B091090180933302909334025D
:101D6000A0933502B09336021E821D82AD81BE81E2
:101D7000A215B30574F5C12CD12C2CE5E22E22E47A
:101D8000F22E00E010E020EA32E440E050E060E0B3
:101D900072E482E090E00E9469020E945604C12C25
:101DA000D12C30E2E32E31E4F32E00E010E020EA03
:101DB00032E440E050E060E072E482E090E00E94B3
:101DC00069020E9456048D819E8101969E838D83B7
:101DD000CDCF730162019501840149815A816B81E4
:101DE0007C8182E090E00E9469020E94560480E0BB
:101DF00090E0A0E8BFE38093330290933402A09375
:101E00003502B09336028FE090E026960FB6F89434
:101E1000DEBF0FBECDBFDF91CF911F910F91FF901D
:101E2000EF90DF90CF90BF90AF909F908F907F907A
:101E30006F905F904F903F902F900C941C0C8FE010
:101E400090E00E941C0C8091970290919802A091C2
:101E50009902B0919A0289839A83AB83BC83809064
:101E60009B0290909C02A0909D02B0909E02409098
:101E70009F025090A0026090A1027090A2028091F7
:101E8000060190910701A0910801B091090180938A
:101E9000330290933402A0933502B09336021E822F
:101EA0001D82AD81BE81A215B30574F5C12CD12C64
:101EB0008CE5E82E82E4F82E00E010E020EA32E41F
:101EC00040E050E060E072E480E090E00E9469024F
:101ED0000E945604C12CD12C90E2E92E91E4F92EF7
:101EE00000E010E020EA32E440E050E060E072E41C
:101EF00080E090E00E9469020E9456048D819E81DC
:101F000001969E838D83CDCF73016201950184017B
:101F100049815A816B817C8180E090E00E94690256
:101F20000E94560480E090E0A0E8BFE38093330273
:101F300090933402A0933502B09336028FE090E084
:101F400026960FB6F894DEBF0FBECDBFDF91CF91BE
:101F50001F910F91FF90EF90DF90CF90BF90AF90C7
:101F60009F908F907F906F905F904F903F902F90B9
:101F70000C94880C0F931F93CF93DF9360E671E06E
:101F800080911601909117010E9408188BEE92E043
:101F90000E940B020E94B81A8C018BEE92E00E9404
:101FA0000B020E94B81AEC01809116019091170162
:101FB0000730110508F071C0F801EC5CFF4F0C947C
:101FC000EC1966E271E00E9408180E945402811127
:101FD00002C00E949904CE01DF91CF911F910F9111
:101FE0000C94E80863E371E00E9408180E94540210
:101FF000811102C00E949904CE01DF91CF911F91FF
:102000000F910C94820A6DE371E00E9408180E94FF
:102010005402811102C00E949904CE01DF91CF9138
:102020001F910F910C94CC0467E471E00E94081892
:102030000E945402811102C00E949904CE01DF91D6
:10204000CF911F910F910C94DA0668E671E00E941F
:102050000818CD2B31F0DF91CF911F910F910C9487
:102060009904DF91CF911F910F910C94660462E760
:1020700071E00E940818CE01DF91CF911F910F915E
:102080000C94510E62E571E00E940818CE01DF91B8
:10209000CF911F910F910C94F40C6DE771E0DF91DB
:1020A000CF911F910F910C940818CF92DF92EF926D
:1020B000FF920F931F9326E040E052EC61E070E046
:1020C0008FE393E00E94C11663E871E080911601EE
:1020D000909117010E9408188091160190911701A4
:1020E000DC01ED91FC910680F781E02D099560E01F
:1020F0008EE00E9429194AEB5FE06FE971E08BEEF8
:1021000092E00E94220165E172E08BEE92E00E9473
:102110005901C12CD12CA0EEEA2EA1ECFA2E00E040
:1021200010E020E232E440E050E068E772E480E052
:1021300090E00E94690200E010E020E232E440E01A
:1021400050E068E772E481E090E00E94690200E0FC
:1021500010E0980140E050E068E772E482E090E02F
:102160000E94690200E010E0980140E050E068E75A
:1021700072E483E090E00E94690220E030E040E0F9
:1021800050E0B901660F771F620F731FCB01840FF8
:10219000951F880F991F880F991FFC01E959FD4F62
:1021A000C080D180E280F380FC01E956FD4FC082FF
:1021B000D182E282F3824F5F5F4F4330510531F7A6
:1021C0002F5F3F4F24303105D1F661EA71E08091F5
:1021D0001601909117010E9408180E941D0267EBDA
:1021E00071E080911601909117010E9408186AEC25
:1021F00071E080911601909117011F910F91FF904E
:10220000EF90DF90CF900C9408184F925F926F92EE
:102210007F928F929F92AF92BF92CF92DF92EF9276
:10222000FF928BEE92E00E945D018EE00E94941975
:10223000892B09F0A2C00E945402882309F49DC092
:1022400060910E0170910F01809110019091110128
:102250000E9435146B017C0160910A0170910B01A1
:1022600080910C0190910D010E9435144B015C018D
:102270006091060170910701809108019091090118
:102280000E9435142B013C0180E090E0A0EAB1E40B
:102290008093060190930701A0930801B093090170
:1022A00080930A0190930B01A0930C01B0930D0150
:1022B00080930E0190930F01A0931001B093110130
:1022C0008091310290913202039774F481E090E0A2
:1022D0000E94820A8091310290913202019690937D
:1022E0003202809331021FC080912F029091300200
:1022F000892B29F081E090E00E94DA0604C081E099
:1023000090E00E94CC0420912F023091300281E0B5
:1023100090E0821B930B9093300280932F021092D7
:10232000320210923102B601DD0C880B990B0E942B
:102330006D1460930E0170930F01809310019093C0
:102340001101B401990C880B990B0E946D146093D4
:102350000A0170930B0180930C0190930D01B2015F
:10236000550C880B990B0E946D14609306017093B5
:1023700007018093080190930901FF90EF90DF908F
:10238000CF90BF90AF909F908F907F906F905F9015
:102390004F9008950F931F93CF93DF936091160191
:1023A000709117018BEE92E00E940901C7ECD2E018
:1023B0000BEE12E0CE010E94AF12CE0103960E94F6
:1023C000AF12CE0106960E94AF1229960C171D0778
:1023D00089F7DF91CF911F910F9108951F920F926E
:1023E0000FB60F9211242F933F934F935F936F93E8
:1023F0007F938F939F93AF93BF93EF93FF938091BE
:102400001A0387FF05C010928500109284001BC03C
:1024100020911A03022E000C330B8091190390E0D7
:102420002817390784F480911A03082E000C990BA1
:10243000FC01EE0FFF1F8E0F9F1FFC01E55EFC4F9E
:10244000808186FD15C080911A038F5F80931A03E7
:1024500020911A03022E000C330B8091190390E097
:1024600028173907C4F480911A038C3064F113C023
:1024700080911A03082E000C990BFC01EE0FFF1F30
:102480008E0F9F1FFC01E55EFC4F808160E08F7323
:102490000E946519D8CF80918400909185000496A0
:1024A00080349C4918F480E49CE905C08091840044
:1024B00090918500049690938900809388008FEF17
:1024C00080931A033BC02091840030918500809155
:1024D0001A03082E000C990BFC01EE0FFF1F8E0F44
:1024E0009F1FFC01E55EFC4F81819281820F931F4B
:1024F000909389008093880080911A03082E000C25
:10250000990BFC01EE0FFF1F8E0F9F1FFC01E55E74
:10251000FC4F808186FF12C080911A03082E000CA8
:10252000990BFC01EE0FFF1F8E0F9F1FFC01E55E54
:10253000FC4F808161E08F730E946519FF91EF91DC
:10254000BF91AF919F918F917F916F915F914F91CB
:102550003F912F910F900FBE0F901F901895FC0187
:10256000909119039C30A0F481E0890F80931903A6
:102570009083892F90E0FC01EE0FFF1F8E0F9F1FAD
:10258000FC01E55EFC4F88EB9BE09283818308951C
:102590008FEF80830895DF92EF92FF920F931F9346
:1025A000CF93DF93EC01D62E7A01890188818C309C
:1025B00008F068C061E08D2D0E9429198881E82FFC
:1025C000F0E09F01220F331FE20FF31FE55EFC4F87
:1025D0009D2D9F732081207CD22ED92AD08220E28B
:1025E00032E02E193F0937FF02C02D5F3F4F35956E
:1025F000279535952795298320E639E0201B310B57
:1026000037FF02C02D5F3F4F3595279535952795AC
:102610002A832CE0622F0E94BE19289FB00111244A
:1026200040E050E09B01240F351FF901EE0FFF1F22
:102630002E0F3F1FF901E55EFC4F908196FD16C0FD
:102640004F5F5F4F4C30510569F781110FC01092F9
:10265000800082E0809381001092850010928400B7
:10266000B19A80916F00826080936F00E881F0E002
:10267000CF01880F991FE80FF91FE55EFC4F80819D
:10268000806480838881DF91CF911F910F91FF90AB
:10269000EF90DF90089520E639E040E252E00C949C
:1026A000CB125058BB27AA270E9469130C94E3143D
:1026B0000E94D51438F00E94DC1420F039F49F3FBA
:1026C00019F426F40C94D2140EF4E095E7FB0C9464
:1026D000CC14E92F0E94F41458F3BA176207730759
:1026E0008407950720F079F4A6F50C9416150EF4DE
:1026F000E0950B2EBA2FA02D0B01B90190010C0112
:10270000CA01A0011124FF27591B99F0593F50F429
:10271000503E68F11A16F040A22F232F342F442781
:10272000585FF3CF469537952795A795F040539579
:10273000C9F77EF41F16BA0B620B730B840BBAF049
:102740009150A1F0FF0FBB1F661F771F881FC2F7B4
:102750000EC0BA0F621F731F841F48F487957795C8
:102760006795B795F7959E3F08F0B0CF9395880F82
:1027700008F09927EE0F9795879508950E94A81461
:1027800008F481E008950E94D7130C94E3140E948A
:10279000DC1458F00E94D51440F029F45F3F29F072
:1027A0000C94CC1451110C9417150C94D2140E9453
:1027B000F41468F39923B1F3552391F3951B550B4A
:1027C000BB27AA2762177307840738F09F5F5F4F04
:1027D000220F331F441FAA1FA9F335D00E2E3AF043
:1027E000E0E832D091505040E695001CCAF72BD05B
:1027F000FE2F29D0660F771F881FBB1F26173707AC
:102800004807AB07B0E809F0BB0B802DBF01FF27DD
:1028100093585F4F3AF09E3F510578F00C94CC14DA
:102820000C9417155F3FE4F3983ED4F386957795A3
:102830006795B795F7959F5FC9F7880F911D969596
:10284000879597F90895E1E0660F771F881FBB1FF2
:10285000621773078407BA0720F0621B730B840B9F
:10286000BA0BEE1F88F7E09508950E943C14689417
:10287000B1110C94171508950E94FC1488F09F570D
:1028800098F0B92F9927B751B0F0E1F0660F771F94
:10289000881F991F1AF0BA95C9F714C0B13091F08A
:1028A0000E941615B1E008950C941615672F782F25
:1028B0008827B85F39F0B93FCCF38695779567954F
:1028C000B395D9F73EF490958095709561957F4FBB
:1028D0008F4F9F4F0895E89409C097FB3EF4909561
:1028E0008095709561957F4F8F4F9F4F9923A9F0E9
:1028F000F92F96E9BB279395F69587957795679578
:10290000B795F111F8CFFAF4BB0F11F460FF1BC0BB
:102910006F5F7F4F8F4F9F4F16C0882311F096E94E
:1029200011C0772321F09EE8872F762F05C06623FC
:1029300071F096E8862F70E060E02AF09A95660FB5
:10294000771F881FDAF7880F9695879597F908956E
:10295000990F0008550FAA0BE0E8FEEF16161706B0
:10296000E807F907C0F012161306E407F50798F018
:10297000621B730B840B950B39F40A2661F0232B31
:10298000242B252B21F408950A2609F4A140A695AD
:102990008FEF811D811D089597F99F6780E870E092
:1029A00060E008959FEF80EC089500240A941616C5
:1029B000170618060906089500240A94121613062D
:1029C000140605060895092E0394000C11F48823BB
:1029D00052F0BB0F40F4BF2B11F460FF04C06F5FD7
:1029E0007F4F8F4F9F4F089557FD9058440F551FAD
:1029F00059F05F3F71F04795880F97FB991F61F081
:102A00009F3F79F087950895121613061406551FF7
:102A1000F2CF4695F1DF08C0161617061806991F63
:102A2000F1CF86957105610508940895E894BB2758
:102A300066277727CB0197F908950E9430150C94EB
:102A4000E3140E94D51438F00E94DC1420F0952382
:102A500011F00C94CC140C94D21411240C9417156E
:102A60000E94F41470F3959FC1F3950F50E0551F29
:102A7000629FF001729FBB27F00DB11D639FAA27D3
:102A8000F00DB11DAA1F649F6627B00DA11D661F22
:102A9000829F2227B00DA11D621F739FB00DA11D43
:102AA000621F839FA00D611D221F749F3327A00DFD
:102AB000611D231F849F600D211D822F762F6A2F99
:102AC00011249F5750409AF0F1F088234AF0EE0FFE
:102AD000FF1FBB1F661F771F881F91505040A9F72B
:102AE0009E3F510580F00C94CC140C9417155F3F59
:102AF000E4F3983ED4F3869577956795B795F79567
:102B0000E7959F5FC1F7FE2B880F911D96958795DE
:102B100097F9089519F416F40C94D2140C94D01566
:102B20000E94FC14B8F39923C9F3B6F39F57550BD1
:102B300087FF0E94DE150024A0E640EA900180583D
:102B40005695979528F4805C660F771F881F20F0B4
:102B500026173707480730F4621B730B840B2029B4
:102B600031294A2BA69517940794202531254A2709
:102B700058F7660F771F881F20F02617370748077A
:102B800030F4620B730B840B200D311D411DA09599
:102B900081F7B901842F9158880F969587950895EC
:102BA0009F3F31F0915020F4879577956795B795C1
:102BB000880F911D9695879597F9089591505040EB
:102BC000660F771F881FD2F70895FC01918D228D23
:102BD000892F90E0805C9F4F821B91098F7399270A
:102BE0000895FC01918D828D981731F0828DE80F48
:102BF000F11D858D90E008958FEF9FEF0895FC0102
:102C0000918D828D981761F0828DDF01A80FB11D23
:102C10005D968C91928D9F5F9F73928F90E0089547
:102C20008FEF9FEF0895FC01538D448D252F30E0E9
:102C3000842F90E0821B930B541710F0CF960895C9
:102C4000019708958EE797E1892B49F080E090E0A5
:102C5000892B29F00E947E1781110C9400000895A1
:102C6000FC01848DDF01A80FB11DA35ABF4F2C9129
:102C7000848D90E001968F739927848FA689B789F8
:102C80002C93A089B1898C91837080648C93938DEF
:102C9000848D981306C00288F389E02D80818F7D92
:102CA00080830895EF92FF920F931F93CF93DF934A
:102CB000EC0181E0888F9B8D8C8D981305C0E8898D
:102CC000F989808185FD26C0F62E0B8D10E00F5FFF
:102CD0001F4F0F731127E02E8C8DE8120CC00FB61A
:102CE00007FCFACFE889F989808185FFF5CFCE010D
:102CF0000E943016F1CF8B8DFE01E80FF11DE35AD3
:102D0000FF4FF0829FB7F8940B8FEA89FB8980818F
:102D100080620AC09FB7F894EE89FF896083E889D2
:102D2000F98980818370806480839FBF81E090E017
:102D3000DF91CF911F910F91FF90EF900895CF9366
:102D4000DF93EC01888D8823C9F0EA89FB898081B3
:102D500085FD05C0A889B9898C9186FD0FC00FB685
:102D600007FCF5CF808185FFF2CFA889B9898C91C6
:102D700085FFEDCFCE010E943016E7CFDF91CF91D6
:102D80000895CF92DF92EF92FF921F93CF93DF933C
:102D9000EC016A017B01122FE889F98982E08083C6
:102DA0004115514E61057105B1F060E079E08DE3A8
:102DB00090E0A70196010E94CA19DA01C9010197A2
:102DC000A109B109B695A795979587959C012115FD
:102DD00080E13807A8F0E889F989108260E874E892
:102DE0008EE190E0A70196010E94CA19DA01C9019B
:102DF0000197A109B109B695A795979587959C016B
:102E0000EC85FD853083EE85FF852083188EEC8967
:102E1000FD891083EA89FB89808180618083EA894A
:102E2000FB89808188608083EA89FB898081806852
:102E30008083EA89FB8980818F7D8083DF91CF91B8
:102E40001F91FF90EF90DF90CF9008951F920F9207
:102E50000FB60F9211242F938F939F93EF93FF93AD
:102E6000E0914F03F09150038081E0915503F09180
:102E7000560382FD12C09081809158038F5F8F733B
:102E800020915903821751F0E0915803F0E0E15C82
:102E9000FC4F958F8093580301C08081FF91EF9183
:102EA0009F918F912F910F900FBE0F901F901895AB
:102EB0001F920F920FB60F9211242F933F934F93AF
:102EC0005F936F937F938F939F93AF93BF93EF9392
:102ED000FF938FE393E00E943016FF91EF91BF9133
:102EE000AF919F918F917F916F915F914F913F91A2
:102EF0002F910F900FBE0F901F9018958FE393E0C6
:102F00000E94E51521E0892B09F420E0822F089525
:102F1000EFE3F3E01382128288EE93E0A0E0B0E0EA
:102F200084839583A683B78384E092E09183808332
:102F300085EC90E09587848784EC90E0978786877E
:102F400080EC90E0918B808B81EC90E0938B828B76
:102F500082EC90E0958B848B86EC90E0978B868B4F
:102F6000118E128E138E148E089508950E94C51826
:102F70000E94B5170E945510C2E2D6E10E940511C9
:102F80002097E1F30E942216F9CFCF92DF92EF92C1
:102F9000FF920F931F93CF93DF936C017A018B0104
:102FA000C0E0D0E0CE15DF0581F0D8016D918D0134
:102FB000D601ED91FC910190F081E02DC6010995BB
:102FC000892B11F02196EECF7E01C701DF91CF91C1
:102FD0001F910F91FF90EF90DF90CF9008956115B2
:102FE000710579F0FB0101900020E9F73197AF01FD
:102FF000461B570BDC01ED91FC910280F381E02D23
:10300000099480E090E0089562E172E00C94EF177B
:103010000F931F93CF93DF93EC010E94EF178C0166
:10302000CE010E940418800F911FDF91CF911F9154
:103030000F9108951F920F920FB60F9211242F93A4
:103040003F938F939F93AF93BF938091DD039091B4
:10305000DE03A091DF03B091E0033091DC0323E0B5
:10306000230F2D3720F40196A11DB11D05C026E8C0
:10307000230F0296A11DB11D2093DC038093DD0375
:103080009093DE03A093DF03B093E0038091E1030C
:103090009091E203A091E303B091E4030196A11D96
:1030A000B11D8093E1039093E203A093E303B093F7
:1030B000E403BF91AF919F918F913F912F910F901A
:1030C0000FBE0F901F9018953FB7F8948091E103C1
:1030D0009091E203A091E303B091E40326B5A89B8D
:1030E00005C02F3F19F00196A11DB11D3FBFBA2F9A
:1030F000A92F982F8827820F911DA11DB11DBC01FA
:10310000CD0142E0660F771F881F991F4A95D1F7BE
:1031100008958F929F92AF92BF92CF92DF92EF92DB
:10312000FF926B017C010E9464184B015C01C11489
:10313000D104E104F10401F10E94BD190E94641858
:10314000DC01CB0188199909AA09BB09883E934083
:10315000A105B10560F321E0C21AD108E108F10828
:1031600088EE880E83E0981EA11CB11CC114D10406
:10317000E104F10419F7DBCFFF90EF90DF90CF90DF
:10318000BF90AF909F908F900895789484B582609F
:1031900084BD84B5816084BD85B5826085BD85B5FB
:1031A000816085BDEEE6F0E0808181608083E1E8AA
:1031B000F0E01082808182608083808181608083E2
:1031C000E0E8F0E0808181608083E1EBF0E08081E5
:1031D00084608083E0EBF0E0808181608083EAE7B7
:1031E000F0E0808184608083808182608083808140
:1031F000816080838081806880831092C1000895FF
:10320000833081F028F4813099F08230A1F0089564
:103210008730A9F08830B9F08430D1F480918000F3
:103220008F7D03C0809180008F7780938000089508
:1032300084B58F7702C084B58F7D84BD0895809159
:10324000B0008F7703C08091B0008F7D8093B00075
:103250000895CF93DF9390E0FC01E657FF4F249150
:10326000FC01E256FF4F8491882361F190E0880FC2
:10327000991FFC01EA53FF4FC591D491FC01E4541E
:10328000FF4FA591B491611109C09FB7F89488814F
:10329000209582238883EC912E230BC0623061F449
:1032A0009FB7F8948881322F309583238883EC91DF
:1032B0002E2B2C939FBF06C08FB7F894E8812E2B3E
:1032C00028838FBFDF91CF9108951F93CF93DF9312
:1032D000282F30E0F901EA58FF4F8491F901E657B1
:1032E000FF4FD491F901E256FF4FC491CC23C1F0B6
:1032F000162F81110E940019EC2FF0E0EE0FFF1F36
:10330000E454FF4FA591B4919FB7F894111104C0F4
:103310008C91D095D82302C0EC91DE2BDC939FBF1B
:10332000DF91CF911F910895CF93DF93282F30E045
:10333000F901EA58FF4F8491F901E657FF4FD49104
:10334000F901E256FF4FC491CC2391F081110E9404
:103350000019EC2FF0E0EE0FFF1FEE54FF4FA59188
:10336000B491EC91ED2381E090E021F480E002C083
:1033700080E090E0DF91CF9108950895991B79E066
:1033800004C0991F961708F0961B881F7A95C9F7F5
:1033900080950895A1E21A2EAA1BBB1BFD010DC04A
:1033A000AA1FBB1FEE1FFF1FA217B307E407F507F5
:1033B00020F0A21BB30BE40BF50B661F771F881FD1
:1033C000991F1A9469F760957095809590959B0167
:1033D000AC01BD01CF010895EE0FFF1F0590F491E0
:1033E000E02D0994A0E0B0E0E8EFF9E10C94631C53
:1033F000EC01009721F4CB010E943B1BB4C0FC01FF
:10340000E60FF71F9C0122503109E217F30708F479
:10341000A8C0D9010D911C91119706171707B0F09C
:103420000530110508F49BC0C8010497861797075B
:1034300008F495C002501109061B170B0193119354
:103440006D937C93CF010E94D31B89C05B01A01AAE
:10345000B10A4C01800E911EA091E703B091E803E0
:10346000612C712CE12CF12C109709F446C08D9140
:103470009C911197A815B905B1F56C0142E0C40EF5
:10348000D11CCA14DB0478F14C018A189B08640132
:1034900042E0C40ED11C1296BC9012971396AC91C8
:1034A000B5E0CB16D10440F0B282A3839182808232
:1034B000D9016D937C9309C00E5F1F4F800F911F40
:1034C000F90191838083EB2DFA2FE114F10431F09F
:1034D000D7011396FC93EE93129741C0F093E80343
:1034E000E093E7033CC06816790608F43C017D01CF
:1034F00012960D90BC91A02DB7CF8091E5039091CD
:10350000E60388169906E1F466167706C8F48091FA
:10351000000190910101009741F48DB79EB7409151
:10352000040150910501841B950BE817F907C8F4B5
:10353000F093E603E093E503F901718360830FC024
:10354000CB010E943B1B7C01009759F0A801BE01F2
:103550000E94DF1ACE010E94D31BC70104C0CE0116
:1035600002C080E090E0CDB7DEB7EEE00C947F1CA7
:10357000FC0188279927E89421912032E9F329302A
:1035800010F02E30C8F32B3241F02D3239F468940C
:1035900004C00E94331B820F911D219120532A30B9
:1035A000C0F31EF4909581959F4F0895803209F0E5
:1035B00091110C945C1C80528F55D8F70895FB0133
:1035C000DC0102C001900D9241505040D8F708959F
:1035D000FB01DC0101900D920020E1F70895FB0151
:1035E000DC014150504030F08D910190801919F468
:1035F0000020B9F7881B990B0895FB01DC014150AD
:10360000504048F001900D920020C9F701C01D9272
:1036100041505040E0F70895FA01A191B081009720
:1036200019F41097E1F0CD01DC01CD010D900020DF
:1036300011F4C00113C0FB012191222319F02015C0
:10364000D9F7F3CFFB012191201519F41E921196A1
:1036500006C02223C1F70D900020A1F7D001FA0186
:10366000A193B08308957AE0979F902D879F802D36
:10367000910D112408950F931F93CF93DF93823000
:10368000910510F482E090E0E091E703F091E80307
:1036900020E030E0A0E0B0E0309719F140815181A6
:1036A0000281138148175907C8F08417950769F4F8
:1036B000109731F012960C93129713961C9327C013
:1036C0000093E7031093E80322C02115310519F098
:1036D0004217530718F49A01BD01EF01DF01F80109
:1036E000DBCF21153105F9F0281B390B24303105CA
:1036F00080F48A819B816115710521F0FB01938320
:10370000828304C09093E8038093E703FE0132961E
:1037100044C0FE01E20FF31F8193919322503109BF
:10372000398328833AC02091E5033091E603232BA7
:1037300041F420910201309103013093E60320937C
:10374000E50320910001309101012115310541F47B
:103750002DB73EB74091040150910501241B350B54
:10376000E091E503F091E603E217F307A0F42E1BC6
:103770003F0B2817390778F0AC014E5F5F4F2417D5
:10378000350748F04E0F5F1F5093E6034093E50363
:103790008193919302C0E0E0F0E0CF01DF91CF91FF
:1037A0001F910F910895CF93DF93009709F481C083
:1037B000FC01329713821282A091E703B091E803D3
:1037C000109781F420813181820F931F2091E503AE
:1037D0003091E6032817390751F5F093E603E0939B
:1037E000E50367C0ED0120E030E0CE17DF0740F4CD
:1037F0004A815B819E0141155105F1F0EA01F5CF47
:10380000D383C28340815181840F951FC817D90784
:1038100059F488819981840F951F02969183808342
:103820008A819B81938382832115310529F4F0934A
:10383000E803E093E7033DC0E901FB83EA83499194
:103840005991C40FD51FEC17FD0761F48081918158
:10385000840F951F0296E901998388838281938161
:103860009B838A83E0E0F0E012968D919C91139700
:10387000009719F0FD01DC01F7CF8D919C91119714
:103880009D012E5F3F4F820F931F2091E5033091E2
:10389000E6032817390769F4309729F41092E803F2
:1038A0001092E70302C013821282B093E603A09342
:1038B000E503DF91CF9108959927882708952F92E6
:1038C0003F924F925F926F927F928F929F92AF92B0
:1038D000BF92CF92DF92EF92FF920F931F93CF93FD
:1038E000DF93CDB7DEB7CA1BDB0B0FB6F894DEBF94
:1038F0000FBECDBF09942A88398848885F846E84BA
:103900007D848C849B84AA84B984C884DF80EE8003
:10391000FD800C811B81AA81B981CE0FD11D0FB60C
:10392000F894DEBF0FBECDBFED010895F894FFCF30
:103930000000E903200000004040000000410000BA
:1039400080400000803F3F032000576861743F00C3
:103950005374616E64005374657020666F72776192
:1039600072640053746570206261636B00547572F9
:103970006E206C656674005475726E20726967689B
:10398000740048616E642077617665005369740045
:10399000416374696F6E3A00313A75702C303A6445
:1039A0006E0048616E64207368616B6500457272D9
:1039B0006F7200526F626F7420737461727473203F
:1039C000696E697469616C697A6174696F6E007798
:1039D00000536572766F2073657276696365207334
:1039E00074617274656400536572766F7320696EDA
:1039F000697469616C697A656400526F626F7420E2
:103A0000696E697469616C697A6174696F6E20436B
:103A10006F6D706C657465000200030004000500A2
:103A200006000700080009000A000B000C000D004A
:103A3000000000005216C51713169F16E515FF1556
:103A4000F1150D0A006E616E00696E66006F766694
:023A5000000074
:00000001FF
