:100000000C9489000C94B1000C94B1000C94B100D4
:100010000C94B1000C94B1000C94B1000C94B1009C
:100020000C94B1000C9489010C94B1000C94AE15A1
:100030000C94B1000C94B1000C94B1000C94B1007C
:100040000C94471D0C94B1000C94531C0C94851C0B
:100050000C94B1000C94B1000C94B1000C94B1005C
:100060000C94B1000C94B100084AD73B3BCE016E12
:1000700084BCBFFDC12F3D6C74319ABD56833DDAFF
:100080003D00C77F11BED9E4BB4C3E916BAAAABE0E
:10009000000000803F072C7AA5BA6CC590DA3B932C
:1000A00065FC8BBC53F810FD3C5692834DBD879D7B
:1000B0003AB63DCBC9BF5BBE73DA0FC93F00000043
:1000C0000008000201000003040700000000000017
:1000D00000000102040810204080010204081020E2
:1000E00001020408102004040404040404040202AD
:1000F00002020202030303030303000000002500C1
:1001000028002B0000000000240027002A00921580
:10011000B51C11241FBECFEFD8E0DEBFCDBF11E06C
:10012000A0E0B1E0E4E0FFE302C005900D92AC3E38
:10013000B107D9F723E0ACEEB1E001C01D92AB38B6
:10014000B207E1F710E0C9E8D0E004C02197FE0152
:100150000E946B1FC738D107C9F70E94E31C0C949B
:10016000801F0C940000CF92DF92EF92FF920F93CA
:100170001F9369017A01611571058105910569F483
:1001800081E090E0A0E0B0E08093F5019093F6016B
:10019000A093F701B093F80108C06093F501709344
:1001A000F6018093F7019093F8011093F401009306
:1001B000F301809170008E7F809370008091B00079
:1001C0008C7F8093B0008091B100877F8093B100D5
:1001D0008091B6008F7D8093B600809170008D7FF6
:1001E000809370008091B10084608093B100809111
:1001F000B1008C7F8093B10020E034E244E75BE4FF
:10020000C701B6010E94461A20E030E040E85CE3F6
:100210000E94461A0E940A1920E031E0C901861B9B
:10022000970B9093ED018093EC011F910F91FF903C
:10023000EF90DF90CF9008950F931F938A012FE6E0
:1002400032E143E85AE30E94B3001F910F910895F1
:100250001092EF011092F0011092F1011092F20150
:100260001092EE018091EC019091ED018093B2002B
:10027000E0E7F0E080818160808308958091EF0164
:100280009091F001A091F101B091F2010196A11DB0
:10029000B11D8093EF019093F001A093F101B09311
:1002A000F2018091EF019091F001A091F101B091E4
:1002B000F2014091F5015091F6016091F7017091C2
:1002C000F80184179507A607B70710F18091EE0192
:1002D00081111EC081E08093EE018091EF01909129
:1002E000F001A091F101B091F201841B950BA60BD6
:1002F000B70B8093EF019093F001A093F101B093BD
:10030000F201E091F301F091F40109951092EE01F0
:1003100008951F920F920FB60F9211242F933F93BF
:100320004F935F936F937F938F939F93AF93BF93FD
:10033000EF93FF938091EC019091ED018093B200D7
:100340000E943E01FF91EF91BF91AF919F918F91DC
:100350007F916F915F914F913F912F910F900FBEC1
:100360000F901F901895CF92DF92EF92FF920F930C
:100370001F93CF93DF9382EBE82E81E0F82EC0E04D
:10038000D0E0670100E010E0F601619171916F012A
:10039000CE01800F911F8B5F9D4F0E940B1764E66B
:1003A00070E080E090E00E94B61D0D5F1F4F0930A5
:1003B000110551F7F6E0EF0EF11C2996C432D10574
:1003C00001F7DF91CF911F910F91FF90EF90DF9098
:1003D000CF9008952F923F924F925F926F927F92AB
:1003E0008F929F92AF92BF92CF92DF92EF92FF9245
:1003F0000F931F93CF93DF93CDB7DEB76A970FB6F6
:10040000F894DEBF0FBECDBF1C0149875A876B87AA
:100410007C870D871E872F87388B20E030E04FE7E1
:1004200053E469857A858B859C850E94931888237F
:10043000A9F08CE0829DF001839DF00D1124E1571D
:10044000FD4F208131814281538169857A858B8579
:100450009C850E94B4174B015C0103C0812C912C38
:10046000540120E030E04FE753E46D857E858F85B1
:1004700098890E9493188823B9F08CE0829DF0013E
:10048000839DF00D1124E157FD4F24813581468174
:1004900057816D857E858F8598890E94B417698301
:1004A0007A838B839C8304C019821A821B821C82EC
:1004B00020E030E04FE753E4C701B6010E949318F3
:1004C0008823A9F08CE0829DF001839DF00D11241A
:1004D000E157FD4F2085318542855385C701B6011F
:1004E0000E94B4176D837E838F83988704C01D821A
:1004F0001E821F821886A5019401C501B4010E94C5
:10050000461A2B013C0129813A814B815C81CA0149
:10051000B9010E94461A9B01AC01C301B2010E94BD
:10052000B5172B013C012D813E814F815885CA01B1
:10053000B9010E94461A9B01AC01C301B2010E949D
:10054000B5170E94B91A2B013C0180912B029091A2
:100550002C02A0912D02B0912E02898B9A8BAB8B2D
:10056000BC8B8091000190910101A0910201B0919A
:1005700003018D8B9E8BAF8BB88F8CE0829D8001A9
:10058000839D100D1124D801A15DBD4FBA8FA98F95
:10059000A3019201C501B4010E94981829893A89E2
:1005A0004B895C890E94461A2D893E894F89588D56
:1005B0000E94461AE98DFA8D60837183828393834A
:1005C000A301920169817A818B819C810E94981894
:1005D00029893A894B895C890E94461A2D893E896E
:1005E0004F89588D0E94461AA98DBA8D14966D9325
:1005F0007D938D939C931797A30192016D817E81CA
:100600008F8198850E94981829893A894B895C893D
:100610000E94461A2D893E894F89588D0E94461A9C
:10062000E98DFA8D608771878287938720E030E0BB
:100630004FE753E469857A858B859C850E949318E2
:10064000882359F0F801E15AFD4F89859A85AB85D9
:10065000BC8580839183A283B38320E030E04FE7A1
:1006600053E46D857E858F8598890E949318882331
:1006700081F08CE0829DF001839DF00D1124E15A00
:10068000FD4F8D859E85AF85B88984839583A6832C
:10069000B78320E030E04FE753E4C701B6010E9482
:1006A0009318882361F08CE0829DF001839DF00D0A
:1006B0001124E15AFD4FC086D186E286F3866A9600
:1006C0000FB6F894DEBF0FBECDBFDF91CF911F9163
:1006D0000F91FF90EF90DF90CF90BF90AF909F90E1
:1006E0008F907F906F905F904F903F902F900895E4
:1006F000CF92DF92EF92FF920F931F9326E040E09C
:1007000052EC61E070E085EE92E00E94EE1B64E046
:1007100071E085EE92E00E94351DC12CD12CA0EE37
:10072000EA2EA1ECFA2E00E010E020E232E440E0F4
:1007300050E068E772E480E090E00E94EA0100E0A7
:1007400010E020E232E440E050E068E772E481E04B
:1007500090E00E94EA0100E010E0980140E050E0E3
:1007600068E772E482E090E00E94EA0100E010E0B5
:10077000980140E050E068E772E483E090E00E9476
:10078000EA0120E030E040E050E0B901660F771F59
:10079000620F731FCB01840F951F880F991F880F5D
:1007A000991FFC01E15AFD4FC080D180E280F380A7
:1007B000FC01E157FD4FC082D182E282F3824F5F9C
:1007C0005F4F4330510531F72F5F3F4F24303105E4
:1007D000D1F64EE654E164E170E080E090E00E94E2
:1007E0001C010E94280160E271E085EE92E00E9407
:1007F000351D0E94B30166E371E085EE92E00E9430
:10080000351D69E471E085EE92E01F910F91FF9034
:10081000EF90DF90CF900C94351D8F929F92AF9206
:10082000BF92CF92DF92EF92FF920F931F93CF93DD
:10083000DF932CE0AC01249FC001259F900D112473
:100840008C0101571D4FEC01C15ADD4F580154E096
:10085000A50EB11C4E0184E0880E911C6801E8E0F1
:10086000CE0ED11C7E01F8E0EF0EF11CF801608184
:10087000718182819381288139814A815B810E94C3
:1008800093188111F3CFF501608171818281938189
:10089000F40120813181428153810E94931881119A
:1008A000E5CFF6016081718182819381F70120811A
:1008B0003181428153810E9493188111D7CFDF91FA
:1008C000CF911F910F91FF90EF90DF90CF90BF904D
:1008D000AF909F908F90089580E090E00E940D046B
:1008E00081E090E00E940D0482E090E00E940D04FF
:1008F00083E090E00C940D04CF92DF92EF92FF9290
:100900000F931F93CF93DF9380E090E0A0E8BFE3C5
:1009100080932B0290932C02A0932D02B0932E0271
:10092000C0E0D0E0C12CD12C80EEE82E81ECF82E76
:1009300000E010E02FE733E4B901A801CE010E94E6
:10094000EA012196C430D10569F7DF91CF911F915B
:100950000F91FF90EF90DF90CF900C946C04CF92AA
:10096000DF92EF92FF920F931F93CF93DF9380E07C
:1009700090E0A0E8BFE380932B0290932C02A09319
:100980002D02B0932E02C0E0D0E0C12CD12C88E41F
:10099000E82E82ECF82E00E010E02FE733E4B901F6
:1009A000A801CE010E94EA012196C430D10569F761
:1009B000DF91CF911F910F91FF90EF90DF90CF903B
:1009C0000C946C04CF92DF92EF92FF920F931F93DF
:1009D000CF93DF9340E050E060E870E440932B0257
:1009E00050932C0260932D0270932E02EC012097FD
:1009F00009F4E9C16091B7027091B8028091B9021F
:100A00009091BA0220E030E0A9010E949318C12C15
:100A1000D12C10EFE12E11ECF12E00E010E0980146
:100A200040E050E068E772E48111EAC083E090E0C2
:100A30000E94EA010E946C04C12CD12C58E4E52EDE
:100A400052ECF52E00E010E020EA31E44FE65FE0E2
:100A500060E872E480E090E00E94EA0108E11EEAAA
:100A600023E632E445E150EC66E072E481E090E098
:100A70000E94EA0100E010E020EA31E44FE65FE086
:100A800060E872E482E090E00E94EA01C12CD12C7F
:100A900060EFE62E61ECF62E08E11EEA23E632E472
:100AA00045E150EC66E072E483E090E00E94EA01E8
:100AB0000E946C04C12CD12C78E4E72E72ECF72E46
:100AC00008E11EEA23E632E445E150EC66E072E418
:100AD00083E090E00E94EA010E946C0400E010E0D4
:100AE00020EA31E44FE65FE060E872E480E090E005
:100AF0000E94EA0108E11EEA23E632E445E150ECF7
:100B000066E072E481E090E00E94EA0100E010E01B
:100B100020EA31E44FE65FE060E872E482E090E0D2
:100B20000E94EA0108E11EEA23E632E445E150ECC6
:100B300066E072E483E090E00E94EA010E946C04A7
:100B4000C12CD12CE0EFEE2EE1ECFE2E08E11EEAE6
:100B500023E632E445E150EC66E072E481E090E0A7
:100B60000E94EA010E946C04C12CD12CF8E4EF2E03
:100B7000F2ECFF2E00E010E0980140E050E068E762
:100B800072E480E090E00E94EA01C12CD12CA0EF39
:100B9000EA2EA1ECFA2E00E010E0980140E050E0CF
:100BA00068E772E481E090E00E94EA01C12CD12C58
:100BB000B8E4EB2EB2ECFB2E00E010E020E232E4D1
:100BC00040E050E068E772E482E090E00E94EA01D1
:100BD00000E010E020E232E440E050E068E772E438
:100BE00083E090E00E94EA010E946C0400E010E0C3
:100BF000980140E050E068E772E481E090E0DDC0F9
:100C000080E090E00E94EA010E946C0408E11EEA84
:100C100023E632E445E150EC66E072E480E090E0E7
:100C20000E94EA01C12CD12C88E4E82E82ECF82E37
:100C300000E010E020EA31E44FE65FE060E872E4B3
:100C400081E090E00E94EA0108E11EEA23E632E436
:100C500045E150EC66E072E482E090E00E94EA0137
:100C600000E010E020EA31E44FE65FE060E872E483
:100C700083E090E00E94EA010E946C0408E11EEA11
:100C800023E632E445E150EC66E072E480E090E077
:100C90000E94EA010E946C0408E11EEA23E632E4A5
:100CA00045E150EC66E072E480E090E00E94EA01E9
:100CB00000E010E020EA31E44FE65FE060E872E433
:100CC00081E090E00E94EA0108E11EEA23E632E4B6
:100CD00045E150EC66E072E482E090E00E94EA01B7
:100CE00000E010E020EA31E44FE65FE060E872E403
:100CF00083E090E00E94EA010E946C04C12CD12C98
:100D000090EFE92E91ECF92E08E11EEA23E632E499
:100D100045E150EC66E072E482E090E00E94EA0176
:100D20000E946C04C12CD12C28E4E22E22ECF22E7D
:100D300000E010E020E232E440E050E068E772E4D6
:100D400080E090E00E94EA0100E010E020E232E45E
:100D500040E050E068E772E481E090E00E94EA0140
:100D6000C12CD12C30EFE32E31ECF32E00E010E05B
:100D7000980140E050E068E772E482E090E00E9471
:100D8000EA01C12CD12C48E4E42E42ECF42E00E020
:100D900010E0980140E050E068E772E483E090E002
:100DA0000E94EA010E946C0400E010E0980140E01B
:100DB00050E068E772E482E090E00E94EA010E945D
:100DC0006C04219714CEDF91CF911F910F91FF906A
:100DD000EF90DF90CF900895CF92DF92EF92FF9245
:100DE0000F931F93CF93DF9340E050E060E870E4EF
:100DF00040932B0250932C0260932D0270932E028D
:100E0000EC01209709F4E9C16091AB027091AC024A
:100E10008091AD029091AE0220E030E0A9010E94E5
:100E20009318C12CD12C10EFE12E11ECF12E00E023
:100E300010E0980140E050E068E772E48111DEC004
:100E400082E090E00E94EA010E946C04C12CD12C47
:100E500078E4E72E72ECF72E08E11EEA23E632E48E
:100E600045E150EC66E072E480E090E00E94EA0127
:100E700000E010E020EA31E44FE65FE060E872E471
:100E800081E090E00E94EA01C12CD12CE0EFEE2E2F
:100E9000E1ECFE2E08E11EEA23E632E445E150ECE7
:100EA00066E072E482E090E00E94EA01C12CD12C5D
:100EB000F8E4EF2EF2ECFF2E00E010E020EA31E43F
:100EC0004FE65FE060E872E483E090E00E94EA01B0
:100ED0000E946C0408E11EEA23E632E445E150EC8E
:100EE00066E072E482E090E00E94EA010E946C04F5
:100EF00008E11EEA23E632E445E150EC66E072E4E4
:100F000080E090E00E94EA0100E010E020EA31E495
:100F10004FE65FE060E872E481E090E00E94EA0161
:100F200008E11EEA23E632E445E150EC66E072E4B3
:100F300082E090E00E94EA0100E010E020EA31E463
:100F40004FE65FE060E872E483E090E00E94EA012F
:100F50000E946C04C12CD12CA0EFEA2EA1ECFA2E39
:100F600008E11EEA23E632E445E150EC66E072E473
:100F700080E090E00E94EA010E946C0400E010E032
:100F8000980140E050E068E772E480E090E00E9461
:100F9000EA01C12CD12CB8E4EB2EB2ECFB2E00E020
:100FA00010E0980140E050E068E772E481E090E0F2
:100FB0000E94EA0100E010E020E232E440E050E06C
:100FC00068E772E482E090E00E94EA0100E010E04D
:100FD00020E232E440E050E068E772E483E090E031
:100FE0000E94EA010E946C0400E010E0980140E0D9
:100FF00050E068E772E480E090E0E9C081E090E0D2
:101000000E94EA010E946C04C12CD12C88E4E82ED5
:1010100082ECF82E00E010E020EA31E44FE65FE0D9
:1010200060E872E480E090E00E94EA01C12CD12CDB
:1010300090EFE92E91ECF92E08E11EEA23E632E466
:1010400045E150EC66E072E481E090E00E94EA0144
:10105000C12CD12C28E4E22E22ECF22E00E010E08C
:1010600020EA31E44FE65FE060E872E482E090E07D
:101070000E94EA0108E11EEA23E632E445E150EC71
:1010800066E072E483E090E00E94EA010E946C0452
:1010900008E11EEA23E632E445E150EC66E072E442
:1010A00081E090E00E94EA010E946C0400E010E000
:1010B00020EA31E44FE65FE060E872E480E090E02F
:1010C0000E94EA0108E11EEA23E632E445E150EC21
:1010D00066E072E481E090E00E94EA0100E010E046
:1010E00020EA31E44FE65FE060E872E482E090E0FD
:1010F0000E94EA0108E11EEA23E632E445E150ECF1
:1011000066E072E483E090E00E94EA010E946C04D1
:10111000C12CD12C30EFE32E31ECF32E08E11EEA86
:1011200023E632E445E150EC66E072E483E090E0CF
:101130000E94EA010E946C04C12CD12C48E4E42EE8
:1011400042ECF42E00E010E020E232E440E050E017
:1011500068E772E480E090E00E94EA0100E010E0BD
:1011600020E232E440E050E068E772E481E090E0A1
:101170000E94EA0100E010E0980140E050E068E7DA
:1011800072E482E090E00E94EA01C12CD12C50EF81
:10119000E52E51ECF52E00E010E0980140E050E023
:1011A00068E772E483E090E00E94EA010E946C0428
:1011B000C12CD12C68E4E62E62ECF62E00E010E0A3
:1011C000980140E050E068E772E483E090E00E941C
:1011D000EA010E946C04219714CEDF91CF911F91F8
:1011E0000F91FF90EF90DF90CF9008954F925F9214
:1011F0006F927F928F929F92AF92BF92CF92DF9227
:10120000EF92FF920F931F93CF93DF9340E050E054
:1012100060E071E440932B0250932C0260932D0206
:1012200070932E02EC01412C512CE0E46E2E762CB2
:101230004A015B01209709F455C16091AB0270919E
:10124000AC028091AD029091AE0220E030E0A901A5
:101250000E949318C12CD12C60EFE62E61ECF62E83
:1012600000E010E0980140E050E068E772E481118E
:101270009AC082E090E00E94EA010E946C0400E0C3
:1012800010E020EA32E440E050E068E772E482E0F7
:1012900090E00E94EA010E946C04C12CD12C38E439
:1012A000E32E32ECF32E00E010E020EA32E440E0DE
:1012B00050E068E772E482E090E00E94EA010E9458
:1012C0006C0440922B0250922C0260922D0270927C
:1012D0002E0200E010E0980140E050E068E772E480
:1012E00080E090E00E94EA0100E010E020EA32E4B1
:1012F00040E050E068E772E481E090E00E94EA019B
:1013000000E010E020E232E440E050E068E772E400
:1013100082E090E00E94EA0100E010E020E232E486
:1013200040E050E068E772E483E090E00E94EA0168
:101330000E946C0480922B0290922C02A0922D02AB
:10134000B0922E02C12CD12C40EFE42E41ECF42EB1
:1013500000E010E020EA32E440E050E068E772E4A8
:1013600081E090E00E94EA010E946C0400E010E03D
:10137000980140E050E068E772E481E090E00E946C
:10138000EA010E946C04C12CD12C58E4E52E52ECE9
:10139000F52E00E010E0980140E050E068E772E4CC
:1013A00081E090E099C080E090E00E94EA010E9414
:1013B0006C0400E010E020EA32E440E050E068E72E
:1013C00072E480E090E00E94EA010E946C04C12C6B
:1013D000D12C88E4E82E82ECF82E00E010E020EA20
:1013E00032E440E050E068E772E480E090E00E9480
:1013F000EA010E946C0440922B0250922C026092EF
:101400002D0270922E0200E010E020E232E440E073
:1014100050E068E772E480E090E00E94EA0100E0BA
:1014200010E020E232E440E050E068E772E481E05E
:1014300090E00E94EA0100E010E0980140E050E0F6
:1014400068E772E482E090E00E94EA0100E010E0C8
:1014500020EA32E440E050E068E772E483E090E0A4
:101460000E94EA010E946C0480922B0290922C024E
:10147000A0922D02B0922E02C12CD12C90EFE92E19
:1014800091ECF92E00E010E020EA32E440E050E078
:1014900068E772E483E090E00E94EA010E946C0435
:1014A00000E010E0980140E050E068E772E483E07B
:1014B00090E00E94EA010E946C04C12CD12C28E427
:1014C000E22E22ECF22E00E010E0980140E050E025
:1014D00068E772E483E090E00E94EA010E946C04F5
:1014E0002197A8CEDF91CF911F910F91FF90EF90A0
:1014F000DF90CF90BF90AF909F908F907F906F9034
:101500005F904F9008954F925F926F927F928F926B
:101510009F92AF92BF92CF92DF92EF92FF920F9382
:101520001F93CF93DF9340E050E060E071E440937D
:101530002B0250932C0260932D0270932E02EC012B
:10154000412C512CE0E46E2E762C4A015B01209751
:1015500009F455C16091B7027091B8028091B90247
:101560009091BA0220E030E0A9010E949318C12CAA
:10157000D12C60EFE62E61ECF62E00E010E0980131
:1015800040E050E068E772E481119AC083E090E0A7
:101590000E94EA010E946C0400E010E020EA32E4BC
:1015A00040E050E068E772E483E090E00E94EA01E6
:1015B0000E946C04C12CD12C38E4E32E32ECF32EC3
:1015C00000E010E020EA32E440E050E068E772E436
:1015D00083E090E00E94EA010E946C0440922B029A
:1015E00050922C0260922D0270922E0200E010E0C8
:1015F00020EA32E440E050E068E772E480E090E006
:101600000E94EA0100E010E0980140E050E068E745
:1016100072E481E090E00E94EA0100E010E020E244
:1016200032E440E050E068E772E482E090E00E943B
:10163000EA0100E010E020E232E440E050E068E738
:1016400072E483E090E00E94EA010E946C048092C0
:101650002B0290922C02A0922D02B0922E02C12C4D
:10166000D12C40EFE42E41ECF42E00E010E020EA13
:1016700032E440E050E068E772E480E090E00E94ED
:10168000EA010E946C0400E010E0980140E050E0A4
:1016900068E772E480E090E00E94EA010E946C0436
:1016A000C12CD12C58E4E52E52ECF52E00E010E0D0
:1016B000980140E050E068E772E480E090E099C073
:1016C00081E090E00E94EA010E946C0400E010E0DA
:1016D00020EA32E440E050E068E772E481E090E024
:1016E0000E94EA010E946C04C12CD12C88E4E82EEF
:1016F00082ECF82E00E010E020EA32E440E050E016
:1017000068E772E481E090E00E94EA010E946C04C4
:1017100040922B0250922C0260922D0270922E0267
:1017200000E010E020E232E440E050E068E772E4DC
:1017300080E090E00E94EA0100E010E020E232E464
:1017400040E050E068E772E481E090E00E94EA0146
:1017500000E010E020EA32E440E050E068E772E4A4
:1017600082E090E00E94EA0100E010E0980140E091
:1017700050E068E772E483E090E00E94EA010E9492
:101780006C0480922B0290922C02A0922D02B092B7
:101790002E02C12CD12C90EFE92E91ECF92E00E015
:1017A00010E020EA32E440E050E068E772E482E0D2
:1017B00090E00E94EA010E946C0400E010E09801B1
:1017C00040E050E068E772E482E090E00E94EA01C5
:1017D0000E946C04C12CD12C28E4E22E22ECF22EC3
:1017E00000E010E0980140E050E068E772E482E039
:1017F00090E00E94EA010E946C042197A8CEDF913C
:10180000CF911F910F91FF90EF90DF90CF90BF90FD
:10181000AF909F908F907F906F905F904F900895C2
:101820008F929F92AF92BF92CF92DF92EF92FF92F0
:101830000F931F93CF93DF93CFE8D2E0C880D98076
:10184000EA80FB80BC01990F880B990B0E9442191A
:101850004B015C019B01AC01C701B6010E94B517A9
:10186000AB01BC01C12CD12C8FE7E82E83E4F82E0C
:101870009701860180E090E00E94EA012C853D8579
:101880004E855F85C501B4010E94B517AB01BC014F
:101890009701860181E090E00E94EA01688D798DD0
:1018A0008A8D9B8DA50194010E94B417AB01BC01E8
:1018B0009701860182E090E00E94EA016CA17DA17F
:1018C0008EA19FA1A50194010E94B417AB01BC0198
:1018D0009701860183E090E00E94EA01DF91CF91B9
:1018E0001F910F91FF90EF90DF90CF90BF90AF903E
:1018F0009F908F900C946C048F929F92AF92BF92A6
:10190000CF92DF92EF92FF920F931F93CF93DF93CB
:10191000CFE8D2E0C880D980EA80FB80BC01990F73
:10192000880B990B0E9442194B015C019B01AC0191
:10193000C701B6010E94B417AB01BC01C12CD12C68
:101940008FE7E82E83E4F82E9701860180E090E08F
:101950000E94EA016C857D858E859F85A501940195
:101960000E94B417AB01BC019701860181E090E0B1
:101970000E94EA01288D398D4A8D5B8DC501B40125
:101980000E94B517AB01BC019701860182E090E08F
:101990000E94EA012CA13DA14EA15FA1C501B401A5
:1019A0000E94B517AB01BC019701860183E090E06E
:1019B0000E94EA01DF91CF911F910F91FF90EF906C
:1019C000DF90CF90BF90AF909F908F900C946C045D
:1019D0002F923F924F925F926F927F928F929F923F
:1019E000AF92BF92CF92DF92EF92FF920F931F932D
:1019F000CF93DF9300D000D000D0CDB7DEB71C016D
:101A000080E090E0A0E8BFE380932B0290932C024B
:101A1000A0932D02B0932E026091B7027091B8028C
:101A20008091B9029091BA0220E030E0A9010E94B1
:101A30009318811191C08FE090E00E947C0C8091FE
:101A4000A7029091A802A091A902B091AA0289834D
:101A50009A83AB83BC838090AB029090AC02A09041
:101A6000AD02B090AE024090AF025090B0026090D4
:101A7000B1027090B20280E090E0A0E4B0E4809304
:101A80002B0290932C02A0932D02B0932E021E8263
:101A90001D82AD81BE81A215B30544F5C12CD12CA8
:101AA00098E4E92E92E4F92E00E010E020EA31E417
:101AB0004FE65FE060E872E482E090E00E94EA01B5
:101AC0000E946C0408E11EEA23E632E445E150EC92
:101AD00066E072E482E090E00E94EA010E946C04F9
:101AE0008D819E8101969E838D83D3CF7301620188
:101AF0009501840149815A816B817C8182E090E06B
:101B00000E94EA010E946C0480E090E0A0E8BFE33C
:101B100080932B0290932C02A0932D02B0932E025F
:101B20008FE090E026960FB6F894DEBF0FBECDBFD3
:101B3000DF91CF911F910F91FF90EF90DF90CF90A9
:101B4000BF90AF909F908F907F906F905F904F90DD
:101B50003F902F900C94100C8FE090E00E94100C9E
:101B600080918F0290919002A0919102B091920287
:101B700089839A83AB83BC83809093029090940274
:101B8000A0909502B09096024090970250909802D3
:101B90006090990270909A0280E090E0A0E4B0E436
:101BA00080932B0290932C02A0932D02B0932E02CF
:101BB0001E821D82AD81BE81A215B30544F5C12CE4
:101BC000D12C88E4E82E82E4F82E00E010E020EA30
:101BD00031E44FE65FE060E872E480E090E00E946C
:101BE000EA010E946C0408E11EEA23E632E445E1C2
:101BF00050EC66E072E480E090E00E94EA010E940E
:101C00006C048D819E8101969E838D83D3CF730159
:101C100062019501840149815A816B817C8180E058
:101C200090E00E94EA010E946C0480E090E0A0E84D
:101C3000BFE380932B0290932C02A0932D02B093CC
:101C40002E028FE090E026960FB6F894DEBF0FBE0E
:101C5000CDBFDF91CF911F910F91FF90EF90DF905B
:101C6000CF90BF90AF909F908F907F906F905F903C
:101C70004F903F902F900C947C0C2F923F924F925C
:101C80005F926F927F928F929F92AF92BF92CF920C
:101C9000DF92EF92FF920F931F93CF93DF9300D0C9
:101CA00000D000D0CDB7DEB71C0180E090E0A0E806
:101CB000BFE380932B0290932C02A0932D02B0934C
:101CC0002E026091B7027091B8028091B902909192
:101CD000BA0220E030E0A9010E949318811197C058
:101CE0008FE090E00E947C0C8091A7029091A80266
:101CF000A091A902B091AA0289839A83AB83BC8385
:101D00008090AB029090AC02A090AD02B090AE0279
:101D10004090AF025090B0026090B1027090B20259
:101D200080E090E0A0E4B0E480932B0290932C023A
:101D3000A0932D02B0932E021E821D82AD81BE8122
:101D4000A215B30574F5C12CD12C2CE5E22E22E4AA
:101D5000F22E00E010E020EA32E440E050E060E0E3
:101D600072E482E090E00E94EA010E946C04C12CBF
:101D7000D12C30E2E32E31E4F32E00E010E020EA33
:101D800032E440E050E060E072E482E090E00E94E3
:101D9000EA010E946C048D819E8101969E838D8351
:101DA000CDCF730162019501840149815A816B8114
:101DB0007C8182E090E00E94EA010E946C0480E055
:101DC00090E0A0E8BFE380932B0290932C02A093B5
:101DD0002D02B0932E028FE090E026960FB6F89475
:101DE000DEBF0FBECDBFDF91CF911F910F91FF904E
:101DF000EF90DF90CF90BF90AF909F908F907F90AB
:101E00006F905F904F903F902F900C94100C8FE04C
:101E100090E00E94100C80918F0290919002A0910E
:101E20009102B091920289839A83AB83BC838090A4
:101E3000930290909402A0909502B09096024090E8
:101E40009702509098026090990270909A0280E0F8
:101E500090E0A0E4B0E480932B0290932C02A09336
:101E60002D02B0932E021E821D82AD81BE81A2156D
:101E7000B30574F5C12CD12C8CE5E82E82E4F82E44
:101E800000E010E020EA32E440E050E060E072E47C
:101E900080E090E00E94EA010E946C04C12CD12CE9
:101EA00090E2E92E91E4F92E00E010E020EA32E41D
:101EB00040E050E060E072E480E090E00E94EA01DF
:101EC0000E946C048D819E8101969E838D83CDCF6F
:101ED000730162019501840149815A816B817C8182
:101EE00080E090E00E94EA010E946C0480E090E0B3
:101EF000A0E8BFE380932B0290932C02A0932D02C5
:101F0000B0932E028FE090E026960FB6F894DEBFD5
:101F10000FBECDBFDF91CF911F910F91FF90EF903A
:101F2000DF90CF90BF90AF909F908F907F906F90F9
:101F30005F904F903F902F900C947C0C8F929F92CB
:101F4000AF92BF92CF92DF92EF92FF920F931F93C7
:101F5000CF93DF93CFE8D2E0C884D984EA84FB84AE
:101F6000BC01990F880B990B0E9442194B015C012F
:101F70009B01AC01C701B6010E94B4176B017C0143
:101F800000E010E02FE733E4B901A80180E090E021
:101F90000E94EA012C893D894E895F89C501B401FF
:101FA0000E94B5176B017C0100E010E02FE733E4DD
:101FB000B901A80181E090E00E94EA0168A179A13D
:101FC0008AA19BA1A50194010E94B4176B017C0119
:101FD00000E010E02FE733E4B901A80182E090E0CF
:101FE0000E94EA012CA53DA54EA55FA5C501B4013F
:101FF0000E94B5176B017C0100E010E02FE733E48D
:10200000B901A80183E090E00E94EA01DF91CF913D
:102010001F910F91FF90EF90DF90CF90BF90AF9006
:102020009F908F900C946C048F929F92AF92BF926E
:10203000CF92DF92EF92FF920F931F93CF93DF9394
:10204000CFE8D2E0C884D984EA84FB84BC01990F2C
:10205000880B990B0E9442194B015C019B01AC015A
:10206000C701B6010E94B5176B017C0100E010E0CA
:102070002FE733E4B901A80180E090E00E94EA0173
:102080006C897D898E899F89A50194010E94B4176E
:102090006B017C0100E010E02FE733E4B901A801F7
:1020A00081E090E00E94EA0128A139A14AA15BA148
:1020B000C501B4010E94B5176B017C0100E010E07E
:1020C0002FE733E4B901A80182E090E00E94EA0121
:1020D0006CA57DA58EA59FA5A50194010E94B417AE
:1020E0006B017C0100E010E02FE733E4B901A801A7
:1020F00083E090E00E94EA01DF91CF911F910F9160
:10210000FF90EF90DF90CF90BF90AF909F908F9017
:102110000C946C042F923F924F925F926F927F9239
:102120008F929F92AF92BF92CF92DF92EF92FF92E7
:102130000F931F93CF93DF93EC010E947C0480E008
:1021400090E0A0E8BFE380932B0290932C02A09331
:102150002D02B0932E02C12CD12C4FE7E42E43E484
:10216000F42E00E010E028E732E4B901A80180E095
:1021700090E00E94EA0100E010E028E732E4B901B3
:10218000A80181E090E00E94EA0100E010E028E769
:1021900032E4B901A80182E090E00E94EA0100E087
:1021A00010E028E732E4B901A80183E090E00E9442
:1021B000EA010E946C04C12CD12C5CE8E52E52ECA3
:1021C000F52E00E010E028E732E4B901A80180E034
:1021D00090E00E94EA0100E010E028E732E4B90153
:1021E000A80181E090E00E94EA0100E010E028E709
:1021F00032E4B901A80182E090E00E94EA0100E027
:1022000010E028E732E4B901A80183E090E00E94E1
:10221000EA010E946C0480E090E0A0E0B0E48093CA
:102220002B0290932C02A0932D02B0932E028EE1EC
:1022300090E00E949E0F1E01D7FF03C083E0280E8E
:10224000311C35942794359427944E01D7FF03C051
:102250009FEF891A990A95948794A12CB12C412C4F
:10226000512C20EC622E20E4722EAC16BD060CF030
:1022700078C02A143B0464F480E090E0A0E8B0E465
:1022800080932B0290932C02A0932D02B0932E02E8
:102290008A149B0444F440922B0250922C026092C8
:1022A0002D0270922E02C12CD12C8FE7E82E83E4F0
:1022B000F82E00E010E028E232E4B701A60180E049
:1022C00090E00E94EA0100E010E024EA32E4B70165
:1022D000A60181E090E00E94EA0100E010E028E21F
:1022E00032E4B701A60182E090E00E94EA0100E03A
:1022F00010E024EA32E4B701A60183E090E00E94F6
:10230000EA010E946C0400E010E024EA32E4B70124
:10231000A60180E090E00E94EA0100E010E028E2DF
:1023200032E4B701A60181E090E00E94EA0100E0FA
:1023300010E024EA32E4B701A60182E090E00E94B6
:10234000EA0100E010E028E232E4B701A60183E0F0
:1023500090E00E94EA010E946C049FEFA91AB90A5A
:1023600084CF80E090E0A0E0B0E480932B029093D3
:102370002C02A0932D02B0932E028EE190E0DF910B
:10238000CF911F910F91FF90EF90DF90CF90BF9072
:10239000AF909F908F907F906F905F904F903F9005
:1023A0002F900C94141067E671E085EE92E00E9485
:1023B000351D0E94AF0460ED77E080E090E00E9460
:1023C000B61D6DE671E085EE92E00E94351D85E058
:1023D00090E00E94F60860ED77E080E090E00E94D7
:1023E000B61D6AE771E085EE92E00E94351D85E03A
:1023F00090E00E94830A60ED77E080E090E00E9428
:10240000B61D64E871E085EE92E00E94351D85E01E
:1024100090E00E94E20460ED77E080E090E00E94AE
:10242000B61D6EE871E085EE92E00E94351D85E0F4
:1024300090E00E94EC0660ED77E080E090E00E9482
:10244000B61D69E971E085EE92E00E94351D83E0DA
:1024500090E00E94E80C60ED77E080E090E00E9460
:10246000B61D69E971E085EE92E00E94351D83E0BA
:1024700090E00E943D0E60ED77E080E090E00E94E9
:10248000B61D63EA71E085EE92E00E94351D8AE098
:1024900090E00E948A1060ED77E080E090E00E947A
:1024A000B61D6EEA71E085EE92E00E94351D0E9435
:1024B0007C0468E873E180E090E00C94B61D2F92F4
:1024C0003F924F925F926F927F928F929F92AF92C4
:1024D000BF92CF92DF92EF92FF920F931F93CF9311
:1024E000DF93CDB7DEB76C970FB6F894DEBF0FBEA3
:1024F000CDBF1C017E876D87588B4F8709831A8358
:102500002B833C83CD82DE82EF82F88689869A8691
:10251000AB86BC8669817A818B819C8120E030E02A
:10252000A9010E94391A87FD07C0C12CD12C90E85F
:10253000E92E9FE3F92E06C0C12CD12C80E8E82EAD
:102540008FEBF82E69817A818B819C818D809E80B2
:10255000AF80B8849B01AC010E94461A2B013C015C
:10256000A5019401C501B4010E94461A9B01AC016A
:10257000C301B2010E94B5170E94B91A9B01AC01B8
:10258000C701B6010E94461A6B017C0120E030E0D1
:102590004CED51E40E94B4172B013C0169857A850A
:1025A0008B859C85A30192010E943418698B7A8BDC
:1025B0008B8B9C8BA3019201C301B2010E94461A2E
:1025C0002B013C0189849A84AB84BC8469857A851B
:1025D0008B859C859B01AC010E94461AA301920148
:1025E0000E94B5170E94B91A6D8B7E8B8F8B988FC6
:1025F00020E034E54AE355E4C301B2010E94B41778
:10260000698F7A8F8B8F9C8FA5019401C501B401CE
:102610000E94461A9B01AC01698D7A8D8B8D9C8D31
:102620000E94B51720E030E040E05FE30E94461AC8
:1026300020E030E04CE552E40E9498182D893E8954
:102640004F89588D0E9498180E94A3179B01AC01D6
:1026500069897A898B899C890E94B517F101608309
:1026600071838283938389849A84AB84BC84A3011D
:10267000920160E07DE18DE096E40E94B4172B01A9
:102680003C01A5019401C501B4010E94461A9B01B9
:10269000AC01C301B2010E94B41720E030E040E079
:1026A0005FE30E94461A20E030E04CE552E40E94CD
:1026B000981820E030E04BE952E40E9498180E94FC
:1026C000A317ED85FE85608371838283938320E069
:1026D00030E0A901C701B6010E94391A87FD09C07F
:1026E00029813A814B815C816D817E818F819885C2
:1026F0000EC049815A816B817C818D819E81AF8121
:10270000B8859A01AB015058BC01CD0190580E9488
:102710003418EF85F8896083718382839383F10194
:1027200060817181828193812AED3FE049E450E428
:102730000E94981820E030E044E353E40E94461AD7
:10274000F1016083718382839383ED85FE856081CF
:102750007181828193812AED3FE049E450E40E9437
:10276000981820E030E044E353E40E94461AED85D7
:10277000FE856083718382839383EF85F88960810E
:102780007181828193812AED3FE049E450E40E9407
:10279000981820E030E044E353E40E94461AEF85A5
:1027A000F88960837183828393836C960FB6F89463
:1027B000DEBF0FBECDBFDF91CF911F910F91FF9074
:1027C000EF90DF90CF90BF90AF909F908F907F90D1
:1027D0006F905F904F903F902F9008954F925F922F
:1027E0006F927F928F929F92AF92BF92CF92DF9221
:1027F000EF92FF920F931F93CF93DF93EC014A0167
:102800005B0128013901009799F4A501940160E06A
:1028100070E084EB92E40E94B4174B015C0120E06D
:1028200030E044EB52E4C701B6010E94B5171FC067
:1028300001970297F8F420E030E044EB52E4C50140
:10284000B4010E94B5174B015C01A301920160E045
:1028500070E084E393E40E94B4172B013C01A701CC
:10286000960160E070E084EB92E40E94B4176B0183
:102870007C0103C0C330D10541F2C501B4010E94FF
:102880000A1929E02C9F80012D9F100D1124C801E9
:102890008B5F9D4F0E944717C301B2010E940A1926
:1028A000C801885F9D4F0E944717C701B6010E946B
:1028B0000A19C801855F9D4FDF91CF911F910F913C
:1028C000FF90EF90DF90CF90BF90AF909F908F9050
:1028D0007F906F905F904F900C9447172F923F928C
:1028E0004F925F926F927F928F929F92AF92BF9220
:1028F000CF92DF92EF92FF920F931F93CF93DF93CC
:1029000000D000D0CDB7DEB778946FE2662E62E0DB
:10291000762E1C821B827A82698200E010E02B8076
:102920003C80220C331C2B813C81220E331E210162
:102930007101E00EF11E9701220F331F220F331F8A
:10294000A90141575D4F6A01FA016081718182815D
:102950009381A901415A5D4F7A01FA0120813181A9
:10296000428153810E94B41720E030E0A9010E9407
:10297000391AF601181674F460817181828193818D
:10298000F70120813181428153810E94B4176B018C
:102990007C0111C06081718182819381F701208166
:1029A0003181428153810E94B4176B017C01F7FA97
:1029B000F094F7F8F094E981FA8181909190A190D8
:1029C000B190FA83E98320E030E0A901C501B401A8
:1029D0000E94391AA501940118160CF05058C7012D
:1029E000B6010E94391A87FD1BC07201E00EF11E6C
:1029F000C701880F991F880F991F9C0121573D4FD0
:102A00007901F9012081318142815381C501B401ED
:102A10000E94B517F701608371838283938315C089
:102A2000C201800F911F880F991F880F991FFC0109
:102A3000E15AFD4F4081518162817381FC01E15770
:102A4000FD4F40835183628373830F5F1F4F0330B9
:102A5000110509F06DCF4CE02B813C81429FF001C4
:102A6000439FF00D1124E157FD4F80849184A2848F
:102A7000B384C480D580E680F780008111812281F3
:102A8000338149EF51E06DEF71E081E092E00E9407
:102A90005F12C090F901D090FA01E090FB01F09034
:102AA000FC010091FD011091FE012091FF01309188
:102AB0000002409101025091020260910302709164
:102AC00004028B819C810E94EE138B819C81019674
:102AD0009C838B839CE0690E711CEB81FC81349795
:102AE00009F019CF8091290290912A0201969093C2
:102AF0002A02809329020F900F900F900F90DF9180
:102B0000CF911F910F91FF90EF90DF90CF90BF90EA
:102B1000AF909F908F907F906F905F904F903F907D
:102B20002F9008950F931F93CF93DF93C5E0D2E0CA
:102B300009E212E0CE010E946F16CE0103960E94B8
:102B40006F16CE0106960E946F1629960C171D0768
:102B500089F7DF91CF911F910F9108951F920F92E6
:102B60000FB60F9211242F933F934F935F936F9360
:102B70007F938F939F93AF93BF93EF93FF93809136
:102B8000C00287FF05C010928500109284001BC010
:102B90002091C002022E000C330B8091BF0290E006
:102BA0002817390784F48091C002082E000C990B75
:102BB000FC01EE0FFF1F8E0F9F1FFC01EF53FD4F17
:102BC000808186FD15C08091C0028F5F8093C00216
:102BD0002091C002022E000C330B8091BF0290E0C6
:102BE00028173907C4F48091C0028C3064F113C0F7
:102BF0008091C002082E000C990BFC01EE0FFF1F04
:102C00008E0F9F1FFC01EF53FD4F808160E08F739B
:102C10000E94921ED8CF80918400909185000496E6
:102C200080349C4918F480E49CE905C080918400BC
:102C300090918500049690938900809388008FEF8F
:102C40008093C0023BC02091840030918500809128
:102C5000C002082E000C990BFC01EE0FFF1F8E0F17
:102C60009F1FFC01EF53FD4F81819281820F931FC3
:102C700090938900809388008091C002082E000CF8
:102C8000990BFC01EE0FFF1F8E0F9F1FFC01EF53EE
:102C9000FD4F808186FF12C08091C002082E000C7B
:102CA000990BFC01EE0FFF1F8E0F9F1FFC01EF53CE
:102CB000FD4F808161E08F730E94921EFF91EF9122
:102CC000BF91AF919F918F917F916F915F914F9144
:102CD0003F912F910F900FBE0F901F901895FC0100
:102CE0009091BF029C30A0F481E0890F8093BF02D5
:102CF0009083892F90E0FC01EE0FFF1F8E0F9F1F26
:102D0000FC01EF53FD4F88EB9BE092838183089594
:102D10008FEF80830895DF92EF92FF920F931F93BE
:102D2000CF93DF93EC01D62E7A01890188818C3014
:102D300008F068C061E08D2D0E94561E8881E82F42
:102D4000F0E09F01220F331FE20FF31FEF53FD4FFF
:102D50009D2D9F732081207CD22ED92AD08220E203
:102D600032E02E193F0937FF02C02D5F3F4F3595E6
:102D7000279535952795298320E639E0201B310BCF
:102D800037FF02C02D5F3F4F359527953595279525
:102D90002A832CE0622F0E94131F289FB001112468
:102DA00040E050E09B01240F351FF901EE0FFF1F9B
:102DB0002E0F3F1FF901EF53FD4F908196FD16C076
:102DC0004F5F5F4F4C30510569F781110FC0109272
:102DD000800082E080938100109285001092840030
:102DE000B19A80916F00826080936F00E881F0E07B
:102DF000CF01880F991FE80FF91FEF53FD4F808116
:102E0000806480838881DF91CF911F910F91FF9023
:102E1000EF90DF90089520E639E040E252E00C9414
:102E20008B16FC0190819C3088F5818128E830E088
:102E3000281B310987FD3395220F331F220F331FC3
:102E40006217730784F0828148E552E0481B5109FC
:102E500087FD5395440F551F440F551F9B0146177F
:102E600057070CF49A0122503109220F331F4FB734
:102E7000F894892F90E0FC01EE0FFF1F8E0F9F1F2B
:102E8000FC01EF53FD4F328321834FBF0895AF9272
:102E9000BF92CF92DF92EF92FF920F931F93CF9347
:102EA000DF93EC01603282E078070CF03FC077FDE1
:102EB00006C0653B71052CF064EB70E002C060E079
:102EC00070E0898128E830E05901A81AB10887FD2F
:102ED000B394AA0CBB1CAA0CBB1C0B2C000CCC087A
:102EE000DD08072E000C880B990B2A8108E512E0FB
:102EF000021B110927FD1395000F111F000F111F51
:102F0000012E000C220B330B3F932F931F930F9333
:102F100014EBE12EF12C00E010E020E030E0A901FC
:102F20000E94C11E0F900F900F900F90CE01DF9165
:102F3000CF911F910F91FF90EF90DF90CF90BF90B6
:102F4000AF900C9411179F939F770E947D190F905B
:102F5000002042F49058A2EA2AED3FE049E450E410
:102F60000E94CC170C94FF195058BB27AA270E9427
:102F7000CC170C94FF190E94F11938F00E94F8192F
:102F800020F039F49F3F19F426F40C94C7190EF47D
:102F9000E095E7FB0C94C119E92F0E94101A58F331
:102FA000BA17620773078407950720F079F4A6F52E
:102FB0000C94321A0EF4E0950B2EBA2FA02D0B01B3
:102FC000B90190010C01CA01A0011124FF27591B6E
:102FD00099F0593F50F4503E68F11A16F040A22F74
:102FE000232F342F4427585FF3CF469537952795E5
:102FF000A795F0405395C9F77EF41F16BA0B620BE4
:10300000730B840BBAF09150A1F0FF0FBB1F661F2A
:10301000771F881FC2F70EC0BA0F621F731F841F6D
:1030200048F4879577956795B795F7959E3F08F093
:10303000B0CF9395880F08F09927EE0F9795879555
:1030400008950E94F11960F080E891E009F49EEF84
:103050000E94F81928F040E851E071F45EEF0CC0CE
:103060000C94C7190C94321AE92FE0780E94101AB8
:1030700040F3092E052AB1F32617370748075907E9
:1030800038F00E2E07F8E02569F0E025E0640AC06C
:10309000EF6307F8009407FADB01B9019D01DC0139
:1030A000CA01AD01EF930E94AF180E94FF190E9460
:1030B00064185F91552339F02BED3FE049E450FD52
:1030C00049EC0C94B5170895DF93DD27B92FBF772E
:1030D00040E85FE31616170648075B0718F4D92F78
:1030E0000E943E1A9F938F937F936F930E94F91AC9
:1030F000E8E6F0E00E94CA190E94FF192F913F9163
:103100004F915F910E94591ADD2351F09058A2EA25
:103110002AED3FE049EC5FE3D0785D270E94CC17B1
:10312000DF910C94FF190E949D1908F481E0089525
:103130000E94AC180C94FF190E94F81958F00E94D4
:10314000F11940F029F45F3F29F00C94C119511195
:103150000C94331A0C94C7190E94101A68F399231F
:10316000B1F3552391F3951B550BBB27AA27621783
:103170007307840738F09F5F5F4F220F331F441F90
:10318000AA1FA9F335D00E2E3AF0E0E832D09150C4
:103190005040E695001CCAF72BD0FE2F29D0660FB1
:1031A000771F881FBB1F261737074807AB07B0E8F4
:1031B00009F0BB0B802DBF01FF2793585F4F3AF0FA
:1031C0009E3F510578F00C94C1190C94331A5F3F5F
:1031D000E4F3983ED4F3869577956795B795F79580
:1031E0009F5FC9F7880F911D9695879597F9089568
:1031F000E1E0660F771F881FBB1F62177307840704
:10320000BA0720F0621B730B840BBA0BEE1F88F712
:10321000E09508950E9411196894B1110C94331A25
:1032200008950E94181A88F09F5798F0B92F99278F
:10323000B751B0F0E1F0660F771F881F991F1AF0A1
:10324000BA95C9F714C0B13091F00E94321AB1E0BA
:1032500008950C94321A672F782F8827B85F39F0B9
:10326000B93FCCF3869577956795B395D9F73EF43A
:1032700090958095709561957F4F8F4F9F4F0895E2
:10328000E89409C097FB3EF4909580957095619500
:103290007F4F8F4F9F4F9923A9F0F92F96E9BB27B6
:1032A0009395F695879577956795B795F111F8CF32
:1032B000FAF4BB0F11F460FF1BC06F5F7F4F8F4F9D
:1032C0009F4F16C0882311F096E911C0772321F093
:1032D0009EE8872F762F05C0662371F096E8862F2B
:1032E00070E060E02AF09A95660F771F881FDAF782
:1032F000880F9695879597F90895DF93CF931F933D
:103300000F938B01EC01E5E9F0E00E94CA190E94DD
:10331000FF199801AE018B01EC0160E070E080E8DC
:103320009FE30E94B4170E94B91A9801AE010F9151
:103330001F91CF91DF910C94591A990F0008550FE6
:10334000AA0BE0E8FEEF16161706E807F907C0F02B
:1033500012161306E407F50798F0621B730B840B33
:10336000950B39F40A2661F0232B242B252B21F40D
:1033700008950A2609F4A140A6958FEF811D811DAD
:10338000089597F99F6780E870E060E008959FEFE7
:1033900080EC0895DF93CF931F930F93FF92EF92EA
:1033A000DF927B018C01689406C0DA2EEF010E9447
:1033B000591AFE01E894A5912591359145915591B1
:1033C000A6F3EF010E94CC17FE019701A801DA9441
:1033D00069F7DF90EF90FF900F911F91CF91DF91F0
:1033E000089500240A94161617061806090608956B
:1033F00000240A9412161306140605060895092ED1
:103400000394000C11F4882352F0BB0F40F4BF2B3F
:1034100011F460FF04C06F5F7F4F8F4F9F4F08957F
:1034200057FD9058440F551F59F05F3F71F0479575
:10343000880F97FB991F61F09F3F79F0879508955A
:10344000121613061406551FF2CF4695F1DF08C079
:10345000161617061806991FF1CF86957105610596
:1034600008940895E894BB2766277727CB0197F93E
:1034700008950E949D1908F48FEF08959B01AC01F7
:1034800060E070E080E89FE30C9498180E94591A5D
:103490000C94FF190E94F11938F00E94F81920F0DD
:1034A000952311F00C94C1190C94C71911240C9494
:1034B000331A0E94101A70F3959FC1F3950F50E0D4
:1034C000551F629FF001729FBB27F00DB11D639FD6
:1034D000AA27F00DB11DAA1F649F6627B00DA11D7C
:1034E000661F829F2227B00DA11D621F739FB00D22
:1034F000A11D621F839FA00D611D221F749F332792
:10350000A00D611D231F849F600D211D822F762F2A
:103510006A2F11249F5750409AF0F1F088234AF007
:10352000EE0FFF1FBB1F661F771F881F9150504073
:10353000A9F79E3F510580F00C94C1190C94331AE1
:103540005F3FE4F3983ED4F3869577956795B795FA
:10355000F795E7959F5FC1F7FE2B880F911D969514
:10356000879597F9089519F416F40C94C7190C94DB
:10357000FD1A0E94181AB8F39923C9F3B6F39F579E
:10358000550B87FF0E940B1B0024A0E640EA900128
:1035900080585695979528F4805C660F771F881F92
:1035A00020F026173707480730F4621B730B840B93
:1035B000202931294A2BA6951794079420253125D7
:1035C0004A2758F7660F771F881F20F026173707FE
:1035D000480730F4620B730B840B200D311D411D25
:1035E000A09581F7B901842F9158880F96958795FA
:1035F00008959B01AC010C94461A9F3F31F0915005
:1036000020F4879577956795B795880F911D9695C6
:10361000879597F9089591505040660F771F881F3E
:10362000D2F70895FC01918D228D892F90E0805C66
:103630009F4F821B91098F7399270895FC01918DEB
:10364000828D981731F0828DE80FF11D858D90E005
:1036500008958FEF9FEF0895FC01918D828D98174B
:1036600061F0828DDF01A80FB11D5D968C91928D66
:103670009F5F9F73928F90E008958FEF9FEF089563
:10368000FC01538D448D252F30E0842F90E0821B68
:10369000930B541710F0CF960895019708958BEA75
:1036A0009CE1892B49F080E090E0892B29F00E9471
:1036B000AB1C81110C9400000895FC01848DDF0186
:1036C000A80FB11DA35ABF4F2C91848D90E0019695
:1036D0008F739927848FA689B7892C93A089B18984
:1036E0008C91837080648C93938D848D981306C025
:1036F0000288F389E02D80818F7D80830895EF9289
:10370000FF920F931F93CF93DF93EC0181E0888F9B
:103710009B8D8C8D981305C0E889F989808185FD82
:1037200026C0F62E0B8D10E00F5F1F4F0F73112771
:10373000E02E8C8DE8120CC00FB607FCFACFE8899A
:10374000F989808185FFF5CFCE010E945D1BF1CF05
:103750008B8DFE01E80FF11DE35AFF4FF0829FB7FA
:10376000F8940B8FEA89FB89808180620AC09FB739
:10377000F894EE89FF896083E889F98980818370F4
:10378000806480839FBF81E090E0DF91CF911F91A3
:103790000F91FF90EF900895CF93DF93EC01888D08
:1037A0008823C9F0EA89FB89808185FD05C0A88945
:1037B000B9898C9186FD0FC00FB607FCF5CF8081CB
:1037C00085FFF2CFA889B9898C9185FFEDCFCE0115
:1037D0000E945D1BE7CFDF91CF910895CF92DF92DA
:1037E000EF92FF921F93CF93DF93EC016A017B016D
:1037F000122FE889F98982E080834115514E6105D5
:103800007105B1F060E079E08DE390E0A7019601E9
:103810000E941F1FDA01C9010197A109B109B695DC
:10382000A795979587959C01211580E13807A8F009
:10383000E889F989108260E874E88EE190E0A701D8
:1038400096010E941F1FDA01C9010197A109B10960
:10385000B695A795979587959C01EC85FD85308356
:10386000EE85FF852083188EEC89FD891083EA8917
:10387000FB89808180618083EA89FB8980818860FF
:103880008083EA89FB89808180688083EA89FB895B
:1038900080818F7D8083DF91CF911F91FF90EF908A
:1038A000DF90CF9008951F920F920FB60F921124C0
:1038B0002F938F939F93EF93FF93E091F502F091F5
:1038C000F6028081E091FB02F091FC0282FD12C0C1
:1038D00090818091FE028F5F8F732091FF0282178B
:1038E00051F0E091FE02F0E0EB51FD4F958F809397
:1038F000FE0201C08081FF91EF919F918F912F91E6
:103900000F900FBE0F901F9018951F920F920FB639
:103910000F9211242F933F934F935F936F937F9355
:103920008F939F93AF93BF93EF93FF9385EE92E0B6
:103930000E945D1BFF91EF91BF91AF919F918F917D
:103940007F916F915F914F913F912F910F900FBE9B
:103950000F901F90189585EE92E00E94121B21E0B7
:10396000892B09F420E0822F0895E5EEF2E013821E
:10397000128288EE93E0A0E0B0E084839583A68372
:10398000B7838EEC91E09183808385EC90E09587FE
:10399000848784EC90E09787868780EC90E0918B19
:1039A000808B81EC90E0938B828B82EC90E0958B06
:1039B000848B86EC90E0978B868B118E128E138E03
:1039C000148E089508950E94F21D0E94E21C0E9428
:1039D0007803CFE4DBE10E94D3112097E1F30E944A
:1039E0004F1BF9CFCF92DF92EF92FF920F931F936D
:1039F000CF93DF936C017A018B01C0E0D0E0CE154C
:103A0000DF0581F0D8016D918D01D601ED91FC911A
:103A10000190F081E02DC6010995892B11F02196C6
:103A2000EECF7E01C701DF91CF911F910F91FF90E3
:103A3000EF90DF90CF9008956115710579F0FB014B
:103A400001900020E9F73197AF01461B570BDC01CD
:103A5000ED91FC910280F381E02D099480E090E0EB
:103A600008956CED71E00C941C1D0F931F93CF9380
:103A7000DF93EC010E941C1D8C01CE010E94311DC0
:103A8000800F911FDF91CF911F910F9108951F9289
:103A90000F920FB60F9211242F933F938F939F9302
:103AA000AF93BF938091830390918403A09185038A
:103AB000B09186033091820323E0230F2D3720F449
:103AC0000196A11DB11D05C026E8230F0296A11D78
:103AD000B11D209382038093830390938403A0936A
:103AE0008503B09386038091870390918803A0910A
:103AF0008903B0918A030196A11DB11D80938703AC
:103B000090938803A0938903B0938A03BF91AF91E8
:103B10009F918F913F912F910F900FBE0F901F900B
:103B200018953FB7F8948091870390918803A091EE
:103B30008903B0918A0326B5A89B05C02F3F19F0D1
:103B40000196A11DB11D3FBFBA2FA92F982F88271D
:103B5000820F911DA11DB11DBC01CD0142E0660F78
:103B6000771F881F991F4A95D1F708958F929F92CA
:103B7000AF92BF92CF92DF92EF92FF926B017C01E6
:103B80000E94911D4B015C01C114D104E104F104B8
:103B900001F10E94021F0E94911DDC01CB018819D6
:103BA0009909AA09BB09883E9340A105B10560F3B4
:103BB00021E0C21AD108E108F10888EE880E83E0FE
:103BC000981EA11CB11CC114D104E104F10419F721
:103BD000DBCFFF90EF90DF90CF90BF90AF909F90A2
:103BE0008F900895789484B5826084BD84B5816097
:103BF00084BD85B5826085BD85B5816085BDEEE6F5
:103C0000F0E0808181608083E1E8F0E010828081D3
:103C100082608083808181608083E0E8F0E0808141
:103C200081608083E1EBF0E0808184608083E0EB61
:103C3000F0E0808181608083EAE7F0E08081846049
:103C400080838081826080838081816080838081A5
:103C5000806880831092C1000895833081F028F439
:103C6000813099F08230A1F008958730A9F0883032
:103C7000B9F08430D1F4809180008F7D03C08091B1
:103C800080008F7780938000089584B58F7702C07D
:103C900084B58F7D84BD08958091B0008F7703C077
:103CA0008091B0008F7D8093B0000895CF93DF9313
:103CB00090E0FC01EE52FF4F2491FC01EA51FF4FCE
:103CC0008491882361F190E0880F991FFC01EC5FDB
:103CD000FE4FC591D491FC01E650FF4FA591B491E0
:103CE000611109C09FB7F894888120958223888349
:103CF000EC912E230BC0623061F49FB7F894888159
:103D0000322F309583238883EC912E2B2C939FBFE9
:103D100006C08FB7F894E8812E2B28838FBFDF91E0
:103D2000CF9108951F93CF93DF93282F30E0F901AF
:103D3000E254FF4F8491F901EE52FF4FD491F90103
:103D4000EA51FF4FC491CC23C1F0162F81110E947C
:103D50002D1EEC2FF0E0EE0FFF1FE650FF4FA59158
:103D6000B4919FB7F894111104C08C91D095D823C9
:103D700002C0EC91DE2BDC939FBFDF91CF911F91AE
:103D800008954F925F926F927F92AF92BF92CF92BF
:103D9000DF92EF92FF920F931F93CF93DF93CDB7F4
:103DA000DEB729013A019B01AC0124193509460906
:103DB000570989899A89AB89BC89BC01CD016A19E7
:103DC0007B098C099D090E94031FA80197012419F2
:103DD0003509460957090E94411FCA01B9016A0DF8
:103DE0007B1D8C1D9D1DDF91CF911F910F91FF9029
:103DF000EF90DF90CF90BF90AF907F906F905F90EB
:103E00004F9008950895DB018F939F930E94601F48
:103E1000BF91AF91A29F800D911DA39F900DB29F66
:103E2000900D11240895991B79E004C0991F9617ED
:103E300008F0961B881F7A95C9F780950895A1E22E
:103E40001A2EAA1BBB1BFD010DC0AA1FBB1FEE1F14
:103E5000FF1FA217B307E407F50720F0A21BB30B5F
:103E6000E40BF50B661F771F881F991F1A9469F7DB
:103E700060957095809590959B01AC01BD01CF0137
:103E80000895052E97FB1EF400940E94581F57FDBD
:103E900007D00E941F1F07FC03D04EF40C94581F3C
:103EA00050954095309521953F4F4F4F5F4F089566
:103EB00090958095709561957F4F8F4F9F4F089596
:103EC0000E94711FA59F900DB49F900DA49F800D1F
:103ED000911D11240895EE0FFF1F0590F491E02D20
:103EE0000994A29FB001B39FC001A39F700D811DD3
:103EF0001124911DB29F700D811D1124911D0895F3
:043F0000F894FFCF63
:103F04000000803F526F626F742073746172747327
:103F140020696E697469616C697A6174696F6E0095
:103F2400536572766F207365727669636520737466
:103F3400617274656400536572766F7320696E698B
:103F44007469616C697A656400526F626F74206988
:103F54006E697469616C697A6174696F6E20436F0C
:103F64006D706C657465005374616E6400537465A0
:103F74007020666F7277617264005374657020629A
:103F840061636B005475726E206C656674005475C1
:103F9400726E2072696768740048616E642077618C
:103FA400766500426F64792064616E6365005369CD
:103FB4007400020003000400050006000700080066
:103FC40009000A000B000C000D00000000007F1B1C
:103FD400F21C401BCC1B121B2C1B1E1B0D0A006E5B
:0C3FE400616E00696E66006F766600007A
:00000001FF
