:100000000C9490000C94B8000C94B8000C94B800B8
:100010000C94B8000C94B8000C94B8000C94B80080
:100020000C94B8000C9490010C94B8000C940E152C
:100030000C94B8000C94B8000C94B8000C94B80060
:100040000C94A71C0C94B8000C94B31B0C94E51BE7
:100050000C94B8000C94B8000C94B8000C94B80040
:100060000C94B8000C94B8008111351148115B1143
:100070006E119511A211084AD73B3BCE016E84BC8C
:10008000BFFDC12F3D6C74319ABD56833DDA3D00F2
:10009000C77F11BED9E4BB4C3E916BAAAABE00003B
:1000A00000803F072C7AA5BA6CC590DA3B9365FCBB
:1000B0008BBC53F810FD3C5692834DBD879D3AB6DC
:1000C0003DCBC9BF5BBE73DA0FC93F00000000081B
:1000D000000201000003040700000000000000000F
:1000E00001020408102040800102040810200102CF
:1000F000040810200404040404040404020202029C
:10010000020203030303030300000000250028008C
:100110002B0000000000240027002A00EC14151C0E
:1001200011241FBECFEFD8E0DEBFCDBF12E0A0E0AC
:10013000B1E0ECE0F3E402C005900D92A032B1070B
:10014000D9F723E0A0E2B2E001C01D92A13FB207BF
:10015000E1F710E0C0E9D0E004C02197FE010E9461
:10016000C01ECE38D107C9F70E94431C0C948421CD
:100170000C940000CF92DF92EF92FF920F931F93A7
:1001800069017A01611571058105910569F481E0C4
:1001900090E0A0E0B0E08093290290932A02A0931F
:1001A0002B02B0932C0208C06093290270932A029C
:1001B00080932B0290932C02109328020093270225
:1001C000809170008E7F809370008091B0008C7F52
:1001D0008093B0008091B100877F8093B1008091BF
:1001E000B6008F7D8093B600809170008D7F8093E4
:1001F00070008091B10084608093B1008091B10063
:100200008C7F8093B10020E034E244E75BE4C701D7
:10021000B6010E94A61920E030E040E85CE30E94AD
:10022000A6190E946A1820E031E0C901861B970BCD
:1002300090932102809320021F910F91FF90EF90E5
:10024000DF90CF9008950F931F938A012FE632E13C
:1002500043E85AE30E94BA001F910F91089510924B
:10026000230210922402109225021092260210926C
:10027000220280912002909121028093B200E0E757
:10028000F0E08081816080830895809123029091C5
:100290002402A0912502B09126020196A11DB11D54
:1002A0008093230290932402A0932502B093260208
:1002B0008091230290912402A0912502B091260200
:1002C0004091290250912A0260912B0270912C02D8
:1002D00084179507A607B70710F1809122028111B4
:1002E0001EC081E08093220280912302909124021B
:1002F000A0912502B0912602841B950BA60BB70B8B
:100300008093230290932402A0932502B0932602A7
:10031000E0912702F0912802099510922202089597
:100320001F920F920FB60F9211242F933F934F936A
:100330005F936F937F938F939F93AF93BF93EF934D
:10034000FF9380912002909121028093B2000E943D
:100350004501FF91EF91BF91AF919F918F917F9157
:100360006F915F914F913F912F910F900FBE0F9022
:100370001F901895CF93DF93EC011B821A821C8289
:100380001E821D828DE089871DA61CA67983688345
:1003900066E171E0CE0107960E94D61F1A861BA661
:1003A000DF91CF910895EF92FF920F931F93CF9318
:1003B000DF93EC017B018A018C8190E001962BE0B8
:1003C000289FB001299F700D11248A819B810E9472
:1003D000E01E9B838A832C8148E050E0B7013BE01C
:1003E000239F800D911D11240E94EB1F8C81EA81B7
:1003F000FB819BE0899FE00DF11D1124128701878D
:100400008C818F5F8C83DF91CF911F910F91FF9033
:10041000EF900895FC017683658308952F923F92B3
:100420004F925F926F927F928F929F92AF92BF9204
:10043000CF92DF92EF92FF920F931F93CF93DF93B0
:1004400000D01F92CDB7DEB78C018C969B838A8338
:10045000180197E0290E311C2801AAE04A0E511C10
:10046000F80180819181DC01ED91FC910084F1859E
:10047000E02D0995181619060CF068C0F801808166
:100480009181DC01ED91FC910284F385E02D0995C9
:1004900089838981F801918598133CC04A815B81E9
:1004A000B101C2010E94FA1F6C01892B79F1D801B8
:1004B00014966C90712C812C912CA12CB12CA6142B
:1004C000B704DCF4F801E280F380E80CF91C48E0A2
:1004D00050E0B701C6010E94DD1FFBE08F0E911CAA
:1004E000892B39F4D7011996ED91FC911A9709954A
:1004F0000DC0BFEFAB1ABB0AE2CFD8011596ED9144
:10050000FC911697309711F0C6010995F8011286F3
:1005100013A6A6CF898190E00E94C61F892B09F4FB
:100520009FCFD8019B968C919B97803208F098CFF3
:1005300091E0980F9B969C932981F801E80FF11D9B
:100540002287F801E90FF11D12868ACF0F900F90D4
:100550000F90DF91CF911F910F91FF90EF90DF905F
:10056000CF90BF90AF909F908F907F906F905F9053
:100570004F903F902F900895AC01445D5F4FBC01B8
:10058000695F7F4F80E090E00C94FA1F68E171E0B2
:1005900087E493E00C94951CCF92DF92EF92FF9248
:1005A0000F931F93CF93DF9386EEE82E81E0F82E12
:1005B000C0E0D0E0670100E010E0F60161917191C8
:1005C0006F01CE01800F911F875C9D4F0E946B16BB
:1005D00064E670E080E090E00E94161D0D5F1F4F02
:1005E0000930110551F7F6E0EF0EF11C2996C432DF
:1005F000D10501F7DF91CF911F910F91FF90EF90FF
:10060000DF90CF9008958DE592E00C940E02CF9389
:100610006091F9027091FA028091FB029091FC02C4
:10062000C1E020E030E048E452EC0E94F317811171
:10063000C0E08C2FCF9108952F923F924F925F92FE
:100640006F927F928F929F92AF92BF92CF92DF92E2
:10065000EF92FF920F931F93CF93DF93CDB7DEB747
:100660006A970FB6F894DEBF0FBECDBF1C01498755
:100670005A876B877C870D871E872F87388B20E0F2
:1006800030E04FE753E469857A858B859C850E942D
:10069000F3178823A9F08CE0829DF001839DF00D73
:1006A0001124EF50FD4F20813181428153816985B2
:1006B0007A858B859C850E9414174B015C0103C0D1
:1006C000812C912C540120E030E04FE753E46D85FC
:1006D0007E858F8598890E94F3178823B9F08CE076
:1006E000829DF001839DF00D1124EF50FD4F248178
:1006F0003581468157816D857E858F8598890E94D9
:10070000141769837A838B839C8304C019821A82AD
:100710001B821C8220E030E04FE753E4C701B601A2
:100720000E94F3178823A9F08CE0829DF001839D3D
:10073000F00D1124EF50FD4F208531854285538502
:10074000C701B6010E9414176D837E838F8398873B
:1007500004C01D821E821F821886A5019401C50156
:10076000B4010E94A6192B013C0129813A814B81D9
:100770005C81CA01B9010E94A6199B01AC01C301A9
:10078000B2010E9415172B013C012D813E814F8142
:100790005885CA01B9010E94A6199B01AC01C30189
:1007A000B2010E9415170E94191A2B013C01809179
:1007B0008D0290918E02A0918F02B0919002898B50
:1007C0009A8BAB8BBC8B8091120190911301A091FD
:1007D0001401B09115018D8B9E8BAF8BB88F8CE07F
:1007E000829D8001839D100D1124D801AF56BD4F0D
:1007F000BA8FA98FA3019201C501B4010E94F81715
:1008000029893A894B895C890E94A6192D893E89DC
:100810004F89588D0E94A619E98DFA8D60837183E6
:1008200082839383A301920169817A818B819C8168
:100830000E94F81729893A894B895C890E94A61978
:100840002D893E894F89588D0E94A619A98DBA8D90
:1008500014966D937D938D939C931797A3019201AA
:100860006D817E818F8198850E94F81729893A8948
:100870004B895C890E94A6192D893E894F89588D24
:100880000E94A619E98DFA8D608771878287938708
:1008900020E030E04FE753E469857A858B859C85BD
:1008A0000E94F317882359F0F801EF53FD4F898513
:1008B0009A85AB85BC8580839183A283B38320E036
:1008C00030E04FE753E46D857E858F8598890E94DF
:1008D000F317882381F08CE0829DF001839DF00D59
:1008E0001124EF53FD4F8D859E85AF85B889848394
:1008F0009583A683B78320E030E04FE753E4C70138
:10090000B6010E94F317882361F08CE0829DF0010C
:10091000839DF00D1124EF53FD4FC086D186E286F2
:10092000F3866A960FB6F894DEBF0FBECDBFDF9197
:10093000CF911F910F91FF90EF90DF90CF90BF90DC
:10094000AF909F908F907F906F905F904F903F906F
:100950002F900895CF92DF92EF92FF920F931F9303
:1009600026E040E052EC61E070E087E493E00E9412
:100970004E1B6EE171E087E493E00E94951C60E0FD
:100980008EE00E94B61D44E151E16AE371E08DE51D
:1009900092E00E94D30166EC72E08DE592E00E9445
:1009A0000A02C12CD12CA0EEEA2EA1ECFA2E00E016
:1009B00010E020E232E440E050E068E772E480E0DA
:1009C00090E00E941C0300E010E020E232E440E0EE
:1009D00050E068E772E481E090E00E941C0300E0D0
:1009E00010E0980140E050E068E772E482E090E0B7
:1009F0000E941C0300E010E0980140E050E068E72E
:100A000072E483E090E00E941C0320E030E040E0CC
:100A100050E0B901660F771F620F731FCB01840F7F
:100A2000951F880F991F880F991FFC01EF53FD4FE9
:100A3000C080D180E280F380FC01EF50FD4FC08286
:100A4000D182E282F3824F5F5F4F4330510531F72D
:100A50002F5F3F4F24303105D1F648EC53E164E17C
:100A600070E080E090E00E9423010E942F016CE37F
:100A700071E087E493E00E94951C0E94CC0262E53D
:100A800071E087E493E00E94951C65E671E087E4DD
:100A900093E01F910F91FF90EF90DF90CF900C9417
:100AA000951C8F929F92AF92BF92CF92DF92EF925E
:100AB000FF920F931F93CF93DF932CE0AC01249F01
:100AC000C001259F900D11248C010F501D4FEC018A
:100AD000CF53DD4F580154E0A50EB11C4E0184E008
:100AE000880E911C6801E8E0CE0ED11C7E01F8E072
:100AF000EF0EF11CF8016081718182819381288160
:100B000039814A815B810E94F3178111F3CFF5018E
:100B10006081718182819381F401208131814281E0
:100B200053810E94F3178111E5CFF6016081718135
:100B300082819381F70120813181428153810E941A
:100B4000F3178111D7CFDF91CF911F910F91FF90B4
:100B5000EF90DF90CF90BF90AF909F908F900895CF
:100B600080E090E00E94510581E090E00E945105F4
:100B700082E090E00E94510583E090E00C945105E2
:100B8000CF92DF92EF92FF920F931F93CF93DF9359
:100B900080E090E0A0E8BFE380938D0290938E0206
:100BA000A0938F02B0939002C0E0D0E0C12CD12C72
:100BB00080EEE82E81ECF82E00E010E02FE733E421
:100BC000B901A801CE010E941C032196C430D105B1
:100BD00069F7DF91CF911F910F91FF90EF90DF9018
:100BE000CF900C94B005CF92DF92EF92FF920F93CB
:100BF0001F93CF93DF9380E090E0A0E8BFE3809362
:100C00008D0290938E02A0938F02B0939002C0E069
:100C1000D0E0C12CD12C88E4E82E82ECF82E00E044
:100C200010E02FE733E4B901A801CE010E941C03B4
:100C30002196C430D10569F7DF91CF911F910F91B3
:100C4000FF90EF90DF90CF900C94B005CF92DF92A1
:100C5000EF92FF920F931F93CF93DF9340910E017A
:100C600050910F01609110017091110140938D021C
:100C700050938E0260938F0270939002EC01209744
:100C800009F4E9C16091190370911A0380911B0363
:100C900090911C0320E030E0A9010E94F317C12CC1
:100CA000D12C10EFE12E11ECF12E00E010E09801B4
:100CB00040E050E068E772E48111EAC083E090E030
:100CC0000E941C030E94B005C12CD12C58E4E52ED3
:100CD00052ECF52E00E010E020EA31E44FE65FE050
:100CE00060E872E480E090E00E941C0308E11EEAE4
:100CF00023E632E445E150EC66E072E481E090E006
:100D00000E941C0300E010E020EA31E44FE65FE0BF
:100D100060E872E482E090E00E941C03C12CD12CB8
:100D200060EFE62E61ECF62E08E11EEA23E632E4DF
:100D300045E150EC66E072E483E090E00E941C0321
:100D40000E94B005C12CD12C78E4E72E72ECF72E6E
:100D500008E11EEA23E632E445E150EC66E072E485
:100D600083E090E00E941C030E94B00500E010E0C8
:100D700020EA31E44FE65FE060E872E480E090E072
:100D80000E941C0308E11EEA23E632E445E150EC30
:100D900066E072E481E090E00E941C0300E010E055
:100DA00020EA31E44FE65FE060E872E482E090E040
:100DB0000E941C0308E11EEA23E632E445E150EC00
:100DC00066E072E483E090E00E941C030E94B0059C
:100DD000C12CD12CE0EFEE2EE1ECFE2E08E11EEA54
:100DE00023E632E445E150EC66E072E481E090E015
:100DF0000E941C030E94B005C12CD12CF8E4EF2EF8
:100E0000F2ECFF2E00E010E0980140E050E068E7CF
:100E100072E480E090E00E941C03C12CD12CA0EF72
:100E2000EA2EA1ECFA2E00E010E0980140E050E03C
:100E300068E772E481E090E00E941C03C12CD12C91
:100E4000B8E4EB2EB2ECFB2E00E010E020E232E43E
:100E500040E050E068E772E482E090E00E941C030A
:100E600000E010E020E232E440E050E068E772E4A5
:100E700083E090E00E941C030E94B00500E010E0B7
:100E8000980140E050E068E772E481E090E0DDC066
:100E900080E090E00E941C030E94B00508E11EEA79
:100EA00023E632E445E150EC66E072E480E090E055
:100EB0000E941C03C12CD12C88E4E82E82ECF82E71
:100EC00000E010E020EA31E44FE65FE060E872E421
:100ED00081E090E00E941C0308E11EEA23E632E470
:100EE00045E150EC66E072E482E090E00E941C0371
:100EF00000E010E020EA31E44FE65FE060E872E4F1
:100F000083E090E00E941C030E94B00508E11EEA05
:100F100023E632E445E150EC66E072E480E090E0E4
:100F20000E941C030E94B00508E11EEA23E632E499
:100F300045E150EC66E072E480E090E00E941C0322
:100F400000E010E020EA31E44FE65FE060E872E4A0
:100F500081E090E00E941C0308E11EEA23E632E4EF
:100F600045E150EC66E072E482E090E00E941C03F0
:100F700000E010E020EA31E44FE65FE060E872E470
:100F800083E090E00E941C030E94B005C12CD12C8C
:100F900090EFE92E91ECF92E08E11EEA23E632E407
:100FA00045E150EC66E072E482E090E00E941C03B0
:100FB0000E94B005C12CD12C28E4E22E22ECF22EA6
:100FC00000E010E020E232E440E050E068E772E444
:100FD00080E090E00E941C0300E010E020E232E498
:100FE00040E050E068E772E481E090E00E941C037A
:100FF000C12CD12C30EFE32E31ECF32E00E010E0C9
:10100000980140E050E068E772E482E090E00E94DE
:101010001C03C12CD12C48E4E42E42ECF42E00E059
:1010200010E0980140E050E068E772E483E090E06F
:101030000E941C030E94B00500E010E0980140E00F
:1010400050E068E772E482E090E00E941C030E9496
:10105000B005219714CEDF91CF911F910F91FF9092
:10106000EF90DF90CF900895CF92DF92EF92FF92B2
:101070000F931F93CF93DF9340910E0150910F0177
:10108000609110017091110140938D0250938E0276
:1010900060938F0270939002EC01209709F4E9C1EC
:1010A00060910D0370910E0380910F0390911003D6
:1010B00020E030E0A9010E94F317C12CD12C10EFE1
:1010C000E12E11ECF12E00E010E0980140E050E03C
:1010D00068E772E48111DEC082E090E00E941C03A8
:1010E0000E94B005C12CD12C78E4E72E72ECF72ECB
:1010F00008E11EEA23E632E445E150EC66E072E4E2
:1011000080E090E00E941C0300E010E020EA31E45F
:101110004FE65FE060E872E481E090E00E941C032B
:10112000C12CD12CE0EFEE2EE1ECFE2E08E11EEA00
:1011300023E632E445E150EC66E072E482E090E0C0
:101140000E941C03C12CD12CF8E4EF2EF2ECFF2EF0
:1011500000E010E020EA31E44FE65FE060E872E48E
:1011600083E090E00E941C030E94B00508E11EEAA3
:1011700023E632E445E150EC66E072E482E090E080
:101180000E941C030E94B00508E11EEA23E632E437
:1011900045E150EC66E072E480E090E00E941C03C0
:1011A00000E010E020EA31E44FE65FE060E872E43E
:1011B00081E090E00E941C0308E11EEA23E632E48D
:1011C00045E150EC66E072E482E090E00E941C038E
:1011D00000E010E020EA31E44FE65FE060E872E40E
:1011E00083E090E00E941C030E94B005C12CD12C2A
:1011F000A0EFEA2EA1ECFA2E08E11EEA23E632E483
:1012000045E150EC66E072E480E090E00E941C034F
:101210000E94B00500E010E0980140E050E068E76F
:1012200072E480E090E00E941C03C12CD12CB8E451
:10123000EB2EB2ECFB2E00E010E0980140E050E015
:1012400068E772E481E090E00E941C0300E010E097
:1012500020E232E440E050E068E772E482E090E0AF
:101260000E941C0300E010E020E232E440E050E085
:1012700068E772E483E090E00E941C030E94B005DE
:1012800000E010E0980140E050E068E772E480E0A0
:1012900090E0E9C081E090E00E941C030E94B0054C
:1012A000C12CD12C88E4E82E82ECF82E00E010E06E
:1012B00020EA31E44FE65FE060E872E480E090E02D
:1012C0000E941C03C12CD12C90EFE92E91ECF92E39
:1012D00008E11EEA23E632E445E150EC66E072E400
:1012E00081E090E00E941C03C12CD12C28E4E22E66
:1012F00022ECF22E00E010E020EA31E44FE65FE05D
:1013000060E872E482E090E00E941C0308E11EEABB
:1013100023E632E445E150EC66E072E483E090E0DD
:101320000E941C030E94B00508E11EEA23E632E495
:1013300045E150EC66E072E481E090E00E941C031D
:101340000E94B00500E010E020EA31E44FE65FE0E3
:1013500060E872E480E090E00E941C0308E11EEA6D
:1013600023E632E445E150EC66E072E481E090E08F
:101370000E941C0300E010E020EA31E44FE65FE049
:1013800060E872E482E090E00E941C0308E11EEA3B
:1013900023E632E445E150EC66E072E483E090E05D
:1013A0000E941C030E94B005C12CD12C30EFE32E0B
:1013B00031ECF32E08E11EEA23E632E445E150EC7D
:1013C00066E072E483E090E00E941C030E94B00596
:1013D000C12CD12C48E4E42E42ECF42E00E010E0C5
:1013E00020E232E440E050E068E772E480E090E020
:1013F0000E941C0300E010E020E232E440E050E0F4
:1014000068E772E481E090E00E941C0300E010E0D5
:10141000980140E050E068E772E482E090E00E94CA
:101420001C03C12CD12C50EFE52E51ECF52E00E021
:1014300010E0980140E050E068E772E483E090E05B
:101440000E941C030E94B005C12CD12C68E4E62E3A
:1014500062ECF62E00E010E0980140E050E068E712
:1014600072E483E090E00E941C030E94B005219783
:1014700014CEDF91CF911F910F91FF90EF90DF90ED
:10148000CF900895CF92DF92EF92FF920F931F9328
:10149000CF93DF9340910A0150910B0160910C01B1
:1014A00070910D0140938D0250938E0260938F02D4
:1014B00070939002EC01209709F475C160910D03BF
:1014C00070910E0380910F039091100320E030E0A3
:1014D000A9010E94F317C12CD12C60EFE62E61EC1C
:1014E000F62E00E010E0980140E050E068E772E47A
:1014F0008111AAC082E090E00E941C030E94B00506
:1015000000E010E020EA32E440E050E068E772E4F6
:1015100082E090E00E941C030E94B005C12CD12CF7
:1015200038E4E32E32ECF32E00E010E020EA32E45F
:1015300040E050E068E772E482E090E00E941C0323
:101540000E94B0058091060190910701A0910801C9
:10155000B091090180938D0290938E02A0938F0227
:10156000B093900200E010E0980140E050E068E79E
:1015700072E480E090E00E941C0300E010E020EAAA
:1015800032E440E050E068E772E481E090E00E94DD
:101590001C0300E010E020E232E440E050E068E7A5
:1015A00072E482E090E00E941C0300E010E020E280
:1015B00032E440E050E068E772E483E090E00E94AB
:1015C0001C030E94B00580910A0190910B01A0912B
:1015D0000C01B0910D0180938D0290938E02A09327
:1015E0008F02B0939002C12CD12C40EFE42E41EC3D
:1015F000F42E00E010E020EA32E440E050E068E73A
:1016000072E481E090E00E941C030E94B00500E0BB
:1016100010E0980140E050E068E772E481E090E07B
:101620000E941C030E94B005C12CD12C58E4E52E69
:1016300052ECF52E00E010E0980140E050E068E741
:1016400072E481E090E0A9C080E090E00E941C0379
:101650000E94B00500E010E020EA32E440E050E0F3
:1016600068E772E480E090E00E941C030E94B005ED
:10167000C12CD12C88E4E82E82ECF82E00E010E09A
:1016800020EA32E440E050E068E772E480E090E075
:101690000E941C030E94B0058091060190910701F1
:1016A000A0910801B091090180938D0290938E0260
:1016B000A0938F02B093900200E010E020E232E4A9
:1016C00040E050E068E772E480E090E00E941C0394
:1016D00000E010E020E232E440E050E068E772E42D
:1016E00081E090E00E941C0300E010E0980140E0DF
:1016F00050E068E772E482E090E00E941C0300E0A2
:1017000010E020EA32E440E050E068E772E483E071
:1017100090E00E941C030E94B00580910A01909104
:101720000B01A0910C01B0910D0180938D0290935B
:101730008E02A0938F02B0939002C12CD12C90EF17
:10174000E92E91ECF92E00E010E020EA32E440E0CE
:1017500050E068E772E483E090E00E941C030E947E
:10176000B00500E010E0980140E050E068E772E466
:1017700083E090E00E941C030E94B005C12CD12C94
:1017800028E4E22E22ECF22E00E010E0980140E086
:1017900050E068E772E483E090E00E941C030E943E
:1017A000B005219788CEDF91CF911F910F91FF90C7
:1017B000EF90DF90CF900895CF92DF92EF92FF925B
:1017C0000F931F93CF93DF9340910A0150910B0128
:1017D00060910C0170910D0140938D0250938E0227
:1017E00060938F0270939002EC01209709F475C109
:1017F0006091190370911A0380911B0390911C034F
:1018000020E030E0A9010E94F317C12CD12C60EF39
:10181000E62E61ECF62E00E010E0980140E050E08A
:1018200068E772E48111AAC083E090E00E941C0383
:101830000E94B00500E010E020EA32E440E050E011
:1018400068E772E483E090E00E941C030E94B00508
:10185000C12CD12C38E4E32E32ECF32E00E010E062
:1018600020EA32E440E050E068E772E483E090E090
:101870000E941C030E94B00580910601909107010F
:10188000A0910801B091090180938D0290938E027E
:10189000A0938F02B093900200E010E020EA32E4BF
:1018A00040E050E068E772E480E090E00E941C03B2
:1018B00000E010E0980140E050E068E772E481E069
:1018C00090E00E941C0300E010E020E232E440E0DF
:1018D00050E068E772E482E090E00E941C0300E0C0
:1018E00010E020E232E440E050E068E772E483E098
:1018F00090E00E941C030E94B00580910A01909123
:101900000B01A0910C01B0910D0180938D02909379
:101910008E02A0938F02B0939002C12CD12C40EF85
:10192000E42E41ECF42E00E010E020EA32E440E046
:1019300050E068E772E480E090E00E941C030E949F
:10194000B00500E010E0980140E050E068E772E484
:1019500080E090E00E941C030E94B005C12CD12CB5
:1019600058E4E52E52ECF52E00E010E0980140E03E
:1019700050E068E772E480E090E0A9C081E090E088
:101980000E941C030E94B00500E010E020EA32E44F
:1019900040E050E068E772E481E090E00E941C03C0
:1019A0000E94B005C12CD12C88E4E82E82ECF82EE0
:1019B00000E010E020EA32E440E050E068E772E442
:1019C00081E090E00E941C030E94B0058091060116
:1019D00090910701A0910801B091090180938D02B7
:1019E00090938E02A0938F02B093900200E010E0DB
:1019F00020E232E440E050E068E772E480E090E00A
:101A00000E941C0300E010E020E232E440E050E0DD
:101A100068E772E481E090E00E941C0300E010E0BF
:101A200020EA32E440E050E068E772E482E090E0CF
:101A30000E941C0300E010E0980140E050E068E7DD
:101A400072E483E090E00E941C030E94B005809144
:101A50000A0190910B01A0910C01B0910D018093AE
:101A60008D0290938E02A0938F02B0939002C12CAE
:101A7000D12C90EFE92E91ECF92E00E010E020EA55
:101A800032E440E050E068E772E482E090E00E94D7
:101A90001C030E94B00500E010E0980140E050E017
:101AA00068E772E482E090E00E941C030E94B005A7
:101AB000C12CD12C28E4E22E22ECF22E00E010E022
:101AC000980140E050E068E772E482E090E00E9414
:101AD0001C030E94B005219788CEDF91CF911F9102
:101AE0000F91FF90EF90DF90CF9008958F929F928B
:101AF000AF92BF92CF92DF92EF92FF920F931F931C
:101B0000CF93DF93C1EFD2E0C880D980EA80FB8019
:101B1000BC01990F880B990B0E94A2184B015C0124
:101B20009B01AC01C701B6010E941517AB01BC01B6
:101B3000C12CD12C8FE7E82E83E4F82E9701860183
:101B400080E090E00E941C032C853D854E855F85DA
:101B5000C501B4010E941517AB01BC0197018601B4
:101B600081E090E00E941C03688D798D8A8D9B8DA9
:101B7000A50194010E941417AB01BC0197018601D5
:101B800082E090E00E941C036CA17DA18EA19FA128
:101B9000A50194010E941417AB01BC0197018601B5
:101BA00083E090E00E941C03DF91CF911F910F9181
:101BB000FF90EF90DF90CF90BF90AF909F908F906D
:101BC0000C94B0058F929F92AF92BF92CF92DF920A
:101BD000EF92FF920F931F93CF93DF93C1EFD2E069
:101BE000C880D980EA80FB80BC01990F880B990BD3
:101BF0000E94A2184B015C019B01AC01C701B60118
:101C00000E941417AB01BC01C12CD12C8FE7E82E28
:101C100083E4F82E9701860180E090E00E941C0387
:101C20006C857D858E859F85A50194010E94141782
:101C3000AB01BC019701860181E090E00E941C038A
:101C4000288D398D4A8D5B8DC501B4010E94151711
:101C5000AB01BC019701860182E090E00E941C0369
:101C60002CA13DA14EA15FA1C501B4010E94151791
:101C7000AB01BC019701860183E090E00E941C0348
:101C8000DF91CF911F910F91FF90EF90DF90CF9058
:101C9000BF90AF909F908F900C94B0052F923F9281
:101CA0004F925F926F927F928F929F92AF92BF926C
:101CB000CF92DF92EF92FF920F931F93CF93DF9318
:101CC00000D000D000D0CDB7DEB71C0180E090E09E
:101CD000A0E8BFE380938D0290938E02A0938F02C1
:101CE000B09390026091190370911A0380911B03C5
:101CF00090911C0320E030E0A9010E94F3178111AC
:101D000095C08FE090E00E94E20D809109039091D0
:101D10000A03A0910B03B0910C0389839A83AB83D0
:101D2000BC8380900D0390900E03A0900F03B090A1
:101D300010034090110350901203609013037090B1
:101D400014038091060190910701A0910801B091C0
:101D5000090180938D0290938E02A0938F02B0931D
:101D600090021E821D82AD81BE81A215B30544F58D
:101D7000C12CD12C98E4E92E92E4F92E00E010E079
:101D800020EA31E44FE65FE060E872E482E090E050
:101D90000E941C030E94B00508E11EEA23E632E41B
:101DA00045E150EC66E072E482E090E00E941C03A2
:101DB0000E94B0058D819E8101969E838D83D3CF35
:101DC000730162019501840149815A816B817C8193
:101DD00082E090E00E941C030E94B00580E090E049
:101DE000A0E8BFE380938D0290938E02A0938F02B0
:101DF000B09390028FE090E026960FB6F894DEBF85
:101E00000FBECDBFDF91CF911F910F91FF90EF904B
:101E1000DF90CF90BF90AF909F908F907F906F900A
:101E20005F904F903F902F900C94760D8FE090E054
:101E30000E94760D8091F1029091F202A091F3023E
:101E4000B091F40289839A83AB83BC838090F502BE
:101E50009090F602A090F702B090F8024090F9023C
:101E60005090FA026090FB027090FC028091060193
:101E700090910701A0910801B091090180938D0212
:101E800090938E02A0938F02B09390021E821D82C7
:101E9000AD81BE81A215B30544F5C12CD12C88E4D7
:101EA000E82E82E4F82E00E010E020EA31E44FE66C
:101EB0005FE060E872E480E090E00E941C030E9412
:101EC000B00508E11EEA23E632E445E150EC66E0A5
:101ED00072E480E090E00E941C030E94B0058D81B6
:101EE0009E8101969E838D83D3CF730162019501FC
:101EF000840149815A816B817C8180E090E00E945D
:101F00001C030E94B00580E090E0A0E8BFE380934E
:101F10008D0290938E02A0938F02B09390028FE077
:101F200090E026960FB6F894DEBF0FBECDBFDF91CE
:101F3000CF911F910F91FF90EF90DF90CF90BF90C6
:101F4000AF909F908F907F906F905F904F903F9059
:101F50002F900C94E20D2F923F924F925F926F92CE
:101F60007F928F929F92AF92BF92CF92DF92EF9229
:101F7000FF920F931F93CF93DF9300D000D000D038
:101F8000CDB7DEB71C0180E090E0A0E8BFE380930E
:101F90008D0290938E02A0938F02B0939002609175
:101FA000190370911A0380911B0390911C0320E088
:101FB00030E0A9010E94F31781119BC08FE090E0EF
:101FC0000E94E20D8091090390910A03A0910B03F6
:101FD000B0910C0389839A83AB83BC8380900D03FB
:101FE00090900E03A0900F03B09010034090110347
:101FF00050901203609013037090140380910601B7
:1020000090910701A0910801B091090180938D0280
:1020100090938E02A0938F02B09390021E821D8235
:10202000AD81BE81A215B30574F5C12CD12C2CE570
:10203000E22E22E4F22E00E010E020EA32E440E05A
:1020400050E060E072E482E090E00E941C030E9495
:10205000B005C12CD12C30E2E32E31E4F32E00E0A8
:1020600010E020EA32E440E050E060E072E482E018
:1020700090E00E941C030E94B0058D819E81019614
:102080009E838D83CDCF73016201950184014981C7
:102090005A816B817C8182E090E00E941C030E9447
:1020A000B00580E090E0A0E8BFE380938D029093BC
:1020B0008E02A0938F02B09390028FE090E026965C
:1020C0000FB6F894DEBF0FBECDBFDF91CF911F9149
:1020D0000F91FF90EF90DF90CF90BF90AF909F90C7
:1020E0008F907F906F905F904F903F902F900C94C7
:1020F000760D8FE090E00E94760D8091F102909134
:10210000F202A091F302B091F40289839A83AB8327
:10211000BC838090F5029090F602A090F702B090F8
:10212000F8024090F9025090FA026090FB02709021
:10213000FC028091060190910701A0910801B091E5
:10214000090180938D0290938E02A0938F02B09329
:1021500090021E821D82AD81BE81A215B30574F569
:10216000C12CD12C8CE5E82E82E4F82E00E010E0A2
:1021700020EA32E440E050E060E072E480E090E089
:102180000E941C030E94B005C12CD12C90E2E92EC4
:1021900091E4F92E00E010E020EA32E440E050E063
:1021A00060E072E480E090E00E941C030E94B005B1
:1021B0008D819E8101969E838D83CDCF73016201B7
:1021C0009501840149815A816B817C8180E090E096
:1021D0000E941C030E94B00580E090E0A0E8BFE3ED
:1021E00080938D0290938E02A0938F02B093900201
:1021F0008FE090E026960FB6F894DEBF0FBECDBFFD
:10220000DF91CF911F910F91FF90EF90DF90CF90D2
:10221000BF90AF909F908F907F906F905F904F9006
:102220003F902F900C94E20D0F931F93CF93DF9369
:1022300063EC71E087E493E00E94951C8DE592E0E9
:102240000E94BC020E94A61F8C018DE592E00E94B4
:10225000BC020E94A61FEC010730110508F07FC0E8
:10226000F801EC5CFF4F0C94C01E69E871E087E454
:1022700093E00E94951C0E940703811102C00E94F6
:10228000F305CE01DF91CF911F910F910C94420A7B
:1022900066E971E087E493E00E94951C0E940703C1
:1022A000811102C00E94F305CE01DF91CF911F91F1
:1022B0000F910C94DC0B60EA71E087E493E00E94DC
:1022C000951C0E940703811102C00E94F305CE01F4
:1022D000DF91CF911F910F910C9426066AEA71E06D
:1022E00087E493E00E94951C0E940703811102C0BD
:1022F0000E94F305CE01DF91CF911F910F910C94B5
:1023000034086BEC71E087E493E00E94951CCD2BC0
:1023100031F0DF91CF911F910F910C94F305DF9174
:10232000CF911F910F910C94C00565ED71E087E48A
:1023300093E00E94951CCE01DF91CF911F910F91E8
:102340000C94AB0F65EB71E087E493E00E94951C61
:10235000CE01DF91CF911F910F910C944E0E60EE44
:1023600071E087E493E0DF91CF911F910F910C947E
:10237000951C2F923F924F925F926F927F928F9215
:102380009F92AF92BF92CF92DF92EF92FF920F9304
:102390001F93CF93DF93CDB7DEB76C970FB6F8944A
:1023A000DEBF0FBECDBF1C017E876D87588B4F8768
:1023B00009831A832B833C83CD82DE82EF82F886E9
:1023C00089869A86AB86BC8669817A818B819C815D
:1023D00020E030E0A9010E94991987FD07C0C12CB7
:1023E000D12C90E8E92E9FE3F92E06C0C12CD12C08
:1023F00080E8E82E8FEBF82E69817A818B819C81B1
:102400008D809E80AF80B8849B01AC010E94A6198C
:102410002B013C01A5019401C501B4010E94A6193C
:102420009B01AC01C301B2010E9415170E94191A49
:102430009B01AC01C701B6010E94A6196B017C018A
:1024400020E030E04CED51E40E9414172B013C01D8
:1024500069857A858B859C85A30192010E949417DA
:10246000698B7A8B8B8B9C8BA3019201C301B20188
:102470000E94A6192B013C0189849A84AB84BC84F8
:1024800069857A858B859C859B01AC010E94A61984
:10249000A30192010E9415170E94191A6D8B7E8B61
:1024A0008F8B988F20E034E54AE355E4C301B201F5
:1024B0000E941417698F7A8F8B8F9C8FA5019401CE
:1024C000C501B4010E94A6199B01AC01698D7A8DEA
:1024D0008B8D9C8D0E94151720E030E040E05FE37B
:1024E0000E94A61920E030E04CE552E40E94F81763
:1024F0002D893E894F89588D0E94F8170E94031735
:102500009B01AC0169897A898B899C890E94151786
:10251000F101608371838283938389849A84AB847D
:10252000BC84A301920160E07DE18DE096E40E940D
:1025300014172B013C01A5019401C501B4010E94AF
:10254000A6199B01AC01C301B2010E94141720E03F
:1025500030E040E05FE30E94A61920E030E04CE567
:1025600052E40E94F81720E030E04BE952E40E9468
:10257000F8170E940317ED85FE85608371838283BF
:10258000938320E030E0A901C701B6010E949919A8
:1025900087FD09C029813A814B815C816D817E81F3
:1025A0008F8198850EC049815A816B817C818D8194
:1025B0009E81AF81B8859A01AB015058BC01CD0115
:1025C00090580E949417EF85F88960837183828305
:1025D0009383F10160817181828193812AED3FE0D3
:1025E00049E450E40E94F81720E030E044E353E46B
:1025F0000E94A619F1016083718382839383ED8524
:10260000FE8560817181828193812AED3FE049E4FA
:1026100050E40E94F81720E030E044E353E40E94C5
:10262000A619ED85FE856083718382839383EF8590
:10263000F88960817181828193812AED3FE049E4CC
:1026400050E40E94F81720E030E044E353E40E9495
:10265000A619EF85F88960837183828393836C96D2
:102660000FB6F894DEBF0FBECDBFDF91CF911F91A3
:102670000F91FF90EF90DF90CF90BF90AF909F9021
:102680008F907F906F905F904F903F902F90089524
:102690004F925F926F927F928F929F92AF92BF9272
:1026A000CF92DF92EF92FF920F931F93CF93DF931E
:1026B000EC014A015B0128013901009799F4A50159
:1026C000940160E070E084EB92E40E9414174B01E7
:1026D0005C0120E030E044EB52E4C701B6010E9407
:1026E00015171FC001970297F8F420E030E044EB83
:1026F00052E4C501B4010E9415174B015C01A3010E
:10270000920160E070E084E393E40E9414172B01CF
:102710003C01A701960160E070E084EB92E40E9426
:1027200014176B017C0103C0C330D10541F2C50110
:10273000B4010E946A1829E02C9F80012D9F100D82
:102740001124C801875C9D4F0E94A716C301B201E6
:102750000E946A18C801845C9D4F0E94A716C70199
:10276000B6010E946A18C801815C9D4FDF91CF912C
:102770001F910F91FF90EF90DF90CF90BF90AF909F
:102780009F908F907F906F905F904F900C94A716C2
:102790002F923F924F925F926F927F928F929F9271
:1027A000AF92BF92CF92DF92EF92FF920F931F935F
:1027B000CF93DF9300D000D0CDB7DEB7789461E936
:1027C000662E62E0762E1C821B827A82698200E08D
:1027D00010E02B803C80220C331C2B813C81220E8C
:1027E000331E21017101E00EF11E9701220F331FEC
:1027F000220F331FA9014F505D4F6A01FA0160811A
:10280000718182819381A9014F535D4F7A01FA0151
:1028100020813181428153810E94141720E030E0F1
:10282000A9010E949919F601181674F4608171814A
:1028300082819381F70120813181428153810E94FD
:1028400014176B017C0111C06081718182819381B9
:10285000F70120813181428153810E9414176B015D
:102860007C01F7FAF094F7F8F094E981FA8181900D
:102870009190A190B190FA83E98320E030E0A90122
:10288000C501B4010E949919A501940118160CF014
:102890005058C701B6010E94991987FD1BC07201EB
:1028A000E00EF11EC701880F991F880F991F9C0128
:1028B0002F503D4F7901F9012081318142815381AF
:1028C000C501B4010E941517F701608371838283EB
:1028D000938315C0C201800F911F880F991F880F25
:1028E000991FFC01EF53FD4F40815181628173813B
:1028F000FC01EF50FD4F40835183628373830F5F70
:102900001F4F0330110509F06DCF4CE02B813C8146
:10291000429FF001439FF00D1124EF50FD4F808442
:102920009184A284B384C480D580E680F78000813E
:102930001181228133814DE252E061E372E085E34F
:1029400092E00E94B911C0902D02D0902E02E0902A
:102950002F02F0903002009131021091320220914A
:102960003302309134024091350250913602609129
:102970003702709138028B819C810E9448138B81B1
:102980009C8101969C838B839CE0690E711CEB817A
:10299000FC81349709F019CF80918B0290918C02C1
:1029A000019690938C0280938B020F900F900F9062
:1029B0000F90DF91CF911F910F91FF90EF90DF90DB
:1029C000CF90BF90AF909F908F907F906F905F90CF
:1029D0004F903F902F9008950F931F93CF93DF93C5
:1029E00067E473E08DE592E00E94BA01C9E3D2E0AA
:1029F0000DE512E0CE010E94CF15CE0103960E9494
:102A0000CF15CE0106960E94CF1529960C171D07EB
:102A100089F7DF91CF911F910F9108951F920F9227
:102A20000FB60F9211242F933F934F935F936F93A1
:102A30007F938F939F93AF93BF93EF93FF93809177
:102A4000220387FF05C010928500109284001BC0EE
:102A500020912203022E000C330B8091210390E081
:102A60002817390784F480912203082E000C990B53
:102A7000FC01EE0FFF1F8E0F9F1FFC01ED5DFC4F51
:102A8000808186FD15C0809122038F5F8093220391
:102A900020912203022E000C330B8091210390E041
:102AA00028173907C4F4809122038C3064F113C0D5
:102AB00080912203082E000C990BFC01EE0FFF1FE2
:102AC0008E0F9F1FFC01ED5DFC4F808160E08F73D6
:102AD0000E94F21DD8CF80918400909185000496C9
:102AE00080349C4918F480E49CE905C080918400FE
:102AF00090918500049690938900809388008FEFD1
:102B0000809322033BC02091840030918500809106
:102B10002203082E000C990BFC01EE0FFF1F8E0FF5
:102B20009F1FFC01ED5DFC4F81819281820F931FFD
:102B3000909389008093880080912203082E000CD6
:102B4000990BFC01EE0FFF1F8E0F9F1FFC01ED5D27
:102B5000FC4F808186FF12C080912203082E000C5A
:102B6000990BFC01EE0FFF1F8E0F9F1FFC01ED5D07
:102B7000FC4F808161E08F730E94F21DFF91EF9105
:102B8000BF91AF919F918F917F916F915F914F9185
:102B90003F912F910F900FBE0F901F901895FC0141
:102BA000909121039C30A0F481E0890F8093210350
:102BB0009083892F90E0FC01EE0FFF1F8E0F9F1F67
:102BC000FC01ED5DFC4F88EB9BE0928381830895CF
:102BD0008FEF80830895DF92EF92FF920F931F9300
:102BE000CF93DF93EC01D62E7A01890188818C3056
:102BF00008F068C061E08D2D0E94B61D8881E82F25
:102C0000F0E09F01220F331FE20FF31FED5DFC4F39
:102C10009D2D9F732081207CD22ED92AD08220E244
:102C200032E02E193F0937FF02C02D5F3F4F359527
:102C3000279535952795298320E639E0201B310B10
:102C400037FF02C02D5F3F4F359527953595279566
:102C50002A832CE0622F0E94731E289FB00111244A
:102C600040E050E09B01240F351FF901EE0FFF1FDC
:102C70002E0F3F1FF901ED5DFC4F908196FD16C0B0
:102C80004F5F5F4F4C30510569F781110FC01092B3
:102C9000800082E080938100109285001092840071
:102CA000B19A80916F00826080936F00E881F0E0BC
:102CB000CF01880F991FE80FF91FED5DFC4F808150
:102CC000806480838881DF91CF911F910F91FF9065
:102CD000EF90DF90089520E639E040E252E00C9456
:102CE000EB15FC0190819C3088F5818128E830E06B
:102CF000281B310987FD3395220F331F220F331F05
:102D00006217730784F0828148E552E0481B51093D
:102D100087FD5395440F551F440F551F9B014617C0
:102D200057070CF49A0122503109220F331F4FB775
:102D3000F894892F90E0FC01EE0FFF1F8E0F9F1F6C
:102D4000FC01ED5DFC4F328321834FBF0895AF92AC
:102D5000BF92CF92DF92EF92FF920F931F93CF9388
:102D6000DF93EC01603282E078070CF03FC077FD22
:102D700006C0653B71052CF064EB70E002C060E0BA
:102D800070E0898128E830E05901A81AB10887FD70
:102D9000B394AA0CBB1CAA0CBB1C0B2C000CCC08BB
:102DA000DD08072E000C880B990B2A8108E512E03C
:102DB000021B110927FD1395000F111F000F111F92
:102DC000012E000C220B330B3F932F931F930F9375
:102DD00014EBE12EF12C00E010E020E030E0A9013E
:102DE0000E94211E0F900F900F900F90CE01DF9147
:102DF000CF911F910F91FF90EF90DF90CF90BF90F8
:102E0000AF900C9471169F939F770E94DD180F90DE
:102E1000002042F49058A2EA2AED3FE049E450E451
:102E20000E942C170C945F195058BB27AA270E94A8
:102E30002C170C945F190E94511938F00E945819F0
:102E400020F039F49F3F19F426F40C9427190EF45E
:102E5000E095E7FB0C942119E92F0E94701958F3B3
:102E6000BA17620773078407950720F079F4A6F56F
:102E70000C9492190EF4E0950B2EBA2FA02D0B0195
:102E8000B90190010C01CA01A0011124FF27591BAF
:102E900099F0593F50F4503E68F11A16F040A22FB5
:102EA000232F342F4427585FF3CF46953795279526
:102EB000A795F0405395C9F77EF41F16BA0B620B25
:102EC000730B840BBAF09150A1F0FF0FBB1F661F6C
:102ED000771F881FC2F70EC0BA0F621F731F841FAF
:102EE00048F4879577956795B795F7959E3F08F0D5
:102EF000B0CF9395880F08F09927EE0F9795879597
:102F000008950E94511960F080E891E009F49EEF65
:102F10000E94581928F040E851E071F45EEF0CC0AF
:102F20000C9427190C949219E92FE0780E947019DB
:102F300040F3092E052AB1F326173707480759072A
:102F400038F00E2E07F8E02569F0E025E0640AC0AD
:102F5000EF6307F8009407FADB01B9019D01DC017A
:102F6000CA01AD01EF930E940F180E945F190E94E1
:102F7000C4175F91552339F02BED3FE049E450FD34
:102F800049EC0C9415170895DF93DD27B92FBF770F
:102F900040E85FE31616170648075B0718F4D92FB9
:102FA0000E949E199F938F937F936F930E94591A4B
:102FB000E6E7F0E00E942A190E945F192F913F91E5
:102FC0004F915F910E94B919DD2351F09058A2EA08
:102FD0002AED3FE049EC5FE3D0785D270E942C1793
:102FE000DF910C945F190E94FD1808F481E00895A8
:102FF0000E940C180C945F190E94581958F00E94F6
:10300000511940F029F45F3F29F00C942119511116
:103010000C9493190C9427190E94701968F3992342
:10302000B1F3552391F3951B550BBB27AA276217C4
:103030007307840738F09F5F5F4F220F331F441FD1
:10304000AA1FA9F335D00E2E3AF0E0E832D0915005
:103050005040E695001CCAF72BD0FE2F29D0660FF2
:10306000771F881FBB1F261737074807AB07B0E835
:1030700009F0BB0B802DBF01FF2793585F4F3AF03B
:103080009E3F510578F00C9421190C9493195F3FE1
:10309000E4F3983ED4F3869577956795B795F795C1
:1030A0009F5FC9F7880F911D9695879597F90895A9
:1030B000E1E0660F771F881FBB1F62177307840745
:1030C000BA0720F0621B730B840BBA0BEE1F88F754
:1030D000E09508950E9471186894B1110C949319A9
:1030E00008950E94781988F09F5798F0B92F992772
:1030F000B751B0F0E1F0660F771F881F991F1AF0E3
:10310000BA95C9F714C0B13091F00E949219B1E09C
:1031100008950C949219672F782F8827B85F39F09B
:10312000B93FCCF3869577956795B395D9F73EF47B
:1031300090958095709561957F4F8F4F9F4F089523
:10314000E89409C097FB3EF4909580957095619541
:103150007F4F8F4F9F4F9923A9F0F92F96E9BB27F7
:103160009395F695879577956795B795F111F8CF73
:10317000FAF4BB0F11F460FF1BC06F5F7F4F8F4FDE
:103180009F4F16C0882311F096E911C0772321F0D4
:103190009EE8872F762F05C0662371F096E8862F6C
:1031A00070E060E02AF09A95660F771F881FDAF7C3
:1031B000880F9695879597F90895DF93CF931F937E
:1031C0000F938B01EC01E3EAF0E00E942A190E94C0
:1031D0005F199801AE018B01EC0160E070E080E8BE
:1031E0009FE30E9414170E94191A9801AE010F91D3
:1031F0001F91CF91DF910C94B919990F0008550FC9
:10320000AA0BE0E8FEEF16161706E807F907C0F06C
:1032100012161306E407F50798F0621B730B840B74
:10322000950B39F40A2661F0232B242B252B21F44E
:1032300008950A2609F4A140A6958FEF811D811DEE
:10324000089597F99F6780E870E060E008959FEF28
:1032500080EC0895DF93CF931F930F93FF92EF922B
:10326000DF927B018C01689406C0DA2EEF010E9488
:10327000B919FE01E894A591259135914591559193
:10328000A6F3EF010E942C17FE019701A801DA9422
:1032900069F7DF90EF90FF900F911F91CF91DF9131
:1032A000089500240A9416161706180609060895AC
:1032B00000240A9412161306140605060895092E12
:1032C0000394000C11F4882352F0BB0F40F4BF2B81
:1032D00011F460FF04C06F5F7F4F8F4F9F4F0895C1
:1032E00057FD9058440F551F59F05F3F71F04795B7
:1032F000880F97FB991F61F09F3F79F0879508959C
:10330000121613061406551FF2CF4695F1DF08C0BA
:10331000161617061806991FF1CF869571056105D7
:1033200008940895E894BB2766277727CB0197F97F
:1033300008950E94FD1808F48FEF08959B01AC01D9
:1033400060E070E080E89FE30C94F8170E94B919E0
:103350000C945F190E94511938F00E94581920F0FE
:10336000952311F00C9421190C94271911240C9415
:1033700093190E94701970F3959FC1F3950F50E057
:10338000551F629FF001729FBB27F00DB11D639F17
:10339000AA27F00DB11DAA1F649F6627B00DA11DBD
:1033A000661F829F2227B00DA11D621F739FB00D63
:1033B000A11D621F839FA00D611D221F749F3327D3
:1033C000A00D611D231F849F600D211D822F762F6C
:1033D0006A2F11249F5750409AF0F1F088234AF049
:1033E000EE0FFF1FBB1F661F771F881F91505040B5
:1033F000A9F79E3F510580F00C9421190C94931964
:103400005F3FE4F3983ED4F3869577956795B7953B
:10341000F795E7959F5FC1F7FE2B880F911D969555
:10342000879597F9089519F416F40C9427190C94BC
:103430005D1A0E947819B8F39923C9F3B6F39F5720
:10344000550B87FF0E946B1A0024A0E640EA90010A
:1034500080585695979528F4805C660F771F881FD3
:1034600020F026173707480730F4621B730B840BD4
:10347000202931294A2BA695179407942025312518
:103480004A2758F7660F771F881F20F0261737073F
:10349000480730F4620B730B840B200D311D411D66
:1034A000A09581F7B901842F9158880F969587953B
:1034B00008959B01AC010C94A6199F3F31F09150E7
:1034C00020F4879577956795B795880F911D969508
:1034D000879597F9089591505040660F771F881F80
:1034E000D2F70895FC01918D228D892F90E0805CA8
:1034F0009F4F821B91098F7399270895FC01918D2D
:10350000828D981731F0828DE80FF11D858D90E046
:1035100008958FEF9FEF0895FC01918D828D98178C
:1035200061F0828DDF01A80FB11D5D968C91928DA7
:103530009F5F9F73928F90E008958FEF9FEF0895A4
:10354000FC01538D448D252F30E0842F90E0821BA9
:10355000930B541710F0CF960895019708958BE0C0
:103560009CE1892B49F080E090E0892B29F00E94B2
:103570000B1C81110C9400000895FC01848DDF0167
:10358000A80FB11DA35ABF4F2C91848D90E00196D6
:103590008F739927848FA689B7892C93A089B189C5
:1035A0008C91837080648C93938D848D981306C066
:1035B0000288F389E02D80818F7D80830895EF92CA
:1035C000FF920F931F93CF93DF93EC0181E0888FDD
:1035D0009B8D8C8D981305C0E889F989808185FDC4
:1035E00026C0F62E0B8D10E00F5F1F4F0F731127B3
:1035F000E02E8C8DE8120CC00FB607FCFACFE889DC
:10360000F989808185FFF5CFCE010E94BD1AF1CFE7
:103610008B8DFE01E80FF11DE35AFF4FF0829FB73B
:10362000F8940B8FEA89FB89808180620AC09FB77A
:10363000F894EE89FF896083E889F9898081837035
:10364000806480839FBF81E090E0DF91CF911F91E4
:103650000F91FF90EF900895CF93DF93EC01888D49
:103660008823C9F0EA89FB89808185FD05C0A88986
:10367000B9898C9186FD0FC00FB607FCF5CF80810C
:1036800085FFF2CFA889B9898C9185FFEDCFCE0156
:103690000E94BD1AE7CFDF91CF910895CF92DF92BC
:1036A000EF92FF921F93CF93DF93EC016A017B01AE
:1036B000122FE889F98982E080834115514E610516
:1036C0007105B1F060E079E08DE390E0A70196012B
:1036D0000E947F1EDA01C9010197A109B109B695BF
:1036E000A795979587959C01211580E13807A8F04B
:1036F000E889F989108260E874E88EE190E0A7011A
:1037000096010E947F1EDA01C9010197A109B10942
:10371000B695A795979587959C01EC85FD85308397
:10372000EE85FF852083188EEC89FD891083EA8958
:10373000FB89808180618083EA89FB898081886040
:103740008083EA89FB89808180688083EA89FB899C
:1037500080818F7D8083DF91CF911F91FF90EF90CB
:10376000DF90CF9008951F920F920FB60F92112401
:103770002F938F939F93EF93FF93E0915703F091D3
:1037800058038081E0915D03F0915E0382FD12C0D9
:103790009081809160038F5F8F7320916103821706
:1037A00051F0E0916003F0E0E95BFC4F958F80936E
:1037B000600301C08081FF91EF919F918F912F91C4
:1037C0000F900FBE0F901F9018951F920F920FB67B
:1037D0000F9211242F933F934F935F936F937F9397
:1037E0008F939F93AF93BF93EF93FF9387E493E0FF
:1037F0000E94BD1AFF91EF91BF91AF919F918F9160
:103800007F916F915F914F913F912F910F900FBEDC
:103810000F901F90189587E493E00E94721A21E0A0
:10382000892B09F420E0822F0895E7E4F3E0138266
:10383000128288EE93E0A0E0B0E084839583A683B3
:10384000B78382E092E09183808385EC90E0958756
:10385000848784EC90E09787868780EC90E0918B5A
:10386000808B81EC90E0938B828B82EC90E0958B47
:10387000848B86EC90E0978B868B118E128E138E44
:10388000148E089508950E94521D0E94421C0E94A9
:10389000AA04CFEADAE10E9403032097E1F30E9431
:1038A000AF1AF9CFCF92DF92EF92FF920F931F934F
:1038B000CF93DF936C017A018B01C0E0D0E0CE158D
:1038C000DF0581F0D8016D918D01D601ED91FC915C
:1038D0000190F081E02DC6010995892B11F0219608
:1038E000EECF7E01C701DF91CF911F910F91FF9025
:1038F000EF90DF90CF9008956115710579F0FB018D
:1039000001900020E9F73197AF01461B570BDC010E
:10391000ED91FC910280F381E02D099480E090E02C
:10392000089560E172E00C947C1C0F931F93CF9379
:10393000DF93EC010E947C1C8C01CE010E94911C43
:10394000800F911FDF91CF911F910F9108951F92CA
:103950000F920FB60F9211242F933F938F939F9343
:10396000AF93BF938091E5039091E603A091E703A5
:10397000B091E8033091E40323E0230F2D3720F4C6
:103980000196A11DB11D05C026E8230F0296A11DB9
:10399000B11D2093E4038093E5039093E603A09385
:1039A000E703B093E8038091E9039091EA03A091C3
:1039B000EB03B091EC030196A11DB11D8093E903C7
:1039C0009093EA03A093EB03B093EC03BF91AF9104
:1039D0009F918F913F912F910F900FBE0F901F904D
:1039E00018953FB7F8948091E9039091EA03A0916C
:1039F000EB03B091EC0326B5A89B05C02F3F19F04F
:103A00000196A11DB11D3FBFBA2FA92F982F88275E
:103A1000820F911DA11DB11DBC01CD0142E0660FB9
:103A2000771F881F991F4A95D1F708958F929F920B
:103A3000AF92BF92CF92DF92EF92FF926B017C0127
:103A40000E94F11C4B015C01C114D104E104F1049A
:103A500001F10E94621E0E94F11CDC01CB01881959
:103A60009909AA09BB09883E9340A105B10560F3F5
:103A700021E0C21AD108E108F10888EE880E83E03F
:103A8000981EA11CB11CC114D104E104F10419F762
:103A9000DBCFFF90EF90DF90CF90BF90AF909F90E3
:103AA0008F900895789484B5826084BD84B58160D8
:103AB00084BD85B5826085BD85B5816085BDEEE636
:103AC000F0E0808181608083E1E8F0E01082808115
:103AD00082608083808181608083E0E8F0E0808183
:103AE00081608083E1EBF0E0808184608083E0EBA3
:103AF000F0E0808181608083EAE7F0E0808184608B
:103B000080838081826080838081816080838081E6
:103B1000806880831092C1000895833081F028F47A
:103B2000813099F08230A1F008958730A9F0883073
:103B3000B9F08430D1F4809180008F7D03C08091F2
:103B400080008F7780938000089584B58F7702C0BE
:103B500084B58F7D84BD08958091B0008F7703C0B8
:103B60008091B0008F7D8093B0000895CF93DF9354
:103B700090E0FC01E052FF4F2491FC01EC50FF4F1C
:103B80008491882361F190E0880F991FFC01EE5E1B
:103B9000FE4FC591D491FC01E85FFE4FA591B49111
:103BA000611109C09FB7F89488812095822388838A
:103BB000EC912E230BC0623061F49FB7F89488819A
:103BC000322F309583238883EC912E2B2C939FBF2B
:103BD00006C08FB7F894E8812E2B28838FBFDF9122
:103BE000CF9108951F93CF93DF93282F30E0F901F1
:103BF000E453FF4F8491F901E052FF4FD491F90152
:103C0000EC50FF4FC491CC23C1F0162F81110E94BC
:103C10008D1DEC2FF0E0EE0FFF1FE85FFE4FA5912A
:103C2000B4919FB7F894111104C08C91D095D8230A
:103C300002C0EC91DE2BDC939FBFDF91CF911F91EF
:103C400008954F925F926F927F92AF92BF92CF9200
:103C5000DF92EF92FF920F931F93CF93DF93CDB735
:103C6000DEB729013A019B01AC0124193509460947
:103C7000570989899A89AB89BC89BC01CD016A1928
:103C80007B098C099D090E94631EA80197012419D4
:103C90003509460957090E94A11ECA01B9016A0DDA
:103CA0007B1D8C1D9D1DDF91CF911F910F91FF906A
:103CB000EF90DF90CF90BF90AF907F906F905F902C
:103CC0004F9008950895DB018F939F930E94C61E25
:103CD000BF91AF91A29F800D911DA39F900DB29FA8
:103CE000900D11240895991B79E004C0991F96172F
:103CF00008F0961B881F7A95C9F780950895A1E270
:103D00001A2EAA1BBB1BFD010DC0AA1FBB1FEE1F55
:103D1000FF1FA217B307E407F50720F0A21BB30BA0
:103D2000E40BF50B661F771F881F991F1A9469F71C
:103D300060957095809590959B01AC01BD01CF0178
:103D40000895052E97FB1EF400940E94B81E57FD9F
:103D500007D00E947F1E07FC03D04EF40C94B81EBF
:103D600050954095309521953F4F4F4F5F4F0895A7
:103D700090958095709561957F4F8F4F9F4F0895D7
:103D8000EE0FFF1F0590F491E02D09940E94D11EC3
:103D9000A59F900DB49F900DA49F800D911D11249F
:103DA0000895A29FB001B39FC001A39F700D811D14
:103DB0001124911DB29F700D811D1124911D089534
:103DC000A0E0B0E0E6EEFEE10C945121EC0100979A
:103DD00021F4CB010E942920B4C0FC01E60FF71F9B
:103DE0009C0122503109E217F30708F4A8C0D90159
:103DF0000D911C91119706171707B0F005301105AA
:103E000008F49BC0C80104978617970708F495C06B
:103E100002501109061B170B019311936D937C93AC
:103E2000CF010E94C12089C05B01A01AB10A4C01D8
:103E3000800E911EA091EF03B091F003612C712CC4
:103E4000E12CF12C109709F446C08D919C911197AB
:103E5000A815B905B1F56C0142E0C40ED11CCA1415
:103E6000DB0478F14C018A189B08640142E0C40E1F
:103E7000D11C1296BC9012971396AC91B5E0CB165C
:103E8000D10440F0B282A38391828082D9016D93E4
:103E90007C9309C00E5F1F4F800F911FF901918322
:103EA0008083EB2DFA2FE114F10431F0D701139642
:103EB000FC93EE93129741C0F093F003E093EF036D
:103EC0003CC06816790608F43C017D0112960D90FD
:103ED000BC91A02DB7CF8091ED039091EE03881691
:103EE0009906E1F466167706C8F480910001909176
:103EF0000101009741F48DB79EB7409104015091A4
:103F00000501841B950BE817F907C8F4F093EE033D
:103F1000E093ED03F901718360830FC0CB010E9430
:103F200029207C01009759F0A801BE010E94CD1FF5
:103F3000CE010E94C120C70104C0CE0102C080E0B2
:103F400090E0CDB7DEB7EEE00C946D21FC01882740
:103F50009927E89421912032E9F3293010F02E308E
:103F6000C8F32B3241F02D3239F4689404C00E941A
:103F70002120820F911D219120532A30C0F31EF47D
:103F8000909581959F4F0895803209F091110C947E
:103F90004A2180528F55D8F70895FB01DC0102C0F9
:103FA00001900D9241505040D8F70895FB01DC017B
:103FB00001900D920020E1F70895FB01DC014150D2
:103FC000504030F08D910190801919F40020B9F71C
:103FD000881B990B0895FB01DC014150504048F0CB
:103FE00001900D920020C9F701C01D924150504030
:103FF000E0F70895FA01A191B081009719F41097A4
:10400000E1F0CD01DC01CD010D90002011F4C001E3
:1040100013C0FB012191222319F02015D9F7F3CF0A
:10402000FB012191201519F41E92119606C022233E
:10403000C1F70D900020A1F7D001FA01A193B08340
:1040400008957AE0979F902D879F802D910D1124E0
:1040500008950F931F93CF93DF938230910510F44F
:1040600082E090E0E091EF03F091F00320E030E097
:10407000A0E0B0E0309719F14081518102811381B5
:1040800048175907C8F08417950769F4109731F05D
:1040900012960C93129713961C9327C00093EF036C
:1040A0001093F00322C02115310519F04217530770
:1040B00018F49A01BD01EF01DF01F801DBCF2115F2
:1040C0003105F9F0281B390B2430310580F48A8141
:1040D0009B816115710521F0FB019383828304C0EC
:1040E0009093F0038093EF03FE01329644C0FE01EB
:1040F000E20FF31F81939193225031093983288372
:104100003AC02091ED033091EE03232B41F420912E
:104110000201309103013093EE032093ED032091CF
:104120000001309101012115310541F42DB73EB751
:104130004091040150910501241B350BE091ED03E2
:10414000F091EE03E217F307A0F42E1B3F0B2817A4
:10415000390778F0AC014E5F5F4F2417350748F000
:104160004E0F5F1F5093EE034093ED0381939193A5
:1041700002C0E0E0F0E0CF01DF91CF911F910F91FD
:104180000895CF93DF93009709F481C0FC01329723
:1041900013821282A091EF03B091F003109781F483
:1041A00020813181820F931F2091ED033091EE0326
:1041B0002817390751F5F093EE03E093ED0367C03C
:1041C000ED0120E030E0CE17DF0740F44A815B814B
:1041D0009E0141155105F1F0EA01F5CFD383C28369
:1041E00040815181840F951FC817D90759F48881E0
:1041F0009981840F951F0296918380838A819B8188
:10420000938382832115310529F4F093F003E09321
:10421000EF033DC0E901FB83EA8349915991C40F43
:10422000D51FEC17FD0761F480819181840F951FE4
:104230000296E90199838883828193819B838A8393
:10424000E0E0F0E012968D919C911397009719F0A1
:10425000FD01DC01F7CF8D919C9111979D012E5F9F
:104260003F4F820F931F2091ED033091EE032817EB
:10427000390769F4309729F41092F0031092EF0394
:1042800002C013821282B093EE03A093ED03DF917C
:10429000CF9108959927882708952F923F924F92A2
:1042A0005F926F927F928F929F92AF92BF92CF92C6
:1042B000DF92EF92FF920F931F93CF93DF93CDB7CF
:1042C000DEB7CA1BDB0B0FB6F894DEBF0FBECDBF47
:1042D00009942A88398848885F846E847D848C8418
:1042E0009B84AA84B984C884DF80EE80FD800C8121
:1042F0001B81AA81B981CE0FD11D0FB6F894DEBF04
:0C4300000FBECDBFED010895F894FFCF73
:10430C000000F103200000004040000000410000CC
:10431C0080400000803F2000576861743F00526F5E
:10432C00626F742073746172747320696E6974693E
:10433C00616C697A6174696F6E007700536572768F
:10434C006F2073657276696365207374617274652E
:10435C006400536572766F7320696E697469616C61
:10436C00697A656400526F626F7420696E69746952
:10437C00616C697A6174696F6E20436F6D706C65E6
:10438C007465005374616E64005374657020666FBD
:10439C0072776172640053746570206261636B00A4
:1043AC005475726E206C656674005475726E207252
:1043BC00696768740048616E6420776176650053A4
:1043CC00697400416374696F6E3A00313A75702CF0
:1043DC00303A646E0048616E64207368616B6500EE
:1043EC004572726F720002000300040005000600A3
:1043FC000700080009000A000B000C000D0000006B
:10440C000000DF1A521CA01A2C1B721A8C1A7E1A6E
:10441C000D0A006E616E00696E66006F76660000B4
:00000001FF
