:100000000C9490000C94B8000C94B8000C94B800B8
:100010000C94B8000C94B8000C94B8000C94B80080
:100020000C94B8000C9490010C94B8000C947E15BC
:100030000C94B8000C94B8000C94B8000C94B80060
:100040000C94171D0C94B8000C94231C0C94551C94
:100050000C94B8000C94B8000C94B8000C94B80040
:100060000C94B8000C94B800F111A511B811CB1183
:10007000DE1105121212084AD73B3BCE016E84BC3A
:10008000BFFDC12F3D6C74319ABD56833DDA3D00F2
:10009000C77F11BED9E4BB4C3E916BAAAABE00003B
:1000A00000803F072C7AA5BA6CC590DA3B9365FCBB
:1000B0008BBC53F810FD3C5692834DBD879D3AB6DC
:1000C0003DCBC9BF5BBE73DA0FC93F00000000081B
:1000D000000201000003040700000000000000000F
:1000E00001020408102040800102040810200102CF
:1000F000040810200404040404040404020202029C
:10010000020203030303030300000000250028008C
:100110002B0000000000240027002A005C15851C2D
:1001200011241FBECFEFD8E0DEBFCDBF12E0A0E0AC
:10013000B1E0ECEEF3E402C005900D92A032B107FD
:10014000D9F723E0A0E2B2E001C01D92A23FB207BE
:10015000E1F710E0C0E9D0E004C02197FE010E9461
:10016000301FCE38D107C9F70E94B31C0C94F4217C
:100170000C940000CF92DF92EF92FF920F931F93A7
:1001800069017A01611571058105910569F481E0C4
:1001900090E0A0E0B0E08093290290932A02A0931F
:1001A0002B02B0932C0208C06093290270932A029C
:1001B00080932B0290932C02109328020093270225
:1001C000809170008E7F809370008091B0008C7F52
:1001D0008093B0008091B100877F8093B1008091BF
:1001E000B6008F7D8093B600809170008D7F8093E4
:1001F00070008091B10084608093B1008091B10063
:100200008C7F8093B10020E034E244E75BE4C701D7
:10021000B6010E94161A20E030E040E85CE30E943C
:10022000161A0E94DA1820E031E0C901861B970BEC
:1002300090932102809320021F910F91FF90EF90E5
:10024000DF90CF9008950F931F938A012FE632E13C
:1002500043E85AE30E94BA001F910F91089510924B
:10026000230210922402109225021092260210926C
:10027000220280912002909121028093B200E0E757
:10028000F0E08081816080830895809123029091C5
:100290002402A0912502B09126020196A11DB11D54
:1002A0008093230290932402A0932502B093260208
:1002B0008091230290912402A0912502B091260200
:1002C0004091290250912A0260912B0270912C02D8
:1002D00084179507A607B70710F1809122028111B4
:1002E0001EC081E08093220280912302909124021B
:1002F000A0912502B0912602841B950BA60BB70B8B
:100300008093230290932402A0932502B0932602A7
:10031000E0912702F0912802099510922202089597
:100320001F920F920FB60F9211242F933F934F936A
:100330005F936F937F938F939F93AF93BF93EF934D
:10034000FF9380912002909121028093B2000E943D
:100350004501FF91EF91BF91AF919F918F917F9157
:100360006F915F914F913F912F910F900FBE0F9022
:100370001F901895CF93DF93EC011B821A821C8289
:100380001E821D828DE089871DA61CA67983688345
:1003900066E171E0CE0107960E9446201A861BA6F0
:1003A000DF91CF910895EF92FF920F931F93CF9318
:1003B000DF93EC017B018A018C8190E001962BE0B8
:1003C000289FB001299F700D11248A819B810E9472
:1003D000501F9B838A832C8148E050E0B7013BE0AB
:1003E000239F800D911D11240E945B208C81EA8146
:1003F000FB819BE0899FE00DF11D1124128701878D
:100400008C818F5F8C83DF91CF911F910F91FF9033
:10041000EF900895FC017683658308952F923F92B3
:100420004F925F926F927F928F929F92AF92BF9204
:10043000CF92DF92EF92FF920F931F93CF93DF93B0
:1004400000D01F92CDB7DEB78C018C969B838A8338
:10045000180197E0290E311C2801AAE04A0E511C10
:10046000F80180819181DC01ED91FC910084F1859E
:10047000E02D0995181619060CF068C0F801808166
:100480009181DC01ED91FC910284F385E02D0995C9
:1004900089838981F801918598133CC04A815B81E9
:1004A000B101C2010E946A206C01892B79F1D80147
:1004B00014966C90712C812C912CA12CB12CA6142B
:1004C000B704DCF4F801E280F380E80CF91C48E0A2
:1004D00050E0B701C6010E944D20FBE08F0E911C39
:1004E000892B39F4D7011996ED91FC911A9709954A
:1004F0000DC0BFEFAB1ABB0AE2CFD8011596ED9144
:10050000FC911697309711F0C6010995F8011286F3
:1005100013A6A6CF898190E00E943620892B09F48A
:100520009FCFD8019B968C919B97803208F098CFF3
:1005300091E0980F9B969C932981F801E80FF11D9B
:100540002287F801E90FF11D12868ACF0F900F90D4
:100550000F90DF91CF911F910F91FF90EF90DF905F
:10056000CF90BF90AF909F908F907F906F905F9053
:100570004F903F902F900895AC01445D5F4FBC01B8
:10058000695F7F4F80E090E00C946A2068E171E041
:1005900088E493E00C94051DC0E0D0E000E010E09A
:1005A000CE01800F911F6AE570E0875C9D4F0E942D
:1005B000171764E170E080E090E00E94861D0D5FF7
:1005C0001F4F0930110561F72996C432D10521F377
:1005D000E5CFCF92DF92EF92FF920F931F93CF93CD
:1005E000DF9386EEE82E81E0F82EC0E0D0E06701D0
:1005F00000E010E0F601619171916F01CE01800F72
:10060000911F875C9D4F0E94DB1664E170E080E0E3
:1006100090E00E94861D0D5F1F4F0930110551F7B4
:10062000F6E0EF0EF11C2996C432D10501F7DF91F7
:10063000CF911F910F91FF90EF90DF90CF90089591
:10064000CF92DF92EF92FF920F931F93CF93DF939E
:1006500086EEE82E81E0F82EC0E0D0E0670100E0F1
:1006600010E0F601619171916F01CE01800F911F31
:10067000875C9D4F0E94DB1664E670E080E090E0AE
:100680000E94861D0D5F1F4F0930110551F7F6E0DE
:10069000EF0EF11C2996C432D10501F7DF91CF91FD
:1006A0001F910F91FF90EF90DF90CF900895809170
:1006B0005D0281110E94CC028EE592E00C940E0244
:1006C000CF936091FA027091FB028091FC029091AD
:1006D000FD02C1E020E030E048E452EC0E946318E3
:1006E0008111C0E08C2FCF9108952F923F924F92AD
:1006F0005F926F927F928F929F92AF92BF92CF92B2
:10070000DF92EF92FF920F931F93CF93DF93CDB7BA
:10071000DEB76A970FB6F894DEBF0FBECDBF1C01DF
:1007200049875A876B877C870D871E872F87388B71
:1007300020E030E04FE753E469857A858B859C851E
:100740000E9463188823A9F08CE0829DF001839DAC
:10075000F00D1124EE50FD4F2081318142815381F3
:1007600069857A858B859C850E9484174B015C0185
:1007700003C0812C912C540120E030E04FE753E47A
:100780006D857E858F8598890E9463188823B9F0CE
:100790008CE0829DF001839DF00D1124EE50FD4F01
:1007A00024813581468157816D857E858F85988925
:1007B0000E94841769837A838B839C8304C0198287
:1007C0001A821B821C8220E030E04FE753E4C7010D
:1007D000B6010E9463188823A9F08CE0829DF00185
:1007E000839DF00D1124EE50FD4F2085318542850B
:1007F0005385C701B6010E9484176D837E838F8362
:10080000988704C01D821E821F821886A50194014C
:10081000C501B4010E94161A2B013C0129813A81BD
:100820004B815C81CA01B9010E94161A9B01AC017F
:10083000C301B2010E9485172B013C012D813E812D
:100840004F815885CA01B9010E94161A9B01AC015B
:10085000C301B2010E9485170E94891A2B013C0135
:1008600080918E0290918F02A0919002B09191029E
:10087000898B9A8BAB8BBC8B809112019091130169
:10088000A0911401B09115018D8B9E8BAF8BB88F09
:100890008CE0829D8001839D100D1124D801AE56FD
:1008A000BD4FBA8FA98FA3019201C501B4010E9467
:1008B000681829893A894B895C890E94161A2D8902
:1008C0003E894F89588D0E94161AE98DFA8D6083F2
:1008D000718382839383A301920169817A818B81E1
:1008E0009C810E94681829893A894B895C890E94F9
:1008F000161A2D893E894F89588D0E94161AA98D86
:10090000BA8D14966D937D938D939C931797A30145
:1009100092016D817E818F8198850E946818298956
:100920003A894B895C890E94161A2D893E894F8924
:10093000588D0E94161AE98DFA8D6087718782871B
:10094000938720E030E04FE753E469857A858B8513
:100950009C850E946318882359F0F801EE53FD4FDF
:1009600089859A85AB85BC8580839183A283B38377
:1009700020E030E04FE753E46D857E858F859889D0
:100980000E946318882381F08CE0829DF001839D92
:10099000F00D1124EE53FD4F8D859E85AF85B889EE
:1009A00084839583A683B78320E030E04FE753E448
:1009B000C701B6010E946318882361F08CE0829D14
:1009C000F001839DF00D1124EE53FD4FC086D186BA
:1009D000E286F3866A960FB6F894DEBF0FBECDBFEF
:1009E000DF91CF911F910F91FF90EF90DF90CF900B
:1009F000BF90AF909F908F907F906F905F904F903F
:100A00003F902F900895CF92DF92EF92FF920F9335
:100A10001F930FB6F894A895809160008861809329
:100A20006000109260000FBE80915D02882341F04B
:100A30001F910F91FF90EF90DF90CF900C94E902FF
:100A400026E040E052EC61E070E088E493E00E9430
:100A5000BE1B6EE171E088E493E00E94051D60E03A
:100A60008EE00E94261E44E851E16AE371E08EE5C3
:100A700092E00E94D30166EC72E08EE592E00E9463
:100A80000A02C12CD12CA0EEEA2EA1ECFA2E00E035
:100A900010E020E232E440E050E068E772E480E0F9
:100AA00090E00E94750300E010E020E232E440E0B4
:100AB00050E068E772E481E090E00E94750300E096
:100AC00010E0980140E050E068E772E482E090E0D6
:100AD0000E94750300E010E0980140E050E068E7F4
:100AE00072E483E090E00E94750320E030E040E093
:100AF00050E0B901660F771F620F731FCB01840F9F
:100B0000951F880F991F880F991FFC01EE53FD4F09
:100B1000C080D180E280F380FC01EE50FD4FC082A6
:100B2000D182E282F3824F5F5F4F4330510531F74C
:100B30002F5F3F4F24303105D1F648E354E164E1A3
:100B400070E080E090E00E9423010E942F016CE39E
:100B500071E088E493E00E94051D0E94200362E595
:100B600071E088E493E00E94051D65E671E088E489
:100B700093E01F910F91FF90EF90DF90CF900C9436
:100B8000051D8F929F92AF92BF92CF92DF92EF920C
:100B9000FF920F931F93CF93DF932CE0AC01249F20
:100BA000C001259F900D11248C010E501D4FEC01AA
:100BB000CE53DD4F580154E0A50EB11C4E0184E028
:100BC000880E911C6801E8E0CE0ED11C7E01F8E091
:100BD000EF0EF11CF801608171818281938128817F
:100BE00039814A815B810E9463188111F3CFF5013D
:100BF0006081718182819381F40120813181428100
:100C000053810E9463188111E5CFF60160817181E3
:100C100082819381F70120813181428153810E9439
:100C200063188111D7CFDF91CF911F910F91FF9062
:100C3000EF90DF90CF90BF90AF909F908F900895EE
:100C400080E090E00E94C10581E090E00E94C10533
:100C500082E090E00E94C10583E090E00C94C10521
:100C6000CF92DF92EF92FF920F931F93CF93DF9378
:100C700080E090E0A0E8BFE380938E0290938F0223
:100C8000A0939002B0939102C0E0D0E0C12CD12C8F
:100C900080EEE82E81ECF82E00E010E02FE733E440
:100CA000B901A801CE010E9475032196C430D10577
:100CB00069F7DF91CF911F910F91FF90EF90DF9037
:100CC000CF900C942006CF92DF92EF92FF920F9379
:100CD0001F93CF93DF9380E090E0A0E8BFE3809381
:100CE0008E0290938F02A0939002B0939102C0E085
:100CF000D0E0C12CD12C88E4E82E82ECF82E00E064
:100D000010E02FE733E4B901A801CE010E9475037A
:100D10002196C430D10569F7DF91CF911F910F91D2
:100D2000FF90EF90DF90CF900C942006CF92DF924F
:100D3000EF92FF920F931F93CF93DF9340910E0199
:100D400050910F01609110017091110140938E023A
:100D500050938F026093900270939102EC01209760
:100D600009F4E9C160911A0370911B0380911C037F
:100D700090911D0320E030E0A9010E946318C12C6E
:100D8000D12C10EFE12E11ECF12E00E010E09801D3
:100D900040E050E068E772E48111EAC083E090E04F
:100DA0000E9475030E942006C12CD12C58E4E52E28
:100DB00052ECF52E00E010E020EA31E44FE65FE06F
:100DC00060E872E480E090E00E94750308E11EEAAA
:100DD00023E632E445E150EC66E072E481E090E025
:100DE0000E94750300E010E020EA31E44FE65FE086
:100DF00060E872E482E090E00E947503C12CD12C7F
:100E000060EFE62E61ECF62E08E11EEA23E632E4FE
:100E100045E150EC66E072E483E090E00E947503E7
:100E20000E942006C12CD12C78E4E72E72ECF72E1C
:100E300008E11EEA23E632E445E150EC66E072E4A4
:100E400083E090E00E9475030E94200600E010E01D
:100E500020EA31E44FE65FE060E872E480E090E091
:100E60000E94750308E11EEA23E632E445E150ECF6
:100E700066E072E481E090E00E94750300E010E01B
:100E800020EA31E44FE65FE060E872E482E090E05F
:100E90000E94750308E11EEA23E632E445E150ECC6
:100EA00066E072E483E090E00E9475030E942006F1
:100EB000C12CD12CE0EFEE2EE1ECFE2E08E11EEA73
:100EC00023E632E445E150EC66E072E481E090E034
:100ED0000E9475030E942006C12CD12CF8E4EF2E4D
:100EE000F2ECFF2E00E010E0980140E050E068E7EF
:100EF00072E480E090E00E947503C12CD12CA0EF39
:100F0000EA2EA1ECFA2E00E010E0980140E050E05B
:100F100068E772E481E090E00E947503C12CD12C57
:100F2000B8E4EB2EB2ECFB2E00E010E020E232E45D
:100F300040E050E068E772E482E090E00E947503D0
:100F400000E010E020E232E440E050E068E772E4C4
:100F500083E090E00E9475030E94200600E010E00C
:100F6000980140E050E068E772E481E090E0DDC085
:100F700080E090E00E9475030E94200608E11EEACE
:100F800023E632E445E150EC66E072E480E090E074
:100F90000E947503C12CD12C88E4E82E82ECF82E37
:100FA00000E010E020EA31E44FE65FE060E872E440
:100FB00081E090E00E94750308E11EEA23E632E436
:100FC00045E150EC66E072E482E090E00E94750337
:100FD00000E010E020EA31E44FE65FE060E872E410
:100FE00083E090E00E9475030E94200608E11EEA5B
:100FF00023E632E445E150EC66E072E480E090E004
:101000000E9475030E94200608E11EEA23E632E4EE
:1010100045E150EC66E072E480E090E00E947503E8
:1010200000E010E020EA31E44FE65FE060E872E4BF
:1010300081E090E00E94750308E11EEA23E632E4B5
:1010400045E150EC66E072E482E090E00E947503B6
:1010500000E010E020EA31E44FE65FE060E872E48F
:1010600083E090E00E9475030E942006C12CD12CE1
:1010700090EFE92E91ECF92E08E11EEA23E632E426
:1010800045E150EC66E072E482E090E00E94750376
:101090000E942006C12CD12C28E4E22E22ECF22E54
:1010A00000E010E020E232E440E050E068E772E463
:1010B00080E090E00E94750300E010E020E232E45E
:1010C00040E050E068E772E481E090E00E94750340
:1010D000C12CD12C30EFE32E31ECF32E00E010E0E8
:1010E000980140E050E068E772E482E090E00E94FE
:1010F0007503C12CD12C48E4E42E42ECF42E00E020
:1011000010E0980140E050E068E772E483E090E08E
:101110000E9475030E94200600E010E0980140E064
:1011200050E068E772E482E090E00E9475030E945C
:101130002006219714CEDF91CF911F910F91FF9040
:10114000EF90DF90CF900895CF92DF92EF92FF92D1
:101150000F931F93CF93DF9340910E0150910F0196
:10116000609110017091110140938E0250938F0293
:101170006093900270939102EC01209709F4E9C109
:1011800060910E0370910F038091100390911103F1
:1011900020E030E0A9010E946318C12CD12C10EF8F
:1011A000E12E11ECF12E00E010E0980140E050E05B
:1011B00068E772E48111DEC082E090E00E9475036E
:1011C0000E942006C12CD12C78E4E72E72ECF72E79
:1011D00008E11EEA23E632E445E150EC66E072E401
:1011E00080E090E00E94750300E010E020EA31E426
:1011F0004FE65FE060E872E481E090E00E947503F2
:10120000C12CD12CE0EFEE2EE1ECFE2E08E11EEA1F
:1012100023E632E445E150EC66E072E482E090E0DF
:101220000E947503C12CD12CF8E4EF2EF2ECFF2EB6
:1012300000E010E020EA31E44FE65FE060E872E4AD
:1012400083E090E00E9475030E94200608E11EEAF8
:1012500023E632E445E150EC66E072E482E090E09F
:101260000E9475030E94200608E11EEA23E632E48C
:1012700045E150EC66E072E480E090E00E94750386
:1012800000E010E020EA31E44FE65FE060E872E45D
:1012900081E090E00E94750308E11EEA23E632E453
:1012A00045E150EC66E072E482E090E00E94750354
:1012B00000E010E020EA31E44FE65FE060E872E42D
:1012C00083E090E00E9475030E942006C12CD12C7F
:1012D000A0EFEA2EA1ECFA2E08E11EEA23E632E4A2
:1012E00045E150EC66E072E480E090E00E94750316
:1012F0000E94200600E010E0980140E050E068E71E
:1013000072E480E090E00E947503C12CD12CB8E417
:10131000EB2EB2ECFB2E00E010E0980140E050E034
:1013200068E772E481E090E00E94750300E010E05D
:1013300020E232E440E050E068E772E482E090E0CE
:101340000E94750300E010E020E232E440E050E04B
:1013500068E772E483E090E00E9475030E94200633
:1013600000E010E0980140E050E068E772E480E0BF
:1013700090E0E9C081E090E00E9475030E942006A1
:10138000C12CD12C88E4E82E82ECF82E00E010E08D
:1013900020EA31E44FE65FE060E872E480E090E04C
:1013A0000E947503C12CD12C90EFE92E91ECF92EFF
:1013B00008E11EEA23E632E445E150EC66E072E41F
:1013C00081E090E00E947503C12CD12C28E4E22E2C
:1013D00022ECF22E00E010E020EA31E44FE65FE07C
:1013E00060E872E482E090E00E94750308E11EEA82
:1013F00023E632E445E150EC66E072E483E090E0FD
:101400000E9475030E94200608E11EEA23E632E4EA
:1014100045E150EC66E072E481E090E00E947503E3
:101420000E94200600E010E020EA31E44FE65FE091
:1014300060E872E480E090E00E94750308E11EEA33
:1014400023E632E445E150EC66E072E481E090E0AE
:101450000E94750300E010E020EA31E44FE65FE00F
:1014600060E872E482E090E00E94750308E11EEA01
:1014700023E632E445E150EC66E072E483E090E07C
:101480000E9475030E942006C12CD12C30EFE32E60
:1014900031ECF32E08E11EEA23E632E445E150EC9C
:1014A00066E072E483E090E00E9475030E942006EB
:1014B000C12CD12C48E4E42E42ECF42E00E010E0E4
:1014C00020E232E440E050E068E772E480E090E03F
:1014D0000E94750300E010E020E232E440E050E0BA
:1014E00068E772E481E090E00E94750300E010E09C
:1014F000980140E050E068E772E482E090E00E94EA
:101500007503C12CD12C50EFE52E51ECF52E00E0E7
:1015100010E0980140E050E068E772E483E090E07A
:101520000E9475030E942006C12CD12C68E4E62E8F
:1015300062ECF62E00E010E0980140E050E068E731
:1015400072E483E090E00E9475030E9420062197D8
:1015500014CEDF91CF911F910F91FF90EF90DF900C
:10156000CF900895CF92DF92EF92FF920F931F9347
:10157000CF93DF9340910A0150910B0160910C01D0
:1015800070910D0140938E0250938F0260939002F0
:1015900070939102EC01209709F475C160910E03DC
:1015A00070910F03809110039091110320E030E0BF
:1015B000A9010E946318C12CD12C60EFE62E61ECCA
:1015C000F62E00E010E0980140E050E068E772E499
:1015D0008111AAC082E090E00E9475030E9420065B
:1015E00000E010E020EA32E440E050E068E772E416
:1015F00082E090E00E9475030E942006C12CD12C4D
:1016000038E4E32E32ECF32E00E010E020EA32E47E
:1016100040E050E068E772E482E090E00E947503E9
:101620000E9420068091060190910701A091080177
:10163000B091090180938E0290938F02A093900243
:10164000B093910200E010E0980140E050E068E7BC
:1016500072E480E090E00E94750300E010E020EA70
:1016600032E440E050E068E772E481E090E00E94FC
:10167000750300E010E020E232E440E050E068E76B
:1016800072E482E090E00E94750300E010E020E246
:1016900032E440E050E068E772E483E090E00E94CA
:1016A00075030E94200680910A0190910B01A09180
:1016B0000C01B0910D0180938E0290938F02A09344
:1016C0009002B0939102C12CD12C40EFE42E41EC5A
:1016D000F42E00E010E020EA32E440E050E068E759
:1016E00072E481E090E00E9475030E94200600E011
:1016F00010E0980140E050E068E772E481E090E09B
:101700000E9475030E942006C12CD12C58E4E52EBE
:1017100052ECF52E00E010E0980140E050E068E760
:1017200072E481E090E0A9C080E090E00E9475033F
:101730000E94200600E010E020EA32E440E050E0A1
:1017400068E772E480E090E00E9475030E94200642
:10175000C12CD12C88E4E82E82ECF82E00E010E0B9
:1017600020EA32E440E050E068E772E480E090E094
:101770000E9475030E942006809106019091070146
:10178000A0910801B091090180938E0290938F027D
:10179000A0939002B093910200E010E020E232E4C6
:1017A00040E050E068E772E480E090E00E9475035A
:1017B00000E010E020E232E440E050E068E772E44C
:1017C00081E090E00E94750300E010E0980140E0A5
:1017D00050E068E772E482E090E00E94750300E068
:1017E00010E020EA32E440E050E068E772E483E091
:1017F00090E00E9475030E94200680910A0190915A
:101800000B01A0910C01B0910D0180938E02909379
:101810008F02A0939002B0939102C12CD12C90EF33
:10182000E92E91ECF92E00E010E020EA32E440E0ED
:1018300050E068E772E483E090E00E9475030E9444
:10184000200600E010E0980140E050E068E772E414
:1018500083E090E00E9475030E942006C12CD12CE9
:1018600028E4E22E22ECF22E00E010E0980140E0A5
:1018700050E068E772E483E090E00E9475030E9404
:101880002006219788CEDF91CF911F910F91FF9075
:10189000EF90DF90CF900895CF92DF92EF92FF927A
:1018A0000F931F93CF93DF9340910A0150910B0147
:1018B00060910C0170910D0140938E0250938F0244
:1018C0006093900270939102EC01209709F475C126
:1018D00060911A0370911B0380911C0390911D036A
:1018E00020E030E0A9010E946318C12CD12C60EFE8
:1018F000E62E61ECF62E00E010E0980140E050E0AA
:1019000068E772E48111AAC083E090E00E94750349
:101910000E94200600E010E020EA32E440E050E0BF
:1019200068E772E483E090E00E9475030E9420065D
:10193000C12CD12C38E4E32E32ECF32E00E010E081
:1019400020EA32E440E050E068E772E483E090E0AF
:101950000E9475030E942006809106019091070164
:10196000A0910801B091090180938E0290938F029B
:10197000A0939002B093910200E010E020EA32E4DC
:1019800040E050E068E772E480E090E00E94750378
:1019900000E010E0980140E050E068E772E481E088
:1019A00090E00E94750300E010E020E232E440E0A5
:1019B00050E068E772E482E090E00E94750300E086
:1019C00010E020E232E440E050E068E772E483E0B7
:1019D00090E00E9475030E94200680910A01909178
:1019E0000B01A0910C01B0910D0180938E02909398
:1019F0008F02A0939002B0939102C12CD12C40EFA2
:101A0000E42E41ECF42E00E010E020EA32E440E065
:101A100050E068E772E480E090E00E9475030E9465
:101A2000200600E010E0980140E050E068E772E432
:101A300080E090E00E9475030E942006C12CD12C0A
:101A400058E4E52E52ECF52E00E010E0980140E05D
:101A500050E068E772E480E090E0A9C081E090E0A7
:101A60000E9475030E94200600E010E020EA32E4A4
:101A700040E050E068E772E481E090E00E94750386
:101A80000E942006C12CD12C88E4E82E82ECF82E8E
:101A900000E010E020EA32E440E050E068E772E461
:101AA00081E090E00E9475030E942006809106016B
:101AB00090910701A0910801B091090180938E02D5
:101AC00090938F02A0939002B093910200E010E0F7
:101AD00020E232E440E050E068E772E480E090E029
:101AE0000E94750300E010E020E232E440E050E0A4
:101AF00068E772E481E090E00E94750300E010E086
:101B000020EA32E440E050E068E772E482E090E0EE
:101B10000E94750300E010E0980140E050E068E7A3
:101B200072E483E090E00E9475030E942006809199
:101B30000A0190910B01A0910C01B0910D018093CD
:101B40008E0290938F02A0939002B0939102C12CC9
:101B5000D12C90EFE92E91ECF92E00E010E020EA74
:101B600032E440E050E068E772E482E090E00E94F6
:101B700075030E94200600E010E0980140E050E06C
:101B800068E772E482E090E00E9475030E942006FC
:101B9000C12CD12C28E4E22E22ECF22E00E010E041
:101BA000980140E050E068E772E482E090E00E9433
:101BB00075030E942006219788CEDF91CF911F9157
:101BC0000F91FF90EF90DF90CF9008958F929F92AA
:101BD000AF92BF92CF92DF92EF92FF920F931F933B
:101BE000CF93DF93C2EFD2E0C880D980EA80FB8038
:101BF000BC01990F880B990B0E9412194B015C01D3
:101C00009B01AC01C701B6010E948517AB01BC0165
:101C1000C12CD12C8FE7E82E83E4F82E97018601A2
:101C200080E090E00E9475032C853D854E855F85A0
:101C3000C501B4010E948517AB01BC019701860163
:101C400081E090E00E947503688D798D8A8D9B8D6F
:101C5000A50194010E948417AB01BC019701860184
:101C600082E090E00E9475036CA17DA18EA19FA1EE
:101C7000A50194010E948417AB01BC019701860164
:101C800083E090E00E947503DF91CF911F910F9147
:101C9000FF90EF90DF90CF90BF90AF909F908F908C
:101CA0000C9420068F929F92AF92BF92CF92DF92B8
:101CB000EF92FF920F931F93CF93DF93C2EFD2E087
:101CC000C880D980EA80FB80BC01990F880B990BF2
:101CD0000E9412194B015C019B01AC01C701B601C6
:101CE0000E948417AB01BC01C12CD12C8FE7E82ED8
:101CF00083E4F82E9701860180E090E00E9475034E
:101D00006C857D858E859F85A50194010E94841731
:101D1000AB01BC019701860181E090E00E94750350
:101D2000288D398D4A8D5B8DC501B4010E948517C0
:101D3000AB01BC019701860182E090E00E9475032F
:101D40002CA13DA14EA15FA1C501B4010E94851740
:101D5000AB01BC019701860183E090E00E9475030E
:101D6000DF91CF911F910F91FF90EF90DF90CF9077
:101D7000BF90AF909F908F900C9420062F923F922F
:101D80004F925F926F927F928F929F92AF92BF928B
:101D9000CF92DF92EF92FF920F931F93CF93DF9337
:101DA00000D000D000D0CDB7DEB71C0180E090E0BD
:101DB000A0E8BFE380938E0290938F02A0939002DD
:101DC000B093910260911A0370911B0380911C03E0
:101DD00090911D0320E030E0A9010E946318811159
:101DE00095C08FE090E00E94520E80910A0390917E
:101DF0000B03A0910C03B0910D0389839A83AB83ED
:101E0000BC8380900E0390900F03A0901003B090BD
:101E100011034090120350901303609014037090CC
:101E200015038091060190910701A0910801B091DE
:101E3000090180938E0290938F02A0939002B09339
:101E400091021E821D82AD81BE81A215B30544F5AB
:101E5000C12CD12C98E4E92E92E4F92E00E010E098
:101E600020EA31E44FE65FE060E872E482E090E06F
:101E70000E9475030E94200608E11EEA23E632E470
:101E800045E150EC66E072E482E090E00E94750368
:101E90000E9420068D819E8101969E838D83D3CFE3
:101EA000730162019501840149815A816B817C81B2
:101EB00082E090E00E9475030E94200680E090E09E
:101EC000A0E8BFE380938E0290938F02A0939002CC
:101ED000B09391028FE090E026960FB6F894DEBFA3
:101EE0000FBECDBFDF91CF911F910F91FF90EF906B
:101EF000DF90CF90BF90AF909F908F907F906F902A
:101F00005F904F903F902F900C94E60D8FE090E003
:101F10000E94E60D8091F2029091F302A091F402EA
:101F2000B091F50289839A83AB83BC838090F602DB
:101F30009090F702A090F802B090F9024090FA0257
:101F40005090FB026090FC027090FD0280910601AF
:101F500090910701A0910801B091090180938E0230
:101F600090938F02A0939002B09391021E821D82E3
:101F7000AD81BE81A215B30544F5C12CD12C88E4F6
:101F8000E82E82E4F82E00E010E020EA31E44FE68B
:101F90005FE060E872E480E090E00E9475030E94D8
:101FA000200608E11EEA23E632E445E150EC66E053
:101FB00072E480E090E00E9475030E9420068D810B
:101FC0009E8101969E838D83D3CF7301620195011B
:101FD000840149815A816B817C8180E090E00E947C
:101FE00075030E94200680E090E0A0E8BFE38093A4
:101FF0008E0290938F02A0939002B09391028FE093
:1020000090E026960FB6F894DEBF0FBECDBFDF91ED
:10201000CF911F910F91FF90EF90DF90CF90BF90E5
:10202000AF909F908F907F906F905F904F903F9078
:102030002F900C94520E2F923F924F925F926F927C
:102040007F928F929F92AF92BF92CF92DF92EF9248
:10205000FF920F931F93CF93DF9300D000D000D057
:10206000CDB7DEB71C0180E090E0A0E8BFE380932D
:102070008E0290938F02A0939002B0939102609190
:102080001A0370911B0380911C0390911D0320E0A3
:1020900030E0A9010E94631881119BC08FE090E09D
:1020A0000E94520E80910A0390910B03A0910C03A1
:1020B000B0910D0389839A83AB83BC8380900E0318
:1020C00090900F03A0901003B09011034090120362
:1020D00050901303609014037090150380910601D3
:1020E00090910701A0910801B091090180938E029F
:1020F00090938F02A0939002B09391021E821D8252
:10210000AD81BE81A215B30574F5C12CD12C2CE58F
:10211000E22E22E4F22E00E010E020EA32E440E079
:1021200050E060E072E482E090E00E9475030E945B
:102130002006C12CD12C30E2E32E31E4F32E00E056
:1021400010E020EA32E440E050E060E072E482E037
:1021500090E00E9475030E9420068D819E81019669
:102160009E838D83CDCF73016201950184014981E6
:102170005A816B817C8182E090E00E9475030E940D
:10218000200680E090E0A0E8BFE380938E02909369
:102190008F02A0939002B09391028FE090E0269678
:1021A0000FB6F894DEBF0FBECDBFDF91CF911F9168
:1021B0000F91FF90EF90DF90CF90BF90AF909F90E6
:1021C0008F907F906F905F904F903F902F900C94E6
:1021D000E60D8FE090E00E94E60D8091F202909172
:1021E000F302A091F402B091F50289839A83AB8344
:1021F000BC838090F6029090F702A090F802B09015
:10220000F9024090FA025090FB026090FC0270903C
:10221000FD028091060190910701A0910801B09103
:10222000090180938E0290938F02A0939002B09345
:1022300091021E821D82AD81BE81A215B30574F587
:10224000C12CD12C8CE5E82E82E4F82E00E010E0C1
:1022500020EA32E440E050E060E072E480E090E0A8
:102260000E9475030E942006C12CD12C90E2E92E19
:1022700091E4F92E00E010E020EA32E440E050E082
:1022800060E072E480E090E00E9475030E94200606
:102290008D819E8101969E838D83CDCF73016201D6
:1022A0009501840149815A816B817C8180E090E0B5
:1022B0000E9475030E94200680E090E0A0E8BFE342
:1022C00080938E0290938F02A0939002B09391021C
:1022D0008FE090E026960FB6F894DEBF0FBECDBF1C
:1022E000DF91CF911F910F91FF90EF90DF90CF90F2
:1022F000BF90AF909F908F907F906F905F904F9026
:102300003F902F900C94520E0F931F93CF93DF9317
:1023100063EC71E088E493E00E94051D8EE592E095
:102320000E94BC020E9416208C018EE592E00E9461
:10233000BC020E941620EC010730110508F07FC096
:10234000F801EC5CFF4F0C94301F69E871E088E401
:1023500093E00E94051D0E946003811102C00E944B
:102360006306CE01DF91CF911F910F910C94B20AB9
:1023700066E971E088E493E00E94051D0E94600315
:10238000811102C00E946306CE01DF91CF911F919F
:102390000F910C944C0C60EA71E088E493E00E9489
:1023A000051D0E946003811102C00E946306CE01D8
:1023B000DF91CF911F910F910C9496066AEA71E01C
:1023C00088E493E00E94051D0E946003811102C011
:1023D0000E946306CE01DF91CF911F910F910C9463
:1023E000A4086BEC71E088E493E00E94051DCD2BFE
:1023F00031F0DF91CF911F910F910C946306DF9123
:10240000CF911F910F910C94300665ED71E088E437
:1024100093E00E94051DCE01DF91CF911F910F9196
:102420000C941B1065EB71E088E493E00E94051D9D
:10243000CE01DF91CF911F910F910C94BE0E60EEF3
:1024400071E088E493E0DF91CF911F910F910C949C
:10245000051D2F923F924F925F926F927F928F92C3
:102460009F92AF92BF92CF92DF92EF92FF920F9323
:102470001F93CF93DF93CDB7DEB76C970FB6F89469
:10248000DEBF0FBECDBF1C017E876D87588B4F8787
:1024900009831A832B833C83CD82DE82EF82F88608
:1024A00089869A86AB86BC8669817A818B819C817C
:1024B00020E030E0A9010E94091A87FD07C0C12C65
:1024C000D12C90E8E92E9FE3F92E06C0C12CD12C27
:1024D00080E8E82E8FEBF82E69817A818B819C81D0
:1024E0008D809E80AF80B8849B01AC010E94161A3B
:1024F0002B013C01A5019401C501B4010E94161AEB
:102500009B01AC01C301B2010E9485170E94891A88
:102510009B01AC01C701B6010E94161A6B017C0138
:1025200020E030E04CED51E40E9484172B013C0187
:1025300069857A858B859C85A30192010E94041888
:10254000698B7A8B8B8B9C8BA3019201C301B201A7
:102550000E94161A2B013C0189849A84AB84BC84A6
:1025600069857A858B859C859B01AC010E94161A32
:10257000A30192010E9485170E94891A6D8B7E8BA0
:102580008F8B988F20E034E54AE355E4C301B20114
:102590000E948417698F7A8F8B8F9C8FA50194017D
:1025A000C501B4010E94161A9B01AC01698D7A8D98
:1025B0008B8D9C8D0E94851720E030E040E05FE32A
:1025C0000E94161A20E030E04CE552E40E946818A0
:1025D0002D893E894F89588D0E9468180E94731773
:1025E0009B01AC0169897A898B899C890E94851736
:1025F000F101608371838283938389849A84AB849D
:10260000BC84A301920160E07DE18DE096E40E942C
:1026100084172B013C01A5019401C501B4010E945E
:10262000161A9B01AC01C301B2010E94841720E07D
:1026300030E040E05FE30E94161A20E030E04CE515
:1026400052E40E94681820E030E04BE952E40E9416
:1026500068180E947317ED85FE85608371838283FD
:10266000938320E030E0A901C701B6010E94091A56
:1026700087FD09C029813A814B815C816D817E8112
:102680008F8198850EC049815A816B817C818D81B3
:102690009E81AF81B8859A01AB015058BC01CD0134
:1026A00090580E940418EF85F889608371838283B3
:1026B0009383F10160817181828193812AED3FE0F2
:1026C00049E450E40E94681820E030E044E353E419
:1026D0000E94161AF1016083718382839383ED85D2
:1026E000FE8560817181828193812AED3FE049E41A
:1026F00050E40E94681820E030E044E353E40E9474
:10270000161AED85FE856083718382839383EF853E
:10271000F88960817181828193812AED3FE049E4EB
:1027200050E40E94681820E030E044E353E40E9443
:10273000161AEF85F88960837183828393836C9680
:102740000FB6F894DEBF0FBECDBFDF91CF911F91C2
:102750000F91FF90EF90DF90CF90BF90AF909F9040
:102760008F907F906F905F904F903F902F90089543
:102770004F925F926F927F928F929F92AF92BF9291
:10278000CF92DF92EF92FF920F931F93CF93DF933D
:10279000EC014A015B0128013901009799F4A50178
:1027A000940160E070E084EB92E40E9484174B0196
:1027B0005C0120E030E044EB52E4C701B6010E9426
:1027C00085171FC001970297F8F420E030E044EB32
:1027D00052E4C501B4010E9485174B015C01A301BD
:1027E000920160E070E084E393E40E9484172B017F
:1027F0003C01A701960160E070E084EB92E40E9446
:1028000084176B017C0103C0C330D10541F2C501BF
:10281000B4010E94DA1829E02C9F80012D9F100D31
:102820001124C801875C9D4F0E941717C301B20194
:102830000E94DA18C801845C9D4F0E941717C701D7
:10284000B6010E94DA18C801815C9D4FDF91CF91DB
:102850001F910F91FF90EF90DF90CF90BF90AF90BE
:102860009F908F907F906F905F904F900C94171770
:102870002F923F924F925F926F927F928F929F9290
:10288000AF92BF92CF92DF92EF92FF920F931F937E
:10289000CF93DF9300D000D0CDB7DEB7789462E954
:1028A000662E62E0762E1C821B827A82698200E0AC
:1028B00010E02B803C80220C331C2B813C81220EAB
:1028C000331E21017101E00EF11E9701220F331F0B
:1028D000220F331FA9014E505D4F6A01FA0160813A
:1028E000718182819381A9014E535D4F7A01FA0172
:1028F00020813181428153810E94841720E030E0A1
:10290000A9010E94091AF601181674F460817181F8
:1029100082819381F70120813181428153810E941C
:1029200084176B017C0111C0608171818281938168
:10293000F70120813181428153810E9484176B010C
:102940007C01F7FAF094F7F8F094E981FA8181902C
:102950009190A190B190FA83E98320E030E0A90141
:10296000C501B4010E94091AA501940118160CF0C2
:102970005058C701B6010E94091A87FD1BC0720199
:10298000E00EF11EC701880F991F880F991F9C0147
:102990002E503D4F7901F9012081318142815381CF
:1029A000C501B4010E948517F7016083718382839A
:1029B000938315C0C201800F911F880F991F880F44
:1029C000991FFC01EE53FD4F40815181628173815B
:1029D000FC01EE50FD4F40835183628373830F5F90
:1029E0001F4F0330110509F06DCF4CE02B813C8166
:1029F000429FF001439FF00D1124EE50FD4F808463
:102A00009184A284B384C480D580E680F78000815D
:102A10001181228133814DE252E061E372E085E36E
:102A200092E00E942912C0902D02D0902E02E090D8
:102A30002F02F09030020091310210913202209169
:102A40003302309134024091350250913602609148
:102A50003702709138028B819C810E94B8138B8160
:102A60009C8101969C838B839CE0690E711CEB8199
:102A7000FC81349709F019CF80918C0290918D02DE
:102A8000019690938D0280938C020F900F900F907F
:102A90000F90DF91CF911F910F91FF90EF90DF90FA
:102AA000CF90BF90AF909F908F907F906F905F90EE
:102AB0004F903F902F9008950F931F93CF93DF93E4
:102AC00068E473E08EE592E00E94BA01C9E3D2E0C7
:102AD0000DE512E0CE010E943F16CE0103960E9442
:102AE0003F16CE0106960E943F1629960C171D0729
:102AF00089F7DF91CF911F910F9108951F920F9247
:102B00000FB60F9211242F933F934F935F936F93C0
:102B10007F938F939F93AF93BF93EF93FF93809196
:102B2000230387FF05C010928500109284001BC00C
:102B300020912303022E000C330B8091220390E09E
:102B40002817390784F480912303082E000C990B71
:102B5000FC01EE0FFF1F8E0F9F1FFC01EC5DFC4F71
:102B6000808186FD15C0809123038F5F80932303AE
:102B700020912303022E000C330B8091220390E05E
:102B800028173907C4F4809123038C3064F113C0F3
:102B900080912303082E000C990BFC01EE0FFF1F00
:102BA0008E0F9F1FFC01EC5DFC4F808160E08F73F6
:102BB0000E94621ED8CF8091840090918500049677
:102BC00080349C4918F480E49CE905C0809184001D
:102BD00090918500049690938900809388008FEFF0
:102BE000809323033BC02091840030918500809125
:102BF0002303082E000C990BFC01EE0FFF1F8E0F14
:102C00009F1FFC01EC5DFC4F81819281820F931F1D
:102C1000909389008093880080912303082E000CF4
:102C2000990BFC01EE0FFF1F8E0F9F1FFC01EC5D47
:102C3000FC4F808186FF12C080912303082E000C78
:102C4000990BFC01EE0FFF1F8E0F9F1FFC01EC5D27
:102C5000FC4F808161E08F730E94621EFF91EF91B3
:102C6000BF91AF919F918F917F916F915F914F91A4
:102C70003F912F910F900FBE0F901F901895FC0160
:102C8000909122039C30A0F481E0890F809322036D
:102C90009083892F90E0FC01EE0FFF1F8E0F9F1F86
:102CA000FC01EC5DFC4F88EB9BE0928381830895EF
:102CB0008FEF80830895DF92EF92FF920F931F931F
:102CC000CF93DF93EC01D62E7A01890188818C3075
:102CD00008F068C061E08D2D0E94261E8881E82FD3
:102CE000F0E09F01220F331FE20FF31FEC5DFC4F5A
:102CF0009D2D9F732081207CD22ED92AD08220E264
:102D000032E02E193F0937FF02C02D5F3F4F359546
:102D1000279535952795298320E639E0201B310B2F
:102D200037FF02C02D5F3F4F359527953595279585
:102D30002A832CE0622F0E94E31E289FB0011124F9
:102D400040E050E09B01240F351FF901EE0FFF1FFB
:102D50002E0F3F1FF901EC5DFC4F908196FD16C0D0
:102D60004F5F5F4F4C30510569F781110FC01092D2
:102D7000800082E080938100109285001092840090
:102D8000B19A80916F00826080936F00E881F0E0DB
:102D9000CF01880F991FE80FF91FEC5DFC4F808170
:102DA000806480838881DF91CF911F910F91FF9084
:102DB000EF90DF90089520E639E040E252E00C9475
:102DC0005B16FC0190819C3088F5818128E830E019
:102DD000281B310987FD3395220F331F220F331F24
:102DE0006217730784F0828148E552E0481B51095D
:102DF00087FD5395440F551F440F551F9B014617E0
:102E000057070CF49A0122503109220F331F4FB794
:102E1000F894892F90E0FC01EE0FFF1F8E0F9F1F8B
:102E2000FC01EC5DFC4F328321834FBF0895AF92CC
:102E3000BF92CF92DF92EF92FF920F931F93CF93A7
:102E4000DF93EC01603282E078070CF03FC077FD41
:102E500006C0653B71052CF064EB70E002C060E0D9
:102E600070E0898128E830E05901A81AB10887FD8F
:102E7000B394AA0CBB1CAA0CBB1C0B2C000CCC08DA
:102E8000DD08072E000C880B990B2A8108E512E05B
:102E9000021B110927FD1395000F111F000F111FB1
:102EA000012E000C220B330B3F932F931F930F9394
:102EB00014EBE12EF12C00E010E020E030E0A9015D
:102EC0000E94911E0F900F900F900F90CE01DF91F6
:102ED000CF911F910F91FF90EF90DF90CF90BF9017
:102EE000AF900C94E1169F939F770E944D190F901D
:102EF000002042F49058A2EA2AED3FE049E450E471
:102F00000E949C170C94CF195058BB27AA270E94E7
:102F10009C170C94CF190E94C11938F00E94C8194F
:102F200020F039F49F3F19F426F40C9497190EF40D
:102F3000E095E7FB0C949119E92F0E94E01958F3F2
:102F4000BA17620773078407950720F079F4A6F58E
:102F50000C94021A0EF4E0950B2EBA2FA02D0B0143
:102F6000B90190010C01CA01A0011124FF27591BCE
:102F700099F0593F50F4503E68F11A16F040A22FD4
:102F8000232F342F4427585FF3CF46953795279545
:102F9000A795F0405395C9F77EF41F16BA0B620B44
:102FA000730B840BBAF09150A1F0FF0FBB1F661F8B
:102FB000771F881FC2F70EC0BA0F621F731F841FCE
:102FC00048F4879577956795B795F7959E3F08F0F4
:102FD000B0CF9395880F08F09927EE0F97958795B6
:102FE00008950E94C11960F080E891E009F49EEF15
:102FF0000E94C81928F040E851E071F45EEF0CC05F
:103000000C9497190C94021AE92FE0780E94E019A9
:1030100040F3092E052AB1F3261737074807590749
:1030200038F00E2E07F8E02569F0E025E0640AC0CC
:10303000EF6307F8009407FADB01B9019D01DC0199
:10304000CA01AD01EF930E947F180E94CF190E9420
:1030500034185F91552339F02BED3FE049E450FDE2
:1030600049EC0C9485170895DF93DD27B92FBF77BE
:1030700040E85FE31616170648075B0718F4D92FD8
:103080000E940E1A9F938F937F936F930E94C91A89
:10309000E6E7F0E00E949A190E94CF192F913F9124
:1030A0004F915F910E94291ADD2351F09058A2EAB6
:1030B0002AED3FE049EC5FE3D0785D270E949C1742
:1030C000DF910C94CF190E946D1908F481E00895E6
:1030D0000E947C180C94CF190E94C81958F00E94C5
:1030E000C11940F029F45F3F29F00C949119511156
:1030F0000C94031A0C9497190E94E01968F3992311
:10310000B1F3552391F3951B550BBB27AA276217E3
:103110007307840738F09F5F5F4F220F331F441FF0
:10312000AA1FA9F335D00E2E3AF0E0E832D0915024
:103130005040E695001CCAF72BD0FE2F29D0660F11
:10314000771F881FBB1F261737074807AB07B0E854
:1031500009F0BB0B802DBF01FF2793585F4F3AF05A
:103160009E3F510578F00C9491190C94031A5F3F1F
:10317000E4F3983ED4F3869577956795B795F795E0
:103180009F5FC9F7880F911D9695879597F90895C8
:10319000E1E0660F771F881FBB1F62177307840764
:1031A000BA0720F0621B730B840BBA0BEE1F88F773
:1031B000E09508950E94E1186894B1110C94031AE7
:1031C00008950E94E81988F09F5798F0B92F992721
:1031D000B751B0F0E1F0660F771F881F991F1AF002
:1031E000BA95C9F714C0B13091F00E94021AB1E04B
:1031F00008950C94021A672F782F8827B85F39F04A
:10320000B93FCCF3869577956795B395D9F73EF49A
:1032100090958095709561957F4F8F4F9F4F089542
:10322000E89409C097FB3EF4909580957095619560
:103230007F4F8F4F9F4F9923A9F0F92F96E9BB2716
:103240009395F695879577956795B795F111F8CF92
:10325000FAF4BB0F11F460FF1BC06F5F7F4F8F4FFD
:103260009F4F16C0882311F096E911C0772321F0F3
:103270009EE8872F762F05C0662371F096E8862F8B
:1032800070E060E02AF09A95660F771F881FDAF7E2
:10329000880F9695879597F90895DF93CF931F939D
:1032A0000F938B01EC01E3EAF0E00E949A190E946F
:1032B000CF199801AE018B01EC0160E070E080E86D
:1032C0009FE30E9484170E94891A9801AE010F9112
:1032D0001F91CF91DF910C94291A990F0008550F77
:1032E000AA0BE0E8FEEF16161706E807F907C0F08C
:1032F00012161306E407F50798F0621B730B840B94
:10330000950B39F40A2661F0232B242B252B21F46D
:1033100008950A2609F4A140A6958FEF811D811D0D
:10332000089597F99F6780E870E060E008959FEF47
:1033300080EC0895DF93CF931F930F93FF92EF924A
:10334000DF927B018C01689406C0DA2EEF010E94A7
:10335000291AFE01E894A591259135914591559141
:10336000A6F3EF010E949C17FE019701A801DA94D1
:1033700069F7DF90EF90FF900F911F91CF91DF9150
:10338000089500240A9416161706180609060895CB
:1033900000240A9412161306140605060895092E31
:1033A0000394000C11F4882352F0BB0F40F4BF2BA0
:1033B00011F460FF04C06F5F7F4F8F4F9F4F0895E0
:1033C00057FD9058440F551F59F05F3F71F04795D6
:1033D000880F97FB991F61F09F3F79F087950895BB
:1033E000121613061406551FF2CF4695F1DF08C0DA
:1033F000161617061806991FF1CF869571056105F7
:1034000008940895E894BB2766277727CB0197F99E
:1034100008950E946D1908F48FEF08959B01AC0187
:1034200060E070E080E89FE30C9468180E94291A1D
:103430000C94CF190E94C11938F00E94C81920F0CD
:10344000952311F00C9491190C94971911240C9454
:10345000031A0E94E01970F3959FC1F3950F50E095
:10346000551F629FF001729FBB27F00DB11D639F36
:10347000AA27F00DB11DAA1F649F6627B00DA11DDC
:10348000661F829F2227B00DA11D621F739FB00D82
:10349000A11D621F839FA00D611D221F749F3327F2
:1034A000A00D611D231F849F600D211D822F762F8B
:1034B0006A2F11249F5750409AF0F1F088234AF068
:1034C000EE0FFF1FBB1F661F771F881F91505040D4
:1034D000A9F79E3F510580F00C9491190C94031AA2
:1034E0005F3FE4F3983ED4F3869577956795B7955B
:1034F000F795E7959F5FC1F7FE2B880F911D969575
:10350000879597F9089519F416F40C9497190C946B
:10351000CD1A0E94E819B8F39923C9F3B6F39F575F
:10352000550B87FF0E94DB1A0024A0E640EA9001B9
:1035300080585695979528F4805C660F771F881FF2
:1035400020F026173707480730F4621B730B840BF3
:10355000202931294A2BA695179407942025312537
:103560004A2758F7660F771F881F20F0261737075E
:10357000480730F4620B730B840B200D311D411D85
:10358000A09581F7B901842F9158880F969587955A
:1035900008959B01AC010C94161A9F3F31F0915095
:1035A00020F4879577956795B795880F911D969527
:1035B000879597F9089591505040660F771F881F9F
:1035C000D2F70895FC01918D228D892F90E0805CC7
:1035D0009F4F821B91098F7399270895FC01918D4C
:1035E000828D981731F0828DE80FF11D858D90E066
:1035F00008958FEF9FEF0895FC01918D828D9817AC
:1036000061F0828DDF01A80FB11D5D968C91928DC6
:103610009F5F9F73928F90E008958FEF9FEF0895C3
:10362000FC01538D448D252F30E0842F90E0821BC8
:10363000930B541710F0CF960895019708958BE7D8
:103640009CE1892B49F080E090E0892B29F00E94D1
:103650007B1C81110C9400000895FC01848DDF0116
:10366000A80FB11DA35ABF4F2C91848D90E00196F5
:103670008F739927848FA689B7892C93A089B189E4
:103680008C91837080648C93938D848D981306C085
:103690000288F389E02D80818F7D80830895EF92E9
:1036A000FF920F931F93CF93DF93EC0181E0888FFC
:1036B0009B8D8C8D981305C0E889F989808185FDE3
:1036C00026C0F62E0B8D10E00F5F1F4F0F731127D2
:1036D000E02E8C8DE8120CC00FB607FCFACFE889FB
:1036E000F989808185FFF5CFCE010E942D1BF1CF96
:1036F0008B8DFE01E80FF11DE35AFF4FF0829FB75B
:10370000F8940B8FEA89FB89808180620AC09FB799
:10371000F894EE89FF896083E889F9898081837054
:10372000806480839FBF81E090E0DF91CF911F9103
:103730000F91FF90EF900895CF93DF93EC01888D68
:103740008823C9F0EA89FB89808185FD05C0A889A5
:10375000B9898C9186FD0FC00FB607FCF5CF80812B
:1037600085FFF2CFA889B9898C9185FFEDCFCE0175
:103770000E942D1BE7CFDF91CF910895CF92DF926A
:10378000EF92FF921F93CF93DF93EC016A017B01CD
:10379000122FE889F98982E080834115514E610535
:1037A0007105B1F060E079E08DE390E0A70196014A
:1037B0000E94EF1EDA01C9010197A109B109B6956E
:1037C000A795979587959C01211580E13807A8F06A
:1037D000E889F989108260E874E88EE190E0A70139
:1037E00096010E94EF1EDA01C9010197A109B109F2
:1037F000B695A795979587959C01EC85FD853083B7
:10380000EE85FF852083188EEC89FD891083EA8977
:10381000FB89808180618083EA89FB89808188605F
:103820008083EA89FB89808180688083EA89FB89BB
:1038300080818F7D8083DF91CF911F91FF90EF90EA
:10384000DF90CF9008951F920F920FB60F92112420
:103850002F938F939F93EF93FF93E0915803F091F1
:1038600059038081E0915E03F0915F0382FD12C0F5
:103870009081809161038F5F8F7320916203821723
:1038800051F0E0916103F0E0E85BFC4F958F80938D
:10389000610301C08081FF91EF919F918F912F91E2
:1038A0000F900FBE0F901F9018951F920F920FB69A
:1038B0000F9211242F933F934F935F936F937F93B6
:1038C0008F939F93AF93BF93EF93FF9388E493E01D
:1038D0000E942D1BFF91EF91BF91AF919F918F910E
:1038E0007F916F915F914F913F912F910F900FBEFC
:1038F0000F901F90189588E493E00E94E21A21E04F
:10390000892B09F420E0822F0895E8E4F3E0138284
:10391000128288EE93E0A0E0B0E084839583A683D2
:10392000B78382E092E09183808385EC90E0958775
:10393000848784EC90E09787868780EC90E0918B79
:10394000808B81EC90E0938B828B82EC90E0958B66
:10395000848B86EC90E0978B868B118E128E138E63
:10396000148E089508950E94C21D0E94B21C0E94E8
:103970000305CFE1DBE10E9457032097E1F30E94AA
:103980001F1BF9CFCF92DF92EF92FF920F931F93FD
:10399000CF93DF936C017A018B01C0E0D0E0CE15AC
:1039A000DF0581F0D8016D918D01D601ED91FC917B
:1039B0000190F081E02DC6010995892B11F0219627
:1039C000EECF7E01C701DF91CF911F910F91FF9044
:1039D000EF90DF90CF9008956115710579F0FB01AC
:1039E00001900020E9F73197AF01461B570BDC012E
:1039F000ED91FC910280F381E02D099480E090E04C
:103A0000089560E172E00C94EC1C0F931F93CF9328
:103A1000DF93EC010E94EC1C8C01CE010E94011D81
:103A2000800F911FDF91CF911F910F9108951F92E9
:103A30000F920FB60F9211242F933F938F939F9362
:103A4000AF93BF938091E6039091E703A091E803C1
:103A5000B091E9033091E50323E0230F2D3720F4E3
:103A60000196A11DB11D05C026E8230F0296A11DD8
:103A7000B11D2093E5038093E6039093E703A093A1
:103A8000E803B093E9038091EA039091EB03A091DE
:103A9000EC03B091ED030196A11DB11D8093EA03E3
:103AA0009093EB03A093EC03B093ED03BF91AF9120
:103AB0009F918F913F912F910F900FBE0F901F906C
:103AC00018953FB7F8948091EA039091EB03A09189
:103AD000EC03B091ED0326B5A89B05C02F3F19F06C
:103AE0000196A11DB11D3FBFBA2FA92F982F88277E
:103AF000820F911DA11DB11DBC01CD0142E0660FD9
:103B0000771F881F991F4A95D1F708958F929F922A
:103B1000AF92BF92CF92DF92EF92FF926B017C0146
:103B20000E94611D4B015C01C114D104E104F10448
:103B300001F10E94D21E0E94611DDC01CB01881997
:103B40009909AA09BB09883E9340A105B10560F314
:103B500021E0C21AD108E108F10888EE880E83E05E
:103B6000981EA11CB11CC114D104E104F10419F781
:103B7000DBCFFF90EF90DF90CF90BF90AF909F9002
:103B80008F900895789484B5826084BD84B58160F7
:103B900084BD85B5826085BD85B5816085BDEEE655
:103BA000F0E0808181608083E1E8F0E01082808134
:103BB00082608083808181608083E0E8F0E08081A2
:103BC00081608083E1EBF0E0808184608083E0EBC2
:103BD000F0E0808181608083EAE7F0E080818460AA
:103BE0008083808182608083808181608083808106
:103BF000806880831092C1000895833081F028F49A
:103C0000813099F08230A1F008958730A9F0883092
:103C1000B9F08430D1F4809180008F7D03C0809111
:103C200080008F7780938000089584B58F7702C0DD
:103C300084B58F7D84BD08958091B0008F7703C0D7
:103C40008091B0008F7D8093B0000895CF93DF9373
:103C500090E0FC01E052FF4F2491FC01EC50FF4F3B
:103C60008491882361F190E0880F991FFC01EE5E3A
:103C7000FE4FC591D491FC01E85FFE4FA591B49130
:103C8000611109C09FB7F8948881209582238883A9
:103C9000EC912E230BC0623061F49FB7F8948881B9
:103CA000322F309583238883EC912E2B2C939FBF4A
:103CB00006C08FB7F894E8812E2B28838FBFDF9141
:103CC000CF9108951F93CF93DF93282F30E0F90110
:103CD000E453FF4F8491F901E052FF4FD491F90171
:103CE000EC50FF4FC491CC23C1F0162F81110E94DC
:103CF000FD1DEC2FF0E0EE0FFF1FE85FFE4FA591DA
:103D0000B4919FB7F894111104C08C91D095D82329
:103D100002C0EC91DE2BDC939FBFDF91CF911F910E
:103D200008954F925F926F927F92AF92BF92CF921F
:103D3000DF92EF92FF920F931F93CF93DF93CDB754
:103D4000DEB729013A019B01AC0124193509460966
:103D5000570989899A89AB89BC89BC01CD016A1947
:103D60007B098C099D090E94D31EA8019701241983
:103D70003509460957090E94111FCA01B9016A0D88
:103D80007B1D8C1D9D1DDF91CF911F910F91FF9089
:103D9000EF90DF90CF90BF90AF907F906F905F904B
:103DA0004F9008950895DB018F939F930E94361FD3
:103DB000BF91AF91A29F800D911DA39F900DB29FC7
:103DC000900D11240895991B79E004C0991F96174E
:103DD00008F0961B881F7A95C9F780950895A1E28F
:103DE0001A2EAA1BBB1BFD010DC0AA1FBB1FEE1F75
:103DF000FF1FA217B307E407F50720F0A21BB30BC0
:103E0000E40BF50B661F771F881F991F1A9469F73B
:103E100060957095809590959B01AC01BD01CF0197
:103E20000895052E97FB1EF400940E94281F57FD4D
:103E300007D00E94EF1E07FC03D04EF40C94281FFD
:103E400050954095309521953F4F4F4F5F4F0895C6
:103E500090958095709561957F4F8F4F9F4F0895F6
:103E6000EE0FFF1F0590F491E02D09940E94411F71
:103E7000A59F900DB49F900DA49F800D911D1124BE
:103E80000895A29FB001B39FC001A39F700D811D33
:103E90001124911DB29F700D811D1124911D089553
:103EA000A0E0B0E0E6E5FFE10C94C121EC01009751
:103EB00021F4CB010E949920B4C0FC01E60FF71F4A
:103EC0009C0122503109E217F30708F4A8C0D90178
:103ED0000D911C91119706171707B0F005301105C9
:103EE00008F49BC0C80104978617970708F495C08B
:103EF00002501109061B170B019311936D937C93CC
:103F0000CF010E94312189C05B01A01AB10A4C0186
:103F1000800E911EA091F003B091F103612C712CE1
:103F2000E12CF12C109709F446C08D919C911197CA
:103F3000A815B905B1F56C0142E0C40ED11CCA1434
:103F4000DB0478F14C018A189B08640142E0C40E3E
:103F5000D11C1296BC9012971396AC91B5E0CB167B
:103F6000D10440F0B282A38391828082D9016D9303
:103F70007C9309C00E5F1F4F800F911FF901918341
:103F80008083EB2DFA2FE114F10431F0D701139661
:103F9000FC93EE93129741C0F093F103E093F0038A
:103FA0003CC06816790608F43C017D0112960D901C
:103FB000BC91A02DB7CF8091EE039091EF038816AE
:103FC0009906E1F466167706C8F480910001909195
:103FD0000101009741F48DB79EB7409104015091C3
:103FE0000501841B950BE817F907C8F4F093EF035C
:103FF000E093EE03F901718360830FC0CB010E944F
:1040000099207C01009759F0A801BE010E943D2033
:10401000CE010E943121C70104C0CE0102C080E060
:1040200090E0CDB7DEB7EEE00C94DD21FC018827EF
:104030009927E89421912032E9F3293010F02E30AD
:10404000C8F32B3241F02D3239F4689404C00E9439
:104050009120820F911D219120532A30C0F31EF42C
:10406000909581959F4F0895803209F091110C949D
:10407000BA2180528F55D8F70895FB01DC0102C0A8
:1040800001900D9241505040D8F70895FB01DC019A
:1040900001900D920020E1F70895FB01DC014150F1
:1040A000504030F08D910190801919F40020B9F73B
:1040B000881B990B0895FB01DC014150504048F0EA
:1040C00001900D920020C9F701C01D92415050404F
:1040D000E0F70895FA01A191B081009719F41097C3
:1040E000E1F0CD01DC01CD010D90002011F4C00103
:1040F00013C0FB012191222319F02015D9F7F3CF2A
:10410000FB012191201519F41E92119606C022235D
:10411000C1F70D900020A1F7D001FA01A193B0835F
:1041200008957AE0979F902D879F802D910D1124FF
:1041300008950F931F93CF93DF938230910510F46E
:1041400082E090E0E091F003F091F10320E030E0B4
:10415000A0E0B0E0309719F14081518102811381D4
:1041600048175907C8F08417950769F4109731F07C
:1041700012960C93129713961C9327C00093F0038A
:104180001093F10322C02115310519F0421753078E
:1041900018F49A01BD01EF01DF01F801DBCF211511
:1041A0003105F9F0281B390B2430310580F48A8160
:1041B0009B816115710521F0FB019383828304C00B
:1041C0009093F1038093F003FE01329644C0FE0108
:1041D000E20FF31F81939193225031093983288391
:1041E0003AC02091EE033091EF03232B41F420914C
:1041F0000201309103013093EF032093EE032091ED
:104200000001309101012115310541F42DB73EB770
:104210004091040150910501241B350BE091EE0300
:10422000F091EF03E217F307A0F42E1B3F0B2817C2
:10423000390778F0AC014E5F5F4F2417350748F01F
:104240004E0F5F1F5093EF034093EE0381939193C2
:1042500002C0E0E0F0E0CF01DF91CF911F910F911C
:104260000895CF93DF93009709F481C0FC01329742
:1042700013821282A091F003B091F103109781F4A0
:1042800020813181820F931F2091EE033091EF0343
:104290002817390751F5F093EF03E093EE0367C059
:1042A000ED0120E030E0CE17DF0740F44A815B816A
:1042B0009E0141155105F1F0EA01F5CFD383C28388
:1042C00040815181840F951FC817D90759F48881FF
:1042D0009981840F951F0296918380838A819B81A7
:1042E000938382832115310529F4F093F103E09340
:1042F000F0033DC0E901FB83EA8349915991C40F62
:10430000D51FEC17FD0761F480819181840F951F03
:104310000296E90199838883828193819B838A83B2
:10432000E0E0F0E012968D919C911397009719F0C0
:10433000FD01DC01F7CF8D919C9111979D012E5FBE
:104340003F4F820F931F2091EE033091EF03281708
:10435000390769F4309729F41092F1031092F003B1
:1043600002C013821282B093EF03A093EE03DF9199
:10437000CF9108959927882708952F923F924F92C1
:104380005F926F927F928F929F92AF92BF92CF92E5
:10439000DF92EF92FF920F931F93CF93DF93CDB7EE
:1043A000DEB7CA1BDB0B0FB6F894DEBF0FBECDBF66
:1043B00009942A88398848885F846E847D848C8437
:1043C0009B84AA84B984C884DF80EE80FD800C8140
:1043D0001B81AA81B981CE0FD11D0FB6F894DEBF23
:0C43E0000FBECDBFED010895F894FFCF93
:1043EC000000F203200000004040000000410000EB
:1043FC0080400000803F2000576861743F00526F7E
:10440C00626F742073746172747320696E6974695D
:10441C00616C697A6174696F6E00770053657276AE
:10442C006F2073657276696365207374617274654D
:10443C006400536572766F7320696E697469616C80
:10444C00697A656400526F626F7420696E69746971
:10445C00616C697A6174696F6E20436F6D706C6505
:10446C007465005374616E64005374657020666FDC
:10447C0072776172640053746570206261636B00C3
:10448C005475726E206C656674005475726E207271
:10449C00696768740048616E6420776176650053C3
:1044AC00697400416374696F6E3A00313A75702C0F
:1044BC00303A646E0048616E64207368616B65000D
:1044CC004572726F720002000300040005000600C2
:1044DC000700080009000A000B000C000D0000008A
:1044EC0000004F1BC21C101B9C1BE21AFC1AEE1A7C
:1044FC000D0A006E616E00696E66006F76660000D4
:00000001FF
